:020000040800F2
:1000000000000220D9130008E5120008E7120008DA
:10001000E9120008EB120008ED12000800000000D1
:10002000000000000000000000000000EF120008C7
:10003000F112000800000000F3120008F512000899
:10004000291400082914000829140008291400089C
:10005000291400082914000829140008291400088C
:10006000FD120008291400080713000829140008CD
:10007000291400082914000829140008291400086C
:100080001113000829140008291400082914000875
:10009000291400082914000829140008291400084C
:1000A000291400082914000829140008291400083C
:1000B000291400082914000829140008291400082C
:1000C000291400082914000829140008291400081C
:1000D000291400082914000829140008291400080C
:1000E00029140008291400082914000829140008FC
:1000F00029140008291400082914000829140008EC
:1001000029140008291400082914000829140008DB
:1001100029140008291400082113000829140008D4
:1001200031130008291400082914000829140008B4
:1001300029140008291400082914000829140008AB
:10014000291400082914000829140008291400089B
:10015000291400082914000829140008291400088B
:10016000291400082914000829140008291400087B
:1001700029140008291400082914000800000000B0
:080180002914000829140008ED
:1001880081F0004102E000BF83F0004330B54FEA40
:1001980041044FEA430594EA050F08BF90EA020FAD
:1001A8001FBF54EA000C55EA020C7FEA645C7FEA40
:1001B800655C00F0E2804FEA5454D4EB5555B8BF63
:1001C8006D420CDD2C4480EA020281EA030382EAD4
:1001D800000083EA010180EA020281EA0303362D66
:1001E80088BF30BD11F0004F4FEA01314FF4801C39
:1001F8004CEA113102D0404261EB410113F0004F4B
:100208004FEA03334CEA133302D0524263EB430301
:1002180094EA050F00F0A780A4F10104D5F1200E9F
:100228000DDB02FA0EFC22FA05F2801841F10001FA
:1002380003FA0EF2801843FA05F359410EE0A5F1CE
:1002480020050EF1200E012A03FA0EFC28BF4CF0FF
:10025800020C43FA05F3C01851EBE37101F00045B5
:1002680007D54FF0000EDCF1000C7EEB00006EEBC2
:100278000101B1F5801F1BD3B1F5001F0CD349084C
:100288005FEA30004FEA3C0C04F101044FEA4452A3
:1002980012F5800F80F09A80BCF1004F08BF5FEA2A
:1002A800500C50F1000041EB045141EA050130BD0A
:1002B8005FEA4C0C404141EB0101013C28BFB1F51C
:1002C800801FE9D291F0000F04BF01460020B1FA67
:1002D80081F308BF2033A3F10B03B3F120020CDA3A
:1002E8000C3208DD02F1140CC2F10C0201FA0CF018
:1002F80021FA02F10CE002F11402D8BFC2F1200C7D
:1003080001FA02F120FA0CFCDCBF41EA0C01904032
:10031800E41AA2BF01EB0451294330BD6FEA04047B
:100328001F3C1CDA0C340EDC04F11404C4F1200266
:1003380020FA04F001FA02F340EA030021FA04F378
:1003480045EA030130BDC4F10C04C4F1200220FACF
:1003580002F001FA04F340EA0300294630BD21FA0D
:1003680004F0294630BD94F0000F83F4801306BFD3
:1003780081F480110134013D4EE77FEA645C18BFC7
:100388007FEA655C29D094EA050F08BF90EA020F5E
:1003980005D054EA000C04BF1946104630BD91EA56
:1003A800030F1EBF0021002030BD5FEA545C05D159
:1003B8004000494128BF41F0004130BD14F5800498
:1003C8003CBF01F5801130BD01F0004545F0FE410C
:1003D80041F470014FF0000030BD7FEA645C1ABF41
:1003E800194610467FEA655C1CBF0B46024650EA78
:1003F800013406BF52EA033591EA030F41F40021A4
:1004080030BD00BF90F0000F04BF0021704730B529
:100418004FF4806404F132044FF000054FF00001FE
:1004280050E700BF90F0000F04BF0021704730B5BF
:100438004FF4806404F1320410F0004548BF404294
:100448004FF000013EE700BF42004FEAE2014FEAE9
:1004580031014FEA02701FBF12F07F4393F07F4FC4
:1004680081F06051704732F07F4208BF704793F0C7
:100478007F4F04BF41F40021704730B54FF46074DA
:1004880001F0004521F000411CE700BF50EA0102DD
:1004980008BF704730B54FF000050AE050EA010286
:1004A80008BF704730B511F0004502D5404261EBF6
:1004B80041014FF4806404F132045FEA915C3FF437
:1004C800D8AE4FF003025FEADC0C18BF03325FEAD4
:1004D800DC0C18BF033202EBDC02C2F1200300FA85
:1004E80003FC20FA02F001FA03FE40EA0E0021FAAA
:1004F80002F11444BDE600BF70B54FF0FF0C4CF498
:10050800E06C1CEA11541DBF1CEA135594EA0C0F49
:1005180095EA0C0F00F0DEF82C4481EA030621EA84
:100528004C5123EA4C5350EA013518BF52EA0335BF
:1005380041F4801143F4801338D0A0FB02CE4FF071
:100548000005E1FB02E506F00042E0FB03E54FF0A1
:100558000006E1FB03569CF0000F18BF4EF0010E99
:10056800A4F1FF04B6F5007F64F5407404D25FEA95
:100578004E0E6D4146EB060642EAC62141EA555148
:100588004FEAC52040EA5E504FEACE2EB4F1FD0C8A
:1005980088BFBCF5E06F1ED8BEF1004F08BF5FEA08
:1005A800500E50F1000041EB045170BD06F00046BA
:1005B80046EA010140EA020081EA0301B4EB5C0467
:1005C800C2BFD4EB0C0541EA045170BD41F480115F
:1005D8004FF0000E013C00F3AB8014F1360FDEBF84
:1005E800002001F0004170BDC4F10004203C35DA60
:1005F8000C341BDC04F11404C4F1200500FA05F3E3
:1006080020FA04F001FA05F240EA020001F0004283
:1006180021F0004110EBD37021FA04F642EB0601F9
:100628005EEA430E08BF20EAD37070BDC4F10C0423
:10063800C4F1200500FA04F320FA05F001FA04F2E7
:1006480040EA020001F0004110EBD37041F10001D3
:100658005EEA430E08BF20EAD37070BDC4F12005DE
:1006680000FA05F24EEA020E20FA04F301FA05F246
:1006780043EA020321FA04F001F0004121FA04F2EE
:1006880020EA020000EBD3705EEA430E08BF20EABE
:10069800D37070BD94F0000F0FD101F000464000F8
:1006A80041EB010111F4801F08BF013CF7D041EA7A
:1006B800060195F0000F18BF704703F0004652007E
:1006C80043EB030313F4801F08BF013DF7D043EA4F
:1006D8000603704794EA0C0F0CEA135518BF95EA05
:1006E8000C0F0CD050EA410618BF52EA4306D1D18C
:1006F80081EA030101F000414FF0000070BD50EAAB
:10070800410606BF1046194652EA430619D094EA34
:100718000C0F02D150EA013613D195EA0C0F05D11E
:1007280052EA03361CBF104619460AD181EA030172
:1007380001F0004141F0FE4141F470014FF000002A
:1007480070BD41F0FE4141F4780170BD70B54FF0C5
:10075800FF0C4CF4E06C1CEA11541DBF1CEA135545
:1007680094EA0C0F95EA0C0F00F0A7F8A4EB050427
:1007780081EA030E52EA03354FEA013100F088801E
:100788004FEA03334FF0805545EA131343EA1263E7
:100798004FEA022245EA111545EA10654FEA00269C
:1007A8000EF000419D4208BF964244F1FD0404F555
:1007B800407402D25B084FEA3202B61A65EB0305B1
:1007C8005B084FEA32024FF480104FF4002CB6EB6E
:1007D800020E75EB030E22BFB61A754640EA0C00EE
:1007E8005B084FEA3202B6EB020E75EB030E22BF2E
:1007F800B61A754640EA5C005B084FEA3202B6EB6F
:10080800020E75EB030E22BFB61A754640EA9C002D
:100818005B084FEA3202B6EB020E75EB030E22BFFD
:10082800B61A754640EADC0055EA060E18D04FEABB
:10083800051545EA16754FEA06164FEAC30343EA5B
:1008480052734FEAC2025FEA1C1CC0D111F4801F28
:100858000BD141EA00014FF000004FF0004CB6E721
:1008680011F4801F04BF01430020B4F1FD0C88BFC0
:10087800BCF5E06F3FF6AFAEB5EB030C04BFB6EBCB
:10088800020C5FEA500C50F1000041EB045170BDBE
:100898000EF0004E4EEA113114EB5C04C2BFD4EBEB
:1008A8000C0541EA045170BD41F480114FF0000E6F
:1008B800013C90E645EA060E8DE60CEA135594EAEB
:1008C8000C0F08BF95EA0C0F3FF43BAF94EA0C0FEE
:1008D8000AD150EA01347FF434AF95EA0C0F7FF463
:1008E80025AF104619462CE795EA0C0F06D152EAB7
:1008F80003353FF4FDAE1046194622E750EA41069B
:1009080018BF52EA43067FF4C5AE50EA41047FF4AB
:100918000DAF52EA43057FF4EBAE12E74A0011D25D
:1009280012F5001211D20DD56FF47873B3EB625241
:100938000ED44FEAC12343F0004343EA505323FA4D
:1009480002F070474FF00000704750EA013002D1C2
:100958004FF0FF3070474FF00000704753B94AB965
:10096800002908BF00281CBF4FF0FF314FF0FF30AF
:1009780000F00CB8ADF1080C6DE904CE03F04AFCA8
:10098800DDF804E0DDE9022304B07047704700BFDA
:100998004FF0FF3C06E000BF4FF0010C02E000BF43
:1009A8004FF0010C4DF804CD4FEA410C7FEA6C5C26
:1009B8004FEA430C18BF7FEA6C5C1BD001B050EAC9
:1009C800410C0CBF52EA430C91EA030F02BF90EAB4
:1009D800020F0020704710F1000F91EA030F58BF73
:1009E800994208BF90422CBFD8176FEAE37040F0D5
:1009F800010070474FEA410C7FEA6C5C02D150EA73
:100A0800013C07D14FEA430C7FEA6C5CD6D152EA2D
:100A1800033CD3D05DF8040B704700BF84461046F2
:100A280062468C461946634600E000BF01B5FFF7F1
:100A3800B7FF002848BF10F1000F01BD4DF808EDC1
:100A4800FFF7F4FF0CBF012000205DF808FB00BF92
:100A58004DF808EDFFF7EAFF34BF012000205DF8EC
:100A680008FB00BF4DF808EDFFF7E0FF94BF012039
:100A780000205DF808FB00BF4DF808EDFFF7CEFF3A
:100A880094BF012000205DF808FB00BF4DF808ED79
:100A9800FFF7C4FF34BF012000205DF808FB00BF4A
:100AA8004FEA410212F5001215D211D56FF478738E
:100AB800B3EB625212D94FEAC12343F0004343EA31
:100AC800505311F0004F23FA02F018BF404270470C
:100AD8004FF00000704750EA013005D111F0004096
:100AE80008BF6FF0004070474FF00000704700BF2C
:100AF8000348044B834202D0034B03B118477047A5
:100B08001400002014000020000000000548064BD7
:100B18001B1AD90F01EBA301491002D0034B03B1F3
:100B2800184770471400002014000020000000003F
:100B380010B5064C237843B9FFF7DAFF044B13B11D
:100B48000448AFF300800123237010BD1400002077
:100B580000000000105A000808B5054B1BB10549F4
:100B68000548AFF30080BDE80840FFF7CFBF00BFDE
:100B78000000000018000020105A000800B585B0D9
:100B8800002300930193029303931548154A0260CA
:100B98004FF480324260836003610122027680F85C
:100BA8002030C36210498162C360C26180F830306E
:100BB800426100F037FD68B90523009301230193D2
:100BC800072302936946064800F058FD28B905B086
:100BD8005DF804FB00F0C2FAEEE700F0BFFAF6E7B2
:100BE80090000020002001400100000F30B589B0BE
:100BF800002303930493059306930793026803F174
:100C0800804303F590339A4201D009B030BD0446C1
:100C18000025019503F58C335A6C42F480725A64AE
:100C28005A6C02F480720192019A02951A6B42F092
:100C380001021A631B6B03F001030293029B20233A
:100C480003930323049303A90F4801F093F90F4872
:100C58000F4B036045608560C5604FF48063036196
:100C68004FF4006343614FF400538361C56105622B
:100C7800456200F0F5FF18B9044BA3639C63C4E711
:100C880000F06CFAF8E700BF0000024030000020D6
:100C98001064024000B583B00023009301930C4810
:100CA8000C4B036000F030FE60B91423009302235C
:100CB800019300226946064800F003FF28B903B0F3
:100CC8005DF804FB00F04AFAEFE700F047FAF6E7B0
:100CD800380100200074004030B589B00023039328
:100CE80004930593069307930268274B9A4201D011
:100CF80009B030BD04460025019503F5E2331A6CAE
:100D080042F000521A641A6C02F000520192019AE1
:100D180002951A6B42F001021A631B6B03F0010380
:100D28000293029B102303930323049303A91748F8
:100D380001F020F91648174B03604FF060634360D9
:100D480040238360C5604FF4806303614FF4006300
:100D580043614FF4005383614FF48073C3610562AC
:100D6800456200F07DFF58B9094BA3609C630022DF
:100D78000F21362000F0A0FD362000F0ADFDB7E7CA
:100D880000F0ECF9F0E700BF0074004000000240FA
:100D9800D80000208860024010B582B0002400947A
:100DA800124B1A6B42F400121A631A6B02F4001207
:100DB8000092009A01941A6B42F480021A631B6B2A
:100DC80003F480030193019B22462146102000F082
:100DD80073FD102000F080FD22460121382000F02C
:100DE8006BFD382000F078FD02B010BD00380240DD
:100DF8002DE9F04186B000230193029303930493F5
:100E08000593224B1B6813B106B0BDE8F0811F4B58
:100E180001221A60002600961D4B9A6B42F00102CF
:100E28009A639B6B03F001030093009B4FF4805877
:100E3800CDF8048002270297032504950C24059415
:100E480001A9144801F096F84FF6807301930297B0
:100E580003960495059401A90F4801F08BF84CF20C
:100E680033730193029703960495059401A90B48DF
:100E780001F080F8CDF80480029703960495059454
:100E880001A9074801F076F8BEE700BF4C01002031
:100E9800003802400014024000100240000C0240DA
:100EA8000018024010B588B0002201920292039205
:100EB800049205920692079215484FF0204303606A
:100EC80003F58273436006238360C26002611021C8
:100ED80041618261C261026242624FF4805383625F
:100EE800C26202634263826342640F2301930293E6
:100EF800FF240394049305911123069301A901F09B
:100F080043FC08B908B010BD00F028F9FAE700BFA3
:100F18005001002008B5FFF76BFF08BD2DE9F0412F
:100F28008CB000240794089409940A940B940094B4
:100F3800404B1A6B42F010021A631A6B02F010024F
:100F48000092009A01941A6B42F004021A631A6B19
:100F580002F004020192019A02941A6B42F02002F4
:100F68001A631A6B02F020020292029A03941A6B17
:100F780042F080021A631A6B02F080020392039A0D
:100F880004941A6B42F001021A631A6B02F0010210
:100F98000492049A05941A6B42F008021A631A6BB9
:100FA80002F008020592059A06941A6B42F0400274
:100FB8001A631B6B03F040030693069B1E4F012226
:100FC8004FF4C061384601F0CBF8142307934FF46F
:100FD8000413089301250995DFF8608007A94046A6
:100FE80000F0C8FF082607964FF488130893099560
:100FF80007A9404600F0BEFF4FF4C0630793089569
:1010080009950A9407A9384600F0B4FF22462146FC
:10101800304600F051FC304600F05EFC224629467E
:101028000A2000F049FC0A2000F056FC0CB0BDE88C
:10103800F08100BF00380240001402400010024056
:1010480010B5002400E00134C72C2CDC6000FFF749
:10105800E9F91BA3D3E90023FFF74EFA0022144B4A
:10106800FFF774FB41EC100B03F016FB51EC100B6F
:101078000022104BFFF78AF800220F4BFFF73CFACB
:1010880009A3D3E90023FFF737FAFFF747FC80B23B
:101098000A4B23F81400B0F5805FD4D340F6FF72F2
:1010A80023F81420CFE710BD65934D36D964D33F9C
:1010B800000069400000F03F0000A040A4010020AB
:1010C800372C4454FB21094010B5044600F0F6F9CA
:1010D8001E4B1B68C31AC72B1BD91C4B1860042C4A
:1010E80018D0102C25D01A4BD3ED007AF8EE677A79
:1010F8009FED187AC7EE277A17EE900AFFF7A4F942
:1011080000220023FFF742F8FFF708FC0138124BD2
:10111800D86210BD0E4B1B68643342F210729342C2
:1011280002D80B4A1360DEE7094B42F210721A60CC
:10113800D9E7074B1B68643B632B02D9044A136049
:10114800D1E7034B64221A60CDE700BFA00100205D
:1011580000000020000ECE480014004072B6FEE7E2
:1011680000B595B03022002108A803F0B1F900239A
:101178000393049305930693079301931F4A116CF5
:1011880041F080511164126C02F080520192019A70
:1011980002931B4A116841F480411160126802F4FD
:1011A80080420292029A0222089201210B91102198
:1011B8000C910E920F9308231093A8231193129267
:1011C8000423139308A800F0DFFF98B90F230393B3
:1011D80002230493002305934FF4A05306934FF47E
:1011E80080530793052103A801F01EFA20B915B012
:1011F8005DF804FBFFF7B2FFFFF7B0FF00380240CD
:101208000070004000B585B000F032F9FFF7A8FF84
:10121800FFF784FEFFF7C0FDFFF744FEFFF73AFD36
:1012280000F094F8FFF7AAFC642000F04DF902F0F2
:10123800F5FCFFF705FF00240094C823144A214653
:10124800144800F073FB029401250195124B00939A
:101258005023A0224FF496711E2002F091FD0294B3
:1012680001950E4B00935023A0224FF48C714FF43C
:101278009B7002F085FD02940195094B0093502361
:10128800A0224FF496714FF49B7002F079FDFEE7AF
:10129800A401002038010020285A00083C5A000800
:1012A800505A000882B0002100910B4B5A6C42F44E
:1012B80080425A645A6C02F480420092009A01916A
:1012C8001A6C42F080521A641B6C03F0805301932D
:1012D800019B02B0704700BF00380240FEE7FEE7FE
:1012E800FEE7FEE7FEE770477047704708B500F075
:1012F800D9F808BD08B5042000F038FF08BD08B5C6
:10130800102000F033FF08BD08B5024800F044FD86
:1013180008BD00BFD800002008B5024800F09BFBBC
:1013280008BD00BF3801002008B5024800F034FDB0
:1013380008BD00BF30000020034AD2F8883043F4CB
:101348007003C2F88830704700ED00E000B583B044
:101358000023009301931048104A026043608360A1
:1013680041F26702C260836101F0E4FA70B9202398
:101378000093002301936946074801F007FB40B931
:10138800054801F02DFA03B05DF804FBFFF7E6FE0F
:10139800EDE7FFF7E3FEF3E7340300200014004015
:1013A8000268094B9A4200D0704782B0002301932B
:1013B800064B1A6C42F020021A641B6C03F02003DF
:1013C8000193019B02B070470014004000380240AE
:1013D800DFF834D0FFF7B0FF0C480D490D4A002361
:1013E80002E0D458C4500433C4188C42F9D30A4AD2
:1013F8000A4C002301E013600432A242FBD303F03D
:10140800B9F8FFF7FFFE7047000002200000002037
:1014180014000020EC8B0008140000207005002048
:10142800FEE7000010B504460E4B1A784FF47A73A5
:10143800B3FBF2F30C4A1068B0FBF3F000F050FA7B
:1014480068B90F2C01D901200AE0002221464FF08B
:10145800FF3000F031FA054B1C60002000E001204D
:1014680010BD00BF08000020040000200C00002070
:1014780008B50B4B1A6842F400721A601A6842F4F5
:1014880080621A601A6842F480721A60032000F0C1
:1014980001FA0020FFF7C6FFFFF704FF002008BD90
:1014A800003C0240034A1168034B1B780B4413604D
:1014B800704700BF7C03002008000020014B18681B
:1014C800704700BF7C03002038B50446FFF7F6FFDD
:1014D8000546B4F1FF3F02D0044B1B781C44FFF7CC
:1014E800EDFF401BA042FAD338BD00BF0800002022
:1014F8004A4B5A6822F440325A605A6841680A4393
:101508005A600268536823F4807353600268536812
:10151800016943EA012353600268536823F040736A
:1015280053600268536881680B435360026893688C
:1015380023F40063936002689368C1680B43936067
:10154800826A374B9A4257D00268936823F07063D7
:10155800936002689368816A0B439360026893689A
:1015680023F04053936002689368C16A0B43936009
:101578000268936823F00203936002689368017E0F
:1015880043EA4103936090F82030002B3FD0026873
:10159800536843F4006353600268536823F460435C
:1015A800536001684B68426A013A43EA42334B6030
:1015B8000268D36A23F47003D3620168CB6AC269F4
:1015C800013A43EA0253CB620268936823F400733A
:1015D80093600268936890F8301043EA412393605F
:1015E8000268936823F48063936002689368416992
:1015F80043EA8123936070470268936823F070631D
:1016080093600268936823F040539360B0E70268E0
:10161800536823F400635360CAE700BF0023014006
:101628000100000F38B310B50446036C43B1236CB6
:1016380013F0100F0BD00120002384F83C3010BDAC
:10164800FFF7D4FA0023636484F83C30EFE7236C97
:1016580023F4885323F0020343F002032364204653
:10166800FFF746FF00206064236C23F0030343F078
:1016780001032364E0E701207047000030B482B022
:101688000022019290F83C20012A00F0B68003461F
:10169800012280F83C200A68092A40D90468E068D9
:1016A80092B202EB42021E3A4FF0070C0CFA02F219
:1016B80020EA0202E2601C68E0680A8802EB420243
:1016C8001E3A8D6805FA02F20243E2604A68062A69
:1016D8003CD81C68606B02EB8202053A4FF01F0C85
:1016E8000CFA02F220EA020262631C68606B4A6824
:1016F80002EB8202053AB1F800C00CFA02F202438A
:10170800626318683E4A904250D018683C4A90423A
:1017180055D0002083F83C0002B030BC7047046804
:10172800206992B202EB42024FF0070C0CFA02F267
:1017380020EA020222611C6820690A8802EB420240
:101748008D6805FA02F202432261BFE70C2A16D817
:101758001D68286B02EB8202233A1F2404FA02F266
:1017680020EA02022A631D68286B4A6802EB82029B
:10177800233A0C8804FA02F202432A63C1E71D687F
:10178800E86A02EB8202413A1F2404FA02F220EAD4
:101798000202EA621D68E86A4A6802EB8202413A7C
:1017A8000C8804FA02F20243EA62AAE70A68122ADB
:1017B800ABD11448426842F480024260A5E70A6847
:1017C800103A012AA5D80F48426842F40002426044
:1017D8000A68102A9DD10C4A12680C49A1FB021212
:1017E800920C02EB82025200019202E0019A013A45
:1017F8000192019A002AF9D18BE702208CE700BFF9
:1018080000200140002301400400002083DE1B4328
:10181800002807DB00F01F02400901239340024A19
:1018280042F82030704700BF00E100E0002808DBE4
:101838000901C9B200F1604000F5614080F8001369
:10184800704700F00F000901C9B2014B19547047E5
:1018580014ED00E000B500F00700C0F1070CBCF182
:10186800040F28BF4FF0040C031D062B0FD9C31E0D
:101878004FF0FF3E0EFA0CF021EA000199400EFAF3
:1018880003FE22EA0E0241EA02005DF804FB00238F
:10189800EEE70000074AD36823F4E0631B041B0C3F
:1018A800000200F4E060034343F0BF6343F40033F5
:1018B800D360704700ED00E010B50446054BD868CA
:1018C800C0F30220FFF7C6FF01462046FFF7AEFF30
:1018D80010BD00BF00ED00E008B5FFF799FF08BD97
:1018E8000138B0F1807F0BD24FF0E0235861054AF0
:1018F800F02182F823100020986107221A617047AE
:101908000120704700ED00E070B110B5044603797E
:1019180033B102232371002020610123237110BDFC
:101928004371FFF7D9F9F4E70120704770B50D4608
:101938001146049A002861D00446407901285FD0F6
:101948000120607102202071002D2FD1A0682D4E3A
:10195800C663A0682C4E0664A0682C4EC664266830
:10196800306840F48050306022B1042A1BD02268CD
:10197800103201E022680832002D31D12668306823
:1019880040F400503060A06800F0D0F90023637183
:1019980000282ED121680B6805F010050122AA4005
:1019A80013430B6070BD22680C32E5E7E068184EFF
:1019B800C663E068174E0664E068174EC66426687A
:1019C800306840F08050306022B1042A05D0226887
:1019D8001C32D1E722681432CEE722681832CBE7EE
:1019E8002668306840F000503060E06800F09EF9EA
:1019F800CCE7236943F004032361D3E70120D1E74F
:101A08000220CFE7271A0008391A0008451A0008EB
:101A1800351B0008451B00084F1B0008704710B510
:101A2800846B2046FFF7FAFF0123237110BD70472E
:101A380008B5806BFFF7FBFF08BD704710B5846BD6
:101A4800236943F0040323612046FFF7F6FF0123CF
:101A5800237110BD704770B5044603681D685E6B3E
:101A680015F4005F02D016F4005F06D115F0005F90
:101A780002D016F0005F11D170BD04220271026914
:101A880042F0010202614FF400525A63026813687F
:101A980023F480531360FFF7DDFFE7E70423237186
:101AA800236943F00203236123684FF000525A630D
:101AB8002268136823F080531360204600F035F83D
:101AC800DAE748B3844649B34379012B28D010B5E7
:101AD8004FF0010E80F805E00223037104682068C6
:101AE80002F0100240F6FE73934020EA03000B68F0
:101AF80049680B43934003432360DCF80000036804
:101B0800C02101FA02F223EA020303608CF804E020
:101B180000208CF8050010BD012070470120704797
:101B280002207047704770477047704710B5846B44
:101B38002046FFF7F7FF0123237110BD08B5806B1E
:101B4800FFF7F1FF08BD10B5846B236943F0040368
:101B580023612046FFF7E8FF0123237110BD30B44D
:101B680005682C6824F480242C600468636083680A
:101B7800402B05D0036899600368DA6030BC704771
:101B880003689A600368D960F8E7000010B4036836
:101B9800D9B210390C4AA2FB014212090B4CA25CC3
:101BA800C2655F2909D923F47F7323F00303043343
:101BB8008365806D5DF8044B704723F47F7323F0D1
:101BC80003038365F5E700BFABAAAAAA745A000805
:101BD800836A826992B9012B0AD0022B02D00BB119
:101BE80000207047C36A13F0807F28D10020704717
:101BF800C36AB3F1C07F24D000207047B2F5005FFC
:101C080009D0022B25D9032B25D1C36A13F0807F75
:101C180023D100207047032B03D8DFE803F0140416
:101C2800140A00207047C36A13F0807F0DD100208A
:101C38007047C36AB3F1C07F09D000207047012004
:101C4800704701207047012070470120704701202C
:101C5800704701207047002070470120704700003E
:101C680070B50446FFF72AFC002C5BD0054602231A
:101C780084F83530002384F834302268136823F060
:101C88000103136023681A6812F0010F0AD0FFF7E6
:101C980015FC431B052BF5D920236365032084F825
:101CA800350070BD1A68204911406268A068024377
:101CB800E06802432069024360690243A069024365
:101CC800E0690243206A02430A43616A04291ED07C
:101CD8001A602668756925F00705636A1D43042B99
:101CE80007D1A36A1D43E36A1BB12046FFF770FFC3
:101CF80090B975612046FFF749FFE26D3F23934095
:101D0800836000206065012384F83530C9E7E16A03
:101D1800206B01430A43DBE740236365012084F815
:101D28003500BEE70120BCE73F8010F038B5044617
:101D3800856D90F8340001282BD0012084F83400F8
:101D480094F83500C0B2012804D0002384F8343058
:101D5800022038BD022084F8350000206065204646
:101D6800FFF7FDFEE26D3F239340AB6022681368E6
:101D780043F016031360236C23B12268136843F001
:101D8800080313602268136843F0010313600020FE
:101D9800DFE70220DDE70000F0B583B0044600234A
:101DA8000193724B1D68724BA3FB0535AD0A876D15
:101DB8003E68C26D08239340334210D003681A6806
:101DC80012F0040F0BD01A6822F004021A60C26DD8
:101DD80008239340BB60436D43F001034365E26D04
:101DE80001239340334209D02268526912F0800FD0
:101DF80004D0BB60636D43F002036365E26D0423A6
:101E08009340334209D02268126812F0020F04D0BE
:101E1800BB60636D43F004036365E26D1023934078
:101E2800334224D02268126812F0080F1FD0BB601A
:101E380023681A6812F4802F0DD01B6813F4002F42
:101E480004D1236C9BB12046984710E0A36C73B172
:101E5800204698470BE01A6812F4807F03D11A686D
:101E680022F008021A60236C0BB120469847E26DF5
:101E780020239340334255D02268126812F0100F85
:101E880050D0BB6094F83530DBB2052B0ED02368F8
:101E98001A6812F4802F33D01B6813F4002F2AD14C
:101EA800636C002B3ED0204698473BE022681368BD
:101EB80023F0160313602268536923F080035361EB
:101EC800236CA3B12268136823F008031360E26D42
:101ED8003F239340BB60012384F83530002384F806
:101EE8003430236D002B3FD0204698473CE0A36C4C
:101EF800002BE7D1EBE7E36BA3B12046984711E04D
:101F08001A6812F4807F09D11A6822F010021A6048
:101F1800012384F83530002384F83430E36B0BB1A7
:101F280020469847636DFBB1636D13F0010F17D01E
:101F3800052384F835302268136823F00103136001
:101F4800019B01330193AB4204D823681B6813F04B
:101F5800010FF5D1012384F83530002384F834309B
:101F6800E36C0BB12046984703B0F0BD0400002095
:101F7800B5814E1B00230F2B00F2E98070B582B0AB
:101F880065E085684FEA430E032404FA0EF425EA57
:101F98000405CC6804FA0EF42C438460446824EAEF
:101FA80002044A68C2F300129A40224342605CE08D
:101FB800DC08083450F8242003F00705AD004FF082
:101FC8000F0E0EFA05FE22EA0E0E0A69AA4042EA30
:101FD8000E0240F824205CE0072200E0002202FA0A
:101FE8000EF22A4302345A4D45F82420594A94687F
:101FF8006FEA0C0224EA0C054E6816F4801F01D023
:102008004CEA0405534CA560E46802EA04054E68EE
:1020180016F4001F01D04CEA04054E4CE5606468D4
:1020280002EA04054E6816F4003F01D04CEA0405A4
:10203800484C6560246822404D6815F4803F01D003
:102048004CEA0402434C226001330F2B7DD8012255
:102058009A400C6804EA020C32EA0404F4D14C6891
:1020680004F00304013C012C8BD94A6802F00302F6
:10207800032A09D0C4685D000322AA4024EA0204A6
:102088008A68AA402243C2604A6802F00302022A10
:102098008ED004684FEA430E032202FA0EF224EAB5
:1020A80002044A6802F0030202FA0EF222430260B6
:1020B8004A6812F4403FC7D000220192264A546C65
:1020C80044F480445464526C02F480420192019AB0
:1020D8009C08A51C1E4A52F8255003F0030E4FEA2F
:1020E8008E0E0F2202FA0EF225EA02051B4A9042D2
:1020F8003FF474AF02F5806290421AD002F5806214
:10210800904218D002F58062904216D002F58062A3
:10211800904214D002F58062904212D002F580629B
:10212800904210D002F5806290423FF455AF0822E9
:1021380055E7012253E7022251E703224FE7042221
:102148004DE705224BE7062249E702B070BD70470C
:1021580000380140003C01400038024000000240C5
:102168000AB18161704709048161704708B5054B60
:102178005B69034200D108BD024B5861FEF7A4FF1A
:10218800F9E700BF003C0140002800F0E08170B58D
:1021980082B00446036813F0010F3BD09F4B9B6845
:1021A80003F00C03042B2CD09C4B9B6803F00C030E
:1021B800082B21D06368B3F5803F4FD0B3F5A02F2B
:1021C80052D0964B1A6822F480321A601A6822F4A8
:1021D80080221A606368002B50D0FFF76FF905461C
:1021E8008E4B1B6813F4003F14D1FFF767F9401BAF
:1021F8006428F5D90320B1E1884B5B6813F4800F9C
:10220800D8D0864B1B6813F4003F03D06368002BBB
:1022180000F09F81236813F0020F54D07F4B9B6816
:1022280013F00C0F3ED07D4B9B6803F00C03082B7A
:1022380033D0E368002B68D0794B01221A60FFF78E
:102248003DF90546754B1B6813F0020F54D1FFF793
:1022580035F9401B0228F5D903207FE16F4A13683E
:1022680043F480331360B5E76C4B1A6842F480225C
:102278001A601A6842F480321A60ABE7FFF71EF959
:102288000546664B1B6813F4003FC3D0FFF716F9E9
:10229800401B6428F5D9032060E1604B5B6813F4A8
:1022A800800FC6D15D4B1B6813F0020F03D0E368A3
:1022B800012B40F05081594A136823F0F803216933
:1022C80043EAC1031360236813F0080F42D063691F
:1022D8006BB3534B0122C3F8802EFFF7EFF8054686
:1022E8004E4B5B6F13F0020F34D1FFF7E7F8401B3A
:1022F8000228F5D9032031E1484A136823F0F8038E
:10230800216943EAC1031360DDE7454B00221A60E7
:10231800FFF7D4F80546414B1B6813F0020FD2D0E3
:10232800FFF7CCF8401B0228F5D9032016E13C4BF7
:102338000022C3F8802EFFF7C1F80546374B5B6FC4
:1023480013F0020F06D0FFF7B9F8401B0228F5D9A1
:10235800032003E1236813F0040F77D02F4B1B6C85
:1023680013F0805F33D1002301932C4B1A6C42F099
:1023780080521A641B6C03F080530193019B012562
:10238800284B1B6813F4807F23D0A368012B34D01B
:10239800052B38D0214B1A6F22F001021A671A6FE9
:1023A80022F004021A67A368002B3DD0FFF786F8D5
:1023B80006461A4B1B6F13F0020F46D1FFF77EF843
:1023C800801B41F288339842F3D90320C6E00025E8
:1023D800D6E7144A136843F480731360FFF76EF866
:1023E8000646104B1B6813F4807FCED1FFF766F8C2
:1023F800801B0228F5D90320B0E0084A136F43F088
:1024080001031367CFE7054B1A6F42F004021A67FE
:102418001A6F42F001021A67C5E700BF0038024090
:102428000000474200700040FFF748F80646524B4C
:102438001B6F13F0020F08D0FFF740F8801B41F222
:1024480088339842F3D9032088E0EDB9A369002BBB
:1024580000F08380484A926802F00C02082A51D0A2
:10246800022B17D0454B00221A66FFF727F80446BF
:10247800414B1B6813F0007F42D0FFF71FF8001B89
:102488000228F5D9032069E03B4A136C23F08053F6
:102498001364DBE7394B00221A66FFF70FF805468D
:1024A800354B1B6813F0007F06D0FFF707F8401B79
:1024B8000228F5D9032051E0E369226A1343626ACE
:1024C80043EA8213A26A5208013A43EA0243E26AE3
:1024D80043EA0263284A5360284B01221A66FEF732
:1024E800EDFF0446244B1B6813F0007F06D1FEF76E
:1024F800E5FF001B0228F5D903202FE000202DE07E
:1025080000202BE0012B2BD01B4B5B6803F48001D0
:10251800E269914226D103F03F02216A8A4223D11F
:10252800616A47F6C0721A40B2EB811F1ED103F4EC
:102538004031A26A5208013AB1EB024F18D103F0B8
:102548007063E26AB3EB026F14D1002006E0012049
:102558007047012002E0012000E0002002B070BDB9
:102568000120FBE70120F9E70120F7E70120F5E763
:102578000120F3E70120F1E700380240000047425C
:1025880008B5264B9B6803F00C03042B41D0082B9D
:1025980041D1224B5A6802F03F025B6813F4800F66
:1025A80012D01E4B5968C1F388111D480023A1FBA6
:1025B8000001FEF7D3F9194B5B68C3F301430133FC
:1025C8005B00B0FBF3F027E0144B5868C0F38810A9
:1025D8004FEA401CBCEB000C6EEB0E0E4FEA8E135C
:1025E80043EA9C634FEA8C11B1EB0C0163EB0E03D9
:1025F800DB0043EA5173C90011EB000C43F10003FF
:10260800990200234FEA8C2041EA9C51FEF7A6F973
:10261800D1E7034800E0034808BD00BF0038024086
:1026280040787D010024F400002800F09B8070B5FC
:102638000D4604464F4B1B6803F007038B4208D234
:10264800CBB24C4A1370136803F007038B4240F077
:102658008B80236813F0020F17D013F0040F04D0F7
:10266800454A936843F4E0539360236813F0080FD6
:1026780004D0414A936843F4604393603E4A9368A8
:1026880023F0F003A1680B439360236813F0010F54
:1026980032D06368012B21D09A1E012A25D9364AE7
:1026A800126812F0020F61D033498A6822F00302DF
:1026B80013438B60FEF702FF06462F4B9B6803F01F
:1026C8000C036268B3EB820F16D0FEF7F7FE801B8F
:1026D80041F288339842F0D9032042E0264A126832
:1026E80012F4003FE0D101203BE0234A126812F0C7
:1026F800007FD9D1012034E01E4B1B6803F007038B
:10270800AB4207D9EAB21B4B1A701B6803F00703E8
:10271800AB422DD1236813F0040F06D0164A9368F4
:1027280023F4E053E1680B439360236813F0080F28
:1027380007D0114A936823F46043216943EAC1032F
:102748009360FFF71DFF0C4B9B68C3F303130B4A01
:10275800D35CD8400A4B18600A4B1868FEF762FE33
:10276800002070BD012070470120FAE70120F8E73A
:102778000120F6E7003C024000380240645A000895
:10278800040000200C00002040B370B50E4615462A
:10279800044690F84930E3B1214651F8080B00F09F
:1027A8003BF9A2683146206800F06CF9236BA268F7
:1027B8002946606800F088F92268A16852F821303B
:1027C80043F0010342F82130012384F84930002006
:1027D80070BD80F84830FEF79DFBDDE701207047AB
:1027E80090F83D30DBB2012B32D1022380F83D3026
:1027F8000368194A934220D0B3F1804F1DD0A2F547
:102808007C42934219D002F58062934215D002F5BA
:102818008062934211D002F5784293420DD002F5BE
:102828007052934209D0A2F59432934205D01A68A7
:1028380042F001021A60002070479A6802F007020D
:10284800062A07D01A6842F001021A600020704771
:102858000120704700207047000001400368344A97
:10286800904212D0B0F1804F0FD0A2F57C42904236
:102878000BD002F58062904207D002F58062904248
:1028880003D002F57842904203D123F070034A68DE
:102898001343274A90422AD0B0F1804F27D0A2F59F
:1028A8007C42904223D002F5806290421FD002F50C
:1028B800806290421BD002F57842904217D002F510
:1028C8007052904213D002F5806290420FD002F508
:1028D800806290420BD0A2F59832904207D002F560
:1028E8008062904203D002F58062904203D123F4C3
:1028F8004073CA68134323F080034A691343036093
:102908008B68C3620B688362094B984203D003F556
:102918008063984201D10B69036301234361036912
:1029280013F0010F03D0036923F00103036170471B
:102938000000014040B310B5044690F83D30F3B1B3
:10294800022384F83D30214651F8040BFFF786FF37
:10295800012384F8463084F83E3084F83F3084F808
:10296800403084F8413084F8423084F8433084F8A9
:10297800443084F8453084F83D30002010BD80F89C
:102988003C30FEF70DFDDBE70120704790F83C2056
:10299800012A3DD010B40346012280F83C200222CF
:1029A80080F83D2002685068946820F0700C086830
:1029B80040EA0C0050601A68164882421AD0B2F1F8
:1029C800804F17D0A0F57C40824213D000F580607C
:1029D80082420FD000F5806082420BD000F578402B
:1029E800824207D000F57050824203D0A0F594309F
:1029F800824204D124F08004496821439160012275
:102A080083F83D20002083F83C005DF8044B7047B4
:102A1800022070470000014010B40A6850F82230C4
:102A280023F0010340F822308B68082B25D00024BE
:102A38004A6822431343CA6813430A6913434A691D
:102A48001343CA6913430A6A13434A6A13438A6AD7
:102A58001343CA6A13430A6B13438A691A43CB6B3D
:102A68001A43096850F82140054B2340134340F8A6
:102A7800213000205DF8044B70474024D8E700BFA0
:102A88008000F0FF10B5013250F8223003F0404CBE
:102A98000B684C6843EA04138C6843EA0423CC6847
:102AA80043EA04430C6904F1FF3E43EA0E534C69C0
:102AB800A4F1020E43EA0E6389690B434CEA03034F
:102AC80040F82230002010BDB3F5804F05D06FF0DC
:102AD800704340F822300020704730B450F822305C
:102AE800094C1C400B684D6843EA05138D6843EA9E
:102AF80005238D692B43C96843EA01431C4340F809
:102B08002240002030BC70470000F0CF4FF0D8437F
:102B1800D422A3F87E20B3F88020B3F88020B3F83D
:102B2800800080B2000280B2B3F88030DBB2184374
:102B380045F21033984211D04FF0D843D322A3F86E
:102B48007E20B3F88020B3F88020B3F8800080B2EC
:102B5800000280B2B3F88030DBB2184370474FF000
:102B6800D8432A22A3F87E20020AA3F88020C0B204
:102B7800A3F880000A0AA3F88020C9B2A3F880103D
:102B880070474FF0D8432B22A3F87E20020AA3F8FF
:102B98008020C0B2A3F880000A0AA3F88020C9B236
:102BA800A3F8801070472C224FF0D843A3F87E205A
:102BB8007047000070B586B0002401940294039415
:102BC8000494059400940F4B1A6B42F002021A63A6
:102BD8001B6B03F002030093009B4FF40046019621
:102BE80001230293039302230493074D01A9284666
:102BF800FFF7C0F9224631462846FFF7B1FA06B07A
:102C080070BD00BF00380240000402402DE9F84FB3
:102C1800064B1B8845F21032934209D047F2967250
:102C2800934200F00D86BDE8F88F00BF80030020B6
:102C38004FF0D843ED22A3F87E200122A3F880208C
:102C4800FE21A3F88010EE21A3F87E10DE21A3F860
:102C580080102120A3F88000F121A3F87E10A3F8AA
:102C68008020DF22A3F87E201022A3F88020C4242D
:102C7800A3F87E408F22A3F88020C622A3F87E20E6
:102C88000022A3F88020E221A3F88010A3F8801086
:102C9800A3F88010BF21A3F87E10AA21A3F8801002
:102CA800B021A3F87E100D21A3F88010A3F880208E
:102CB800A3F88010A3F880201121A3F88010A3F8AE
:102CC80080201921A3F88010A3F88020A3F88000A1
:102CD800A3F880202D21A3F88010A3F880203D219F
:102CE800A3F88010A3F880205D21A3F88010A3F832
:102CF8008020A3F88010A3F88020B121A3F87E10CB
:102D08008021A3F88010A3F880208B26A3F8806088
:102D1800A3F880209625A3F88050A3F88020B2213C
:102D2800A3F87E10A3F88020A3F880200220A3F83F
:102D38008000A3F880200321A3F88010A3F8802046
:102D4800B327A3F87E70A3F88020A3F88020A3F807
:102D58008020A3F88020A3F88020A3F88020A3F87F
:102D68008020A3F88020A3F88020A3F88020A3F86F
:102D78008020A3F88020A3F88020A3F88020A3F85F
:102D88008020A3F88020A3F88020A3F88020A3F84F
:102D98008020A3F88020A3F88020A3F88020A3F83F
:102DA8008020A3F88020B427A3F87E70A3F8806061
:102DB800A3F88020A3F88050A3F88020A125A3F8C9
:102DC8008050A3F88020B525A3F87E50A3F8800092
:102DD800A3F88020A3F88010A3F880200420A3F88B
:102DE8008000A3F88020B621A3F87E10A3F88020E5
:102DF800A3F88020B721A3F87E10A3F88020A3F8B9
:102E080080203F21A3F88010A3F880205E21A3F83A
:102E18008010A3F880206421A3F88010A3F88020F4
:102E28008C21A3F88010A3F88020AC21A3F880108F
:102E3800A3F88020DC21A3F88010A3F88020702557
:102E4800A3F88050A3F880209025A3F88050A3F819
:102E58008020EB25A3F88050A3F88020A3F88010E9
:102E6800A3F88020B821A3F87E10A3F88020A3F847
:102E78008020A3F88020A3F88020A3F88020A3F85E
:102E88008020A3F88020A3F88020BA21A3F87E1020
:102E98002421A3F88010A3F88020A3F88020A3F8A9
:102EA8008020C125A3F87E502025A3F88050A3F8E0
:102EB80080205425A3F88050A3F88020FF25A3F88C
:102EC8008050A3F88020C225A3F87E500A25A3F8D5
:102ED8008050A3F88020A3F88000A3F88020C320A6
:102EE800A3F87E003C20A3F88000A3F880203A25B0
:102EF800A3F88050A3F880203925A3F88050A3F8C0
:102F080080203725A3F88050A3F88020A3F88000FC
:102F1800A3F880204FF03609A3F88090A3F880200A
:102F28004FF03208A3F88080A3F880204FF02F0ECE
:102F3800A3F880E0A3F880204FF02C0CA3F880C001
:102F4800A3F880202927A3F88070A3F880202626DC
:102F5800A3F88060A3F88020A3F88010A3F880204D
:102F6800A3F88010A3F880202325A3F88050A3F8A5
:102F78008020A3F88000A3F88020A3F88090A3F80D
:102F88008020A3F88080A3F88020A3F880E0A3F82D
:102F98008020A3F880C0A3F88020A3F88070A3F84D
:102FA8008020A3F88060A3F88020A3F88010A3F8FD
:102FB8008020A3F88010A3F88020A3F88050A3F8FD
:102FC8008020A3F87E406221A3F88010A3F8802017
:102FD8000521A3F88010A3F880208421A3F880108D
:102FE800A3F88020F021A3F88010A3F880201821EE
:102FF800A3F88010A3F88020A420A3F88000A3F8E9
:103008008020A3F88010A3F880204FF05001A3F887
:103018008010A3F880200C21A3F88010A3F880204A
:103028001725A3F88050A3F880209521A3F88010D5
:10303800A3F88020F321A3F88010A3F88020E620CD
:10304800A3F88000A3F88020C520A3F87E00A3F889
:103058008080A3F880204424A3F88040A3F880202F
:103068006520A3F88000A3F880207620A3F88000CC
:10307800A3F880208820A3F88000A3F88020C62623
:10308800A3F87E602026A3F88060A3F88020A3F828
:103098008050A3F880200125A3F88050A3F8802051
:1030A8004FF0C705A3F87E50A3F88020A3F880202E
:1030B800A3F88020A3F88020C825A3F87E50A3F8A1
:1030C8008020A3F88020A3F88020A3F88020C925B9
:1030D800A3F87E50A3F88020A3F88020A3F88020CE
:1030E800A3F88020A3F88020A3F88020A3F88020EC
:1030F800A3F88020A3F88020A3F88020A3F88020DC
:10310800A3F88020A3F88020A3F88020A3F88020CB
:10311800A3F88020E026A3F87E604FF0160AA3F8F3
:1031280080A0A3F880201C25A3F88050A3F8802055
:103138002127A3F88070A3F88020A3F88090A3F833
:1031480080204627A3F88070A3F880204FF052070C
:10315800A3F88070A3F880204FF0640CA3F880C017
:10316800A3F880204FF07A0EA3F880E0A3F880201F
:103178004FF08B08A3F88080A3F880204FF0990BBC
:10318800A3F880B0A3F880204FF0A807A3F88070B8
:10319800A3F880204FF0B908A3F88080A3F8802016
:1031A8004FF0C40EA3F880E0A3F880204FF0CA0CBB
:1031B800A3F880C0A3F88020D227A3F88070A3F8D2
:1031C80080204FF0D90BA3F880B0A3F88020A3F893
:1031D8008060A3F88020A3F88010A3F880204FF027
:1031E800E10BA3F87EB0A3F880A0A3F88020A3F891
:1031F8008050A3F880204FF0220AA3F880A0A3F8FB
:103208008020A3F88090A3F880204FF04509A3F808
:103218008090A3F880204FF0520AA3F880A0A3F86A
:1032280080204FF0640AA3F880A0A3F880204FF014
:103238007A0AA3F880A0A3F880204FF08B0AA3F89D
:1032480080A0A3F880204FF0990BA3F880B0A3F8D2
:1032580080204FF0A80AA3F880A0A3F88020A3F844
:103268008080A3F88020A3F880E0A3F88020A3F84A
:1032780080C0A3F88020A3F88070A3F88020D82706
:10328800A3F88070A3F88020A3F88060A3F88020BA
:10329800A3F88010A3F88020E226A3F87E604FF000
:1032A8000508A3F88080A3F880200B26A3F8806087
:1032B800A3F880201B26A3F88060A3F8802034267A
:1032C800A3F88060A3F88020A3F88040A3F88020AA
:1032D8004F26A3F88060A3F880206126A3F88060B9
:1032E800A3F880207926A3F88060A3F88020A3F8AB
:1032F8008000A3F880204FF0970EA3F880E0A3F891
:1033080080204FF0A60CA3F880C0A3F88020B72730
:10331800A3F88070A3F88020C226A3F88060A3F8E1
:1033280080204FF0C709A3F88090A3F880204FF0C1
:10333800D109A3F88090A3F880204FF0D609A3F80C
:103348008090A3F880204FF0DD09A3F88090A3F8BF
:103358008020A3F88010A3F88020E321A3F87E1032
:10336800A3F88080A3F880200A21A3F88010A3F88E
:103378008020A3F88050A3F880203321A3F8801080
:10338800A3F88020A3F88040A3F880204FF05001D4
:10339800A3F88010A3F880206221A3F88010A3F876
:1033A80080207821A3F88010A3F88020A3F880005B
:1033B800A3F88020A3F880E0A3F88020A3F880C0B9
:1033C800A3F88020A3F88070A3F88020A3F8806079
:1033D800A3F88020C721A3F88010A3F88020D1216A
:1033E800A3F88010A3F88020D521A3F88010A3F8B3
:1033F8008020CB46A3F88090A3F88020F321A3F87F
:103408008010A3F88020E420A3F87E000120A3F810
:103418008000A3F88020A3F88000A3F880204FF054
:10342800020AA3F880A0A3F880202A20A3F880002D
:10343800A3F880204FF03C09A3F88090A3F88020DF
:103448004FF04B08A3F88080A3F880205D27A3F8ED
:103458008070A3F880207426A3F88060A3F88020E9
:103468008425A3F88050A3F880209324A3F88040F3
:10347800A3F880204FF0A20EA3F880E0A3F88020E4
:103488004FF0B300A3F88000A3F880204FF0BE0CE3
:10349800A3F880C0A3F880204FF0C400A3F88000F0
:1034A800A3F880204FF0CD0CA3F880C0A3F88020AB
:1034B800D320A3F88000A3F88020A3F880B0A3F855
:1034C8008020A3F88010A3F880204FF0E50BA3F824
:1034D8007EB0A3F88020A3F88020A3F88020A3F86A
:1034E8008020A3F880A0A3F880204FF0290AA3F831
:1034F80080A0A3F88020A3F88090A3F88020A3F8E8
:103508008080A3F88020A3F88070A3F88020A3F817
:103518008060A3F88020A3F88050A3F88020A3F847
:103528008040A3F88020A3F880E0A3F880204FF023
:10353800B304A3F88040A3F880204FF0BE04A3F89A
:103548008040A3F880204FF0C404A3F88040A3F87B
:103558008020A3F880C0A3F88020A3F88000A3F8F7
:103568008020DC20A3F88000A3F88020A3F8801036
:10357800A3F88020E621A3F87E101121A3F880107B
:10358800A3F880203421A3F88010A3F880204FF0FE
:103598005609A3F88090A3F880204FF0760EA3F880
:1035A80080E0A3F880204FF0770CA3F880C0A3F840
:1035B80080206624A3F88040A3F880208826A3F8FA
:1035C8008060A3F880209920A3F88000A3F88020C9
:1035D800BB27A3F88070A3F88020A3F88000A3F885
:1035E8008020A3F88040A3F880205521A3F88010FC
:1035F800A3F88020A3F88010A3F880204FF0450896
:10360800A3F88080A3F880204325A3F88050A3F86E
:1036180080204425A3F88050A3F880204FF0E70AC3
:10362800A3F87EA04FF0320AA3F880A0A3F8802068
:10363800A3F88010A3F88020A3F880E0A3F88020E6
:10364800A3F88040A3F880204FF0670EA3F880E02D
:10365800A3F88020A3F880E0A3F880204FF0870E1D
:10366800A3F880E0A3F88020A3F88000A3F88020C6
:10367800A3F88070A3F88020A3F88000A3F8802026
:10368800A3F880C0A3F88020A3F88050A3F8802076
:10369800A3F88090A3F880204FF02309A3F8809026
:1036A800A3F880204FF03309A3F88090A3F8802076
:1036B800A3F88080A3F880204FF0E808A3F87E8064
:1036C800A3F88020A3F88020A3F88000A3F8802026
:1036D800A3F880E0A3F88020A3F88060A3F88020F6
:1036E800A3F880C0A3F88020A3F88040A3F8802026
:1036F800A3F88060A3F88020AA26A3F88060A3F826
:103708008020A3F88070A3F88020A3F88000A3F895
:103718008020A3F88040A3F88020A3F88010A3F8A5
:103728008020A3F88010A3F88020A3F88050A3F885
:103738008020A3F88050A3F88020A3F88010A3F875
:103748008020E921A3F87E10A3F88060A3F88020E8
:10375800A3F88020A3F88020A3F87E20A3F8806037
:10376800CF21A3F87E10A3F88020A3F88020A3F827
:103778008020A3F88020A3F88020A3F88020A3F855
:103788008020A3F8802015461C46A3F88020A3F8C3
:103798008020A3F88020A3F88020A3F88020A3F835
:1037A8008020A3F88020A3F88020A3F88020F023AD
:1037B800A4F87E30A4F880205023A4F88030A4F820
:1037C8008020A4F88020A4F88020F323A4F87E3079
:1037D800A4F88020F923A4F87E300623A4F88030CA
:1037E8001023A4F880302927A4F88070A4F880203A
:1037F8003A23A4F87E305526A4F880601123A4F853
:103808007E306420FDF760FEA4F87E703523A4F8AE
:103818007E30A4F880505123A4F87E30FF23A4F80A
:1038280080305323A4F87E302C23A4F88030A4F8E9
:103838007E608222A4F88020A4F87E30FFF7F3B9D6
:103848004FF0D8441123A4F87E307820FDF73CFED1
:103858003621A4F87E104823A4F880303A23A4F82F
:103868007E305523A4F88030F023A4F87E30C3229C
:10387800A4F88020A4F87E309622A4F88020B422F0
:10388800A4F87E200122A4F88020B622A4F87E2085
:103898000A22A4F88020A222A4F88020B722A4F843
:1038A8007E20C622A4F88020B922A4F87E20022215
:1038B800A4F88020E022A4F88020C020A4F87E008C
:1038C8008020A4F880001625A4F88050C120A4F810
:1038D8007E001920A4F88000C226A4F87E60A726DE
:1038E800A4F88060C526A4F87E60A4F88050E82576
:1038F800A4F87E504025A4F880508A25A4F880506A
:103908000025A4F88050A4F880502925A4F88050F8
:10391800A4F88000A520A4F880003320A4F8800033
:10392800A4F87E20A4F880300722A4F880200D2275
:10393800A4F880200422A4F880200522A4F880207E
:103948001422A4F88020A4F880105421A4F8801030
:103958004C20A4F880003821A4F880101321A4F882
:103968008010A4F880202E21A4F880103421A4F817
:103978008010E121A4F87E10A4F880301021A4F86A
:103988008010A4F880200E22A4F880200C22A4F82D
:1039980080200822A4F880203522A4F88020442220
:1039A800A4F88020A4F880002622A4F88020A4F897
:1039B80080101222A4F880202C22A4F88020322221
:1039C800A4F88020A4F87E303C22A4F88020A4F833
:1039D8007E306923A4F880307820FDF775FD212317
:1039E800A4F87E30A4F87E50FFF71DB908B501226F
:1039F8004FF400410148FEF7B3FB08BD0004024044
:103A080029224FF0D843A3F87E2070470346504A36
:103A1800D079032800F29780DFE800F05C02223FAB
:103A2800802B75D010D8402B74D003D9602B09D1C6
:103A3800C0234FE0002B6FD0202B01D1402349E059
:103A48000220704702207047C02B67D0E02B01D1BD
:103A580080233FE0A02B01D100233BE002207047E8
:103A6800802B5DD00ED8402B5CD003D9602B08D1B9
:103A7800A0232FE0002B57D0202B01D1E02329E0F1
:103A880070477047C02B51D0E02B01D1202321E093
:103A9800A02B01D160231DE07047802B48D010D89F
:103AA800402B47D003D9602B09D1002312E0002B0B
:103AB80042D0202B01D180230CE002207047022045
:103AC8007047C02B3AD0E02B01D1402302E0A02B55
:103AD8003BD1C02310B51E4A9371118847F29672E4
:103AE80091422DD04FF0D8423621A2F87E10A2F88C
:103AF8008030174C6188013989B20020FFF72FF810
:103B0800A188013989B20020FFF73BF8002010BDD9
:103B18002023DFE7E023DDE76023DBE7A023D9E705
:103B28004023D7E78023D5E7C023D3E70023D1E795
:103B3800E023CFE72023CDE7A023CBE76023C9E725
:103B480043F00803CEE7012070470220704700BF0A
:103B58008003002008B5032829D8DFE800F0021008
:103B68001820144B4FF4A0725A804FF4F0729A80C8
:103B7800104BD8710020FFF749FF002008BD0D4BFE
:103B88004FF4F0725A804FF4A0729A80F0E7094B14
:103B98004FF4A0725A804FF4F0729A80E8E7054B10
:103BA8004FF4F0725A804FF4A0729A80E0E7022036
:103BB800E4E700BF800300202DE9F04180460E466F
:103BC80014461F46BDF818501146FEF7C8FF39467F
:103BD8003046FEF7D6FFFEF7E6FF0BE04FF0D84E73
:103BE800AEF880500CF1010C1FFA8CFCA445F5D9F5
:103BF8000136B6B2BE4201D8C446F7E7BDE8F08147
:103C080000B583B0009040F23F1340F2DF1200216C
:103C18000846FFF7D1FF03B05DF804FB08B5FEF7CF
:103C2800C9FF00F00FF9FEF771FF45F21033984213
:103C380003D047F29673984216D10C4B18804FF474
:103C4800A0725A804FF4F0729A80FEF7DFFF0120CD
:103C5800FFF780FF4FF6FF70FFF7D2FFFFF7D0FEA8
:103C6800FFF7C4FE002008BD0120FCE78003002008
:103C780038B50C4615460146FEF771FF2146204629
:103C8800FEF77FFFFEF78FFF4FF0D843A3F8805071
:103C980038BD00002DE9F04F85B083468C46BDF84D
:103CA80038E0A2F1200A5FFA8AFA032B5DD8DFE830
:103CB80003F0021D242D0AEB4A0A2D4B03EB8A0A56
:103CC8000C231F4606225A44B2F5F07F4DDC0CEB5C
:103CD8000702B2F5A07F48DC0024A046A146CDF833
:103CE8000CA00293E246CDF804E036E0214B03EB4A
:103CF8000A1A10231F460822E5E70AEBCA0A1E4BD8
:103D080003EB8A0A242318270C22DCE71B4B03EB5E
:103D18008A1A402320271022D5E70134E4B2A742AB
:103D280012D07600F6B20135EDB2072D11D816F093
:103D3800800FF2D004EB0A0108EB0B00019A89B25C
:103D480080B2FFF795FFE8E708F101085FFA88F805
:103D5800002409F101035FFA83F9029B4B4504D95A
:103D6800039B13F809600025DFE705B0BDE8F08F75
:103D780088850008987F00083C7200087C5A000873
:103D88002DE9F04F87B0109E9DF844B0BDF848E08B
:103D9800BBF1030F52D8DFE80BF0022E24294FF0B5
:103DA8000C0A4FF0060900EB020840F2DF12424508
:103DB800A8BF42461FFA82F808F101081FFA88F8DE
:103DC800CF1840F23F139F42A8BF1F46BFB201372A
:103DD800BFB20D46044603900591CDF810B0F346E6
:103DE8001EE04FF0180A4FF00C09DCE74FF0200AEC
:103DF8004FF01009D7E74FF0100A4FF00809D2E743
:103E080005EB0A03BB4201DB039D059CCDF800B01E
:103E1800049B29462046FFF73DFF4C44A4B20136D7
:103E28003278A2F12003DBB25E2B07D804EB09033A
:103E38004345E5DB5544ADB2039CE1E707B0BDE877
:103E4800F08F00002DE9F04FA9B0002423942494AA
:103E58002594269427941C941D941E941F942094B2
:103E680021942294159416941794189419941A94DA
:103E78001B940094A24B9A6B42F001029A639A6BCE
:103E880002F001020092009A01941A6B42F020029B
:103E98001A631A6B02F020020192019A02941A6BBB
:103EA80042F040021A631A6B02F040020292029A30
:103EB80003941A6B42F008021A631A6B02F00802A4
:103EC8000392039A04941A6B42F008021A631A6B5D
:103ED80002F008020492049A05941A6B42F0080250
:103EE8001A631A6B02F008020592059A06941A6B77
:103EF80042F008021A631A6B02F008020692069A48
:103F080007941A6B42F008021A631A6B02F008024F
:103F18000792079A08941A6B42F008021A631A6B00
:103F280002F008020892089A09941A6B42F01002EB
:103F38001A631A6B02F010020992099A0A941A6B12
:103F480042F010021A631A6B02F010020A920A9ADF
:103F58000B941A6B42F010021A631A6B02F01002EB
:103F68000B920B9A0C941A6B42F010021A631A6B9C
:103F780002F010020C920C9A0D941A6B42F0100287
:103F88001A631A6B02F010020D920D9A0E941A6BB6
:103F980042F010021A631A6B02F010020E920E9A87
:103FA8000F941A6B42F010021A631A6B02F0100297
:103FB8000F920F9A10941A6B42F010021A631A6B40
:103FC80002F010021092109A11941A6B42F010022B
:103FD8001A631A6B02F010021192119A12941A6B5A
:103FE80042F008021A631A6B02F008021292129A3F
:103FF80013941A6B42F008021A631A6B02F0080253
:104008001392139A14941A6B42F008021A631B6BEA
:1040180003F008031493149B4FF48059CDF88C9047
:104028000225249526950C26279623A93548FDF7C1
:10403800A1FFCDF88C9024952695279623A9324880
:10404800FDF798FF102323932495269527962F4F45
:1040580023A93846FDF78EFF202323932495269520
:10406800279623A93846FDF785FF4FF4804ACDF8F7
:104078008CA024952695279623A93846FDF77AFF24
:104088004FF40043239324952695279623A9384671
:10409800FDF770FF0123239324952695279623A9DE
:1040A8003846FDF767FF239524952695279623A97B
:1040B8003846FDF75FFF802323932495269527969E
:1040C800DFF84C8023A94046FDF754FF4FF4807376
:1040D800239324952695279623A94046FDF74AFF62
:1040E8004FF40073239324952695279623A94046D9
:1040F800FDF740FF4FF4806BCDF88CB0249509E0B4
:10410800003802400014024000180240000C02402F
:10411800001002402695279623A94046FDF72AFF5E
:104128004FF40063239324952695279623A94046A8
:10413800FDF720FFCDF88C9024952695279623A986
:104148004046FDF717FF4FF4005323932495269517
:10415800279623A94046FDF70DFFCDF88CA024959E
:104168002695279623A94046FDF704FF4FF4004300
:10417800239324952695279623A94046FDF7FAFE12
:104188004FF48073239324952695279623A93846C0
:10419800FDF7F0FE4FF40073239324952695279698
:1041A80023A93846FDF7E6FECDF88CB02495269570
:1041B800279623A93846FDF7DDFE15484FF0204322
:1041C800036003F58273436006238360C46004615F
:1041D800102343618461C46104624462C0F828907A
:1041E800C462C0F830A04463846344640F231C9302
:1041F8003C231E931F9422941595179518941B948D
:1042080015AA1CA9FEF7C0FA29B0BDE8F08F00BFB7
:10421800880300202DE9F047089D0C46002B4ED15D
:1042280094468C458646B2FA82F262D94AB1C2F106
:104238002003914020FA03F30CFA02FC194300FA18
:1042480002FE4FEA1C471FFA8CF6B1FBF7F44FEA5F
:104258001E4307FB141143EA014304FB06F199428C
:104268000AD91CEB030304F1FF3080F01281994254
:1042780040F20F81023C6344591A1FFA8EF3B1FBD6
:10428800F7F007FB101143EA014300FB06F69E42D4
:104298000AD91CEB030300F1FF3180F0FC809E4239
:1042A80040F2F980634402389B1B40EA0440002135
:1042B8001DB1D3400022C5E90032BDE8F0878B422A
:1042C80005D90DB1C5E9000100210846F5E7B3FAA3
:1042D80083F1002946D1A34202D39042C0F0F08076
:1042E800861A64EB03030120002DE6D0C5E90063BC
:1042F800E3E7002A40F09080A1EB0C044FEA1C4849
:104308001FFA8CF70121B4FBF8F64FEA1E4308FBAD
:10431800164443EA044307FB06F0984208D91CEB0D
:10432800030306F1FF3402D2984200F2CD802646FC
:104338001C1A1FFA8EF3B4FBF8F008FB104443EA8A
:10434800044300FB07F79F4208D91CEB030300F165
:10435800FF3402D29F4200F2B0802046DB1B40EAC5
:104368000640A5E7C1F120068B4022FA06F71F4355
:1043780020FA06FC04FA01F343EA0C03F44000FABD
:1043880001F8380C4FEA1349B4FBF0FE1FFA87FC1A
:1043980000FB1E4449EA04440EFB0CF9A14502FA4D
:1043A80001F20AD93C190EF1FF3A80F08480A14548
:1043B80040F28180AEF1020E3C44A4EB09041FFADE
:1043C80083F9B4FBF0F300FB134449EA044403FB0C
:1043D8000CFCA44507D93C1903F1FF3067D2A4456A
:1043E80065D9023B3C4443EA0E40A0FB0293A4EB90
:1043F8000C049C42CE469C4651D34ED055B1B8EBE6
:104408000E0364EB0C0404FA06F6CB401E43CC40C2
:10441800C5E90064002150E7C2F1200320FA03F146
:104428000CFA02FC24FA03F394400C434FEA1C48AC
:1044380000FA02FE1FFA8CF7B3FBF8F008FB103104
:10444800230C43EA014300FB07F1994208D91CEB0E
:10445800030300F1FF362CD299422AD9023863446B
:104468005B1AA4B2B3FBF8F108FB113344EA034426
:1044780001FB07F3A34208D91CEB040401F1FF3642
:1044880013D2A34211D902396444E41A41EA004123
:1044980039E70446F0E6084606E7C845AED2B9EB68
:1044A800020E63EB070C0138A8E73146EDE7034637
:1044B80099E73046D4E7D6467FE7634402384DE7AC
:1044C8000646234608460FE7023E634430E700BF2E
:1044D800830730B547D0541E002A3ED0CAB20346DF
:1044E80001E0013C39D303F8012B9D07F9D1032CD6
:1044F8002CD9CDB205EB05250F2C05EB054535D993
:10450800A4F1100222F00F0C03F1100EE6444FEA5A
:10451800121C1A46156055609560D56010327245B8
:10452800F8D10CF1010214F00C0F03EB021204F0A5
:104538000F0C13D0ACF1040323F00303043313442A
:1045480042F8045B9A42FBD10CF003042CB1C9B2C7
:104558001C4403F8011B9C42FBD130BD6446134642
:10456800002CF4D1F9E703461446C0E71A46A446DE
:10457800E0E700BF70B50F4B0F4DAB42A3EB05064C
:1045880007D0B610002455F8043B01349847A642DA
:10459800F9D801F039FA094D094B5E1BAB424FEAD5
:1045A800A60606D0002455F8043B01349847A642D5
:1045B800F9D870BDE08B0008E08B0008E08B00089C
:1045C800E88B0008704700BF704700BF024B13B16B
:1045D800024800F005B8704700000000F5450008E3
:1045E800002301461A46184600F014B838B5074D9E
:1045F800074C2C1BA41005D0013C55F8043D9847E6
:10460800002CF9D1BDE8384001F004BAEC8B000861
:10461800E88B00082DE9F8431B4D064628689846A4
:104628000F469146FFF7CEFF184B1C681CB328684D
:1046380065681F2D22DC4EB96B1C0235636044F897
:104648002570FFF7C1FF0020BDE8F88304EB850162
:104658000123C1F88890D4F88821AB401A43022E70
:10466800C4F88821C1F80881E6D1D4F88C211A430E
:10467800C4F88C21E0E7064C1C60D8E7FFF7A4FFDC
:104688004FF0FF30E0E700BF10000020DC030020FF
:10469800E00300200000000051EC100B204A21F03C
:1046A8000043934226D900B51E4A934285B008D9E3
:1046B80002460B46FBF768FD41EC100B05B05DF8B0
:1046C80004FB684600F024FA00F0030001289DED81
:1046D800021B9DED000B12D0022817D090B100F0FC
:1046E80023F853EC102B03F1004300EE903A05B089
:1046F8005DF804FB9FED081B002000F049B900F0AD
:1047080013F8DBE7012000F043F9D7E7012000F0B8
:104718003FF9E6E7AFF3008000000000000000006A
:10472800FB21E93FFFFFEF7F2DE9F04F57EC106BBE
:1047380027F00048B8F1795F5BEC11AB85B06FD218
:1047480030463946FCF7ACF9002800F0F0803246D4
:104758003B4630463946FBF7CFFE77A3D3E9002323
:1047680004460D46FBF7C8FE75A3D3E90023FBF703
:104778000DFD22462B46FBF7BFFE73A3D3E90023AA
:10478800FBF702FD22462B46FBF7B6FE70A3D3E9E2
:104798000023FBF7FBFC22462B46FBF7ADFE6EA37E
:1047A800D3E90023FBF7F0FC22462B46FBF7A4FED7
:1047B8006BA3D3E90023FBF7E9FC22462B46FBF762
:1047C8009BFECDE900016C4B002220462946FBF7F1
:1047D80093FEDDE900238046894620462946FBF7FB
:1047E8008BFE52465B4604460D4630463946FBF77B
:1047F80083FE02460B4620462946FBF7C5FC0246C7
:104808000B4640464946FBF7BFFC02460B460020D4
:104818005A49FBF7B9FC41EC100B05B0BDE8F08F25
:1048280032463B4630463946FBF766FE42A3D3E99B
:10483800002304460D46FBF75FFE41A3D3E900239E
:10484800FBF7A4FC22462B46FBF756FE3EA3D3E912
:104858000023FBF799FC22462B46FBF74DFE3CA3B1
:10486800D3E90023FBF792FC22462B46FBF744FED4
:1048780039A3D3E90023FBF787FC22462B46FBF735
:104888003BFE37A3D3E90023FBF780FC2B462246E7
:10489800FBF732FE3A4B9845CDE9000193D9394BE5
:1048A80098453BD8A8F500130022344900209046CB
:1048B8009946FBF769FCCDE902012F4B00222046FF
:1048C8002946FBF719FE42464B46FBF75DFCDDE93E
:1048D80000238046894620462946FBF70DFE5246AE
:1048E8005B4604460D4630463946FBF705FE024650
:1048F8000B4620462946FBF747FC02460B46404636
:104908004946FBF741FC02460B46DDE90201FBF78D
:104918003BFC41EC100B05B0BDE8F08F9FED127B1E
:10492800DFF864908DED027B4FF00008C5E79FED3E
:10493800100B05B0BDE8F08FD43888BEE9FAA8BDE1
:10494800C4B1B4BD9EEE213EAD529C804F7E923ED6
:104958009015CB19A001FA3E7751C1166CC1563F8C
:104968004C5555555555A53F000000000000E73F40
:10497800000000000000F03F0000E03F0000F03FB2
:104988003233D33F0000E93F0000D23F000000006F
:104998002DE9F04F55EC104B25F0004385B0B3F1ED
:1049A800795F8DED001B804606D220462946FCF72C
:1049B80077F8002800F08A8022462B4620462946B0
:1049C800FBF79AFD06460F4632463B4620462946E7
:1049D800FBF792FD43A3D3E9002382468B4630467A
:1049E8003946FBF789FD41A3D3E90023FBF7CCFB4C
:1049F80032463B46FBF780FD3EA3D3E90023FBF795
:104A0800C5FB32463B46FBF777FD3CA3D3E90023C1
:104A1800FBF7BAFB32463B46FBF76EFD39A3D3E9F9
:104A28000023FBF7B3FBCDE90201B8F1000F35D045
:104A3800DDE900012A4B0022FBF75EFDDDE90223D8
:104A48008046894650465946FBF756FD02460B46B6
:104A580040464946FBF798FB32463B46FBF74CFD80
:104A6800DDE90023FBF790FB1BA3D3E900230646EF
:104A78000F4650465946FBF73FFD02460B46304667
:104A88003946FBF783FB02460B4620462946FBF7CF
:104A98007BFB41EC100B05B0BDE8F08F02460B46DE
:104AA80030463946FBF728FD0BA3D3E90023FBF773
:104AB8006BFB52465B46FBF71FFD22462B46FBF776
:104AC80065FB41EC100B05B0BDE8F08F45EC104BD1
:104AD80005B0BDE8F08F00BF495555555555C53F40
:104AE8000000E03F7CD5CF5A3AD9E53DEB9C2B8AB4
:104AF800E6E55A3E7DFEB157E31DC73ED561C119B3
:104B0800A0012A3FA6F810111111813F00000000F2
:104B18002DE9F04F53EC102B9B4923F000448C42B5
:104B28008FB0814640F2928098498C429A462BD8A1
:104B3800BAF1000F1046194689A3D3E9002340F3C0
:104B4800B681FBF721FB924B9C4206460F4600F0CC
:104B58008E8085A3D3E90023FBF716FB04460D4698
:104B680022462B4630463946FBF70EFB7EA3D3E997
:104B78000023FBF709FBC9E90201C9E90045012542
:104B880028460FB0BDE8F08F82498C4240F28980F8
:104B980081498C4262D84FEA2458A8F21648A4EBFF
:104BA8000857104639461646FBF77AFFFBF73AFCDA
:104BB80002460B4630463946CDE90823FBF7E4FAAE
:104BC800764B0022FBF798FC0F460646FBF768FF7A
:104BD800FBF728FC02460B4630463946CDE90A2346
:104BE800FBF7D2FA6D4B0022FBF786FCCDE90C01EE
:104BF8000EAD03240026002775E9020132463B4624
:104C0800A346013CFBF71AFF0028F5D1644B01933A
:104C18000223009342465B46494608A800F0A4F9DF
:104C2800BAF1000F0546ABDAD9F80410D9F800201C
:104C380001F10043D9F80C10C9E90023D9F808207C
:104C480001F10043C9E90223454299E70020002108
:104C580089ED000BC9E90201002591E710461946C4
:104C6800FBF792FAC9E90201C9E90001F4E740A398
:104C7800D3E90023FBF788FA3FA3D3E900230646CC
:104C88000F46FBF781FA04460D4622462B4630466E
:104C98003946FBF779FA38A3D3E90023FBF774FA0E
:104CA80069E700F057F957EC106B35A3D3E90023F7
:104CB80030463946FBF720FC3A4B0022FBF766FAF0
:104CC800FBF7EEFE0546FBF7ADFB02460B46CDE9CA
:104CD800062323A3D3E90023FBF70EFC02460B4669
:104CE80030463946FBF750FA1FA3D3E90023CDE934
:104CF8000201DDE90601FBF7FFFB1F2D06460F4603
:104D0800CDE9046752DC284B6A1E53F82230A342CF
:104D18004CD002460B46DDE90201FBF735FA0646A0
:104D28000F4632463B46C9E90067DDE90201FBF759
:104D38002BFADDE90423FBF727FABAF1000FC9E9DA
:104D48000201BFF61DAF07F10043C9E9006301F195
:104D58000043C9E902036D4212E700BFAFF30080C8
:104D680000004054FB21F93F3163621A61B4D03D21
:104D78000000601A61B4D03D7370032E8A19A33BFA
:104D880083C8C96D305FE43FFB21E93F7BD902400E
:104D9800FB21F93FFB213941FFFFEF7F0000704104
:104DA8007C8A00080000E03FFC890008DDE9042354
:104DB800DDE90201FBF7E8F9C1F30A53C3EB145329
:104DC800102B4FEA245806460F46AADD58A3D3E90C
:104DD8000023DDE90601FBF78FFB06460F46324646
:104DE8003B46DDE90201FBF7CFF902460B46DDE958
:104DF8000201CDE90223FBF7C7F932463B46FBF730
:104E0800C3F94DA3D3E9002306460F46DDE90601A1
:104E1800FBF772FB32463B46FBF7B6F903460C46F6
:104E2800CDE904341A46DDE902012346FBF7ACF963
:104E3800C1F30A53A8EB0308B8F1310F06460F4631
:104E48007FF76FAF3FA3D3E90023DDE90601FBF746
:104E580053FB06460F4632463B46DDE90201FBF7A7
:104E680093F902460B46DDE90201CDE90223FBF77F
:104E78008BF932463B46FBF787F934A3D3E9002385
:104E880006460F46DDE90601FBF736FB32463B4690
:104E9800FBF77AF903460C46CDE904341A46DDE9F6
:104EA80002012346FBF770F906460F4639E7FBF780
:104EB8006DF9234B9C4206460F4618D01AA3D3E936
:104EC8000023FBF763F904460D4622462B4630467D
:104ED8003946FBF759F914A3D3E90023FBF756F930
:104EE800C9E90045C9E902014FF0FF3548E610A3BA
:104EF800D3E90023FBF74AF90FA3D3E900230646B9
:104F08000F46FBF743F904460D4622462B4630462A
:104F18003946FBF739F908A3D3E90023FBF736F93B
:104F2800DEE700BFAFF300803163621A61B4D03DA1
:104F38000000601A61B4D03D7370032E8A19A33B38
:104F4800FB21F93F0000002E8A19A33BC149202507
:104F58009A837B3951EC100B024621F0004343EC55
:104F6800102B7047000000002DE9F04FADF5197DBA
:104F78009E460B91BC4BA299049053F8213005939F
:104F880012F1140F0EF1FF330393C0F26683B74991
:104F9800D31E81FB0301DB17C3EBA1030893013385
:104FA800A3EB8303DB00D618089A039BD41A059A4F
:104FB800D7181DD40137DDF88CA2274420AD4FF057
:104FC80000084FF00009F34608E05AF82400FBF700
:104FD80029FA0134BC42E5E8020108D0002CF4DAD1
:104FE800013440464946BC42E5E80201F6D1DE46B6
:104FF800059B002BB8BF4FEACE0738DB20AB03EB8D
:10500800CE0A059BDDF80C90009673444FEACE0754
:105018000293049BCDE906E70DF5E07B03EBCE0890
:105028004B46D9469B46039B002BC0F2AF81049E9A
:1050380057460024002577E90223F6E80201FBF72A
:105048005BFA02460B4620462946FBF79FF8464581
:1050580004460D46EFD1029B0BF1010B9B45E9E895
:1050680002450AF1080ADED1DDE906E7009E049B45
:10507800059A029203EB070B0CAB03EB8203043B8C
:1050880009930CAB03EB8207CDF828E0029A98ABA2
:1050980003EBC203002A53E928452DDD0DF5E07A1C
:1050A8000AEBC2080DF1300900960697704B0022F2
:1050B80020462946FBF720FAFBF7F2FCFBF7B2F98A
:1050C8006C4B002206460F46FBF716FA02460B46C3
:1050D80020462946FBF758F8FBF7E2FC78E902235B
:1050E80049F8040B39463046FBF750F8D0450446DA
:1050F8000D46DBD1009E069F45EC104B304600F074
:1051080073FB55EC104B00224FF07F532046294685
:10511800FBF7F2F941EC100B00F0F2FB564B51ECA7
:10512800100B0022FBF7E8F902460B4620462946F9
:10513800FBF72AF80D460446FBF7B2FC8246FBF75C
:1051480071F902460B4620462946FBF71DF8002E4A
:105158008046894640F39280029B0CAA581EC6F1ED
:10516800180352F8202042FA03F404FA03F3D21A7F
:10517800C6F117010CAB42FA01F5002D43F82020C7
:10518800A24400F3EA800022002340464946FBF788
:1051980055FC002800F06982029B059A93420CDDB9
:1051A8000CAA02EB8303002253F8041DBB4242EA17
:1051B8000102F9D1002A40F0F080059B0CAA013BBE
:1051C80052F82330002B40F0DC80099A012352F872
:1051D800041D01330029FAD0029A13440132914682
:1051E80002990A9800930144089800EB020A0AF110
:1051F800804AA3980AF1FF3A00EB8A0A20A800EB3C
:10520800C108CDE9066770A901EBC20202925AF8FB
:10521800040FFBF707F9039B002BE8E8020120DBEA
:10522800049E47460024002577E90223F6E8020198
:10523800FBF762F902460B4620462946FAF7A6FF15
:105248005E4504460D46EFD1029BE3E80245029312
:10525800009B09F101094B45D9DADDE9066702939C
:1052680014E700240025EFE7C88B0008ABAAAA2A98
:105278000000703E000070410000204064D1029B95
:105288000CAA013B52F82350ED15002D7FF77BAF98
:10529800029B002B0AF1010A40F373820021CDE939
:1052A8000089DDF808E00CA80C466FF07F4C0FE091
:1052B80001318E4542F8049C6BDD136808300131DA
:1052C800ACEB03038E454FF0010440F8043C0BDDC2
:1052D800024652F8043BACBBC3F18079002BE7D1FE
:1052E80001318E451046F3DCDDE90089002E0DDD25
:1052F800012E3BD0022E09D1029B5A1E0CAB0CA9E1
:1053080053F82230C3F3150341F82230022D7FF4FD
:105318003AAF42464B467C490020FAF735FF8046B3
:105328008946002C3FF42FAF30469FED750B00F0F7
:105338005BFA4046494653EC102BFAF725FF8046A6
:10534800894620E71046BAE7704B0022FBF794FB2A
:10535800002840F07081054615E7029B002B0AF1F2
:10536800010AD8BF002499DC012EC3D1029B5A1E22
:105378000CAB0CA953F82230C3F3160341F82230C2
:10538800C4E7029B5A1C9146134629E700240025CE
:1053980061E6DDE900890124A8E7029A0CAB541EF6
:1053A800CDE9035A53F82430183E5BB902F1804323
:1053B800013B0CAA02EB830353F8042D013C183E71
:1053C800002AF9D030469FED4E0B00F00DFA002C64
:1053D80057EC106BC0F2DB8104F1010A0CAB03EB54
:1053E8008A054FEACA0270ABDFF8249103EBCA0AB8
:1053F8004FF00008934655F8040DFBF713F83246B2
:105408003B46FBF779F84B466AE9020142463046CB
:105418003946FBF771F80CAB9D4206460F46EAD1B8
:10542800ABF1080370A95A4601EB030A0DF5907C0D
:105438004FF00009CDE9064263465246A346CA46E4
:10544800DDF81490CDF814C0B9F1000FC0F20A814C
:10545800CDF800B0DFF8BC80029317460026002480
:105468000025934601E0B24510DBF7E80223F8E88F
:105478000201FBF741F802460B4620462946FAF797
:1054880085FE0136B14504460D46ECDA5A46029BC4
:10549800DDF800B00BF1FF3BBBF1FF3FE3E802454D
:1054A8000AF1010AA2F10802CED1A29BDDF814C0CC
:1054B800022BDDE906422FDC002B00F3078116D111
:1054C8000CEB02040023002265461046194674E9D5
:1054D8000223FAF75BFEA54202460B46F5D1039973
:1054E80011B103F100410B460B99C1E90023049B5C
:1054F80003F007000DF5197DBDE8F08FAFF30080CC
:10550800000000000000F03F0000F03F0000E03F16
:105518000000703E888B0008A29B032BE7D1002C6B
:1055280000F045810CEBC405D5E90067CDE90545D8
:105538004FEAC4080295CDF80080AA46E3467AE906
:1055480002453046394622462B46FAF71FFEB0463A
:10555800B94606460F4632463B4620462946FAF7E4
:1055680013FE42464B46FAF711FEDA45CAE9020134
:10557800CAE90067E3D1DDE90545012CDDF80080C3
:10558800DC4600F01481D5E900450BF1080B029EBA
:10559800CDF800805F46CDF808C076E902AB20461A
:1055A800294652465B46FAF7F1FDA046A94604464D
:1055B8000D4622462B4650465946FAF7E5FD424627
:1055C8004B46FAF7E3FDB742C6E90201C6E90045D2
:1055D800E3D1DDF80080DDF808C008F108040027F1
:1055E8004FF0000864440CF110053A4643466646FD
:1055F8001046194674E90223FAF7C8FDA542024687
:105608000B46F5D107468846B446039BDCE90045BE
:10561800DCE90212002B40F081800B9BC3E90045B6
:10562800C3E90212C3E90478049B03F007000DF5EF
:10563800197DBDE8F08F029B002B0AF1010AC8BF53
:1056480002253FF72BAE42464B4602256249002011
:10565800FAF79AFD8046894695E500216FF0170311
:105668000891A0E40024002514E749EC108B70424F
:10567800CDE9035A00F0B8F859EC108B574B0022CB
:1056880040464946FBF7F8F900283DD0544B029FA5
:10569800002240464946FAF72FFFFBF701FA054674
:1056A800FAF7C0FE4D4B0022FAF726FF0B460246DA
:1056B80049464046FAF768FDFBF7F2F97C1C0CAB4B
:1056C800183643F8270043F824507BE60CEB020514
:1056D80000260027E04675E9022330463946FAF7E6
:1056E80055FDA84506460F46F5D13B46D8E90001C9
:1056F8003246FAF749FD039B3BB30B9D07F1004384
:10570800C5E900632CBB2FE040464946FBF7C8F9C2
:10571800029B0CAA1C4642F8230053E60B9B264624
:10572800084605F1004402F100419860C3E90064AD
:105738001846D96008F10043C0E90473049B03F0DC
:1057480007000DF5197DBDE8F08F0B9BC3E90067D5
:105758006CB14AAE0125F6E802230135FAF716FDC9
:10576800AC42F8DA039B13B101F1004319460B9BD5
:10577800C3E90201049B03F007000DF5197DBDE89C
:10578800F08F022D7FF4FFAC02460B465EE7A29B2A
:10579800022B06DC002B0EDC7FF4A9AE00220023CE
:1057A8009DE6A29B032B7FF4A2AE0DF5907C00270B
:1057B8004FF0000829E7039BDDE9480133B10B9C52
:1057C80000224FF00043C4E90023CDE70B9C0022E0
:1057D8000023C4E90023CAE70000F03F000070413D
:1057E8000000703E0000000038B553EC102B044652
:1057F800C3F30A50194678BB23F000411143104601
:1058080029D0194600223A4B3A4DFAF775FEAC42B8
:1058180002460B4653DBC1F30A5036384CF2503C73
:10582800644523DC044440F2FE7084421EDC002CF4
:1058380034DC14F1350F3ADB21F0FF4121F4E001AB
:10584800363441EA04531046194600222A4BFAF727
:1058580053FE41EC100B38BD40F2FF7C6045DDD1B2
:105868001046FAF793FC41EC100B38BD002B18A139
:10587800D1E9000107DB16A3D3E90023FAF73CFEC0
:1058880041EC100B38BD14A1D1E9000110A3D3E9F4
:105898000023FAF731FE41EC100BF3E721F0FF414A
:1058A80021F4E00141EA045343EC102B38BD002BEE
:1058B8000BA1D1E9000102DA0BA1D1E9000108A38B
:1058C800D3E90023FAF718FE41EC100B38BD00BFEE
:1058D8009C7500883CE4377E9C7500883CE437FE64
:1058E80059F3F8C21F6EA50159F3F8C21F6EA581BE
:1058F80000005043B03CFFFF0000903C0000000057
:1059080051EC100BC1F30A532DE9F041A3F2FF3516
:10591800132D0C46064632DC002D20DB384B43FAAB
:1059280005F801EA080303430F462DD032A3D3E953
:105938000023FAF72BFC00220023FBF7A7F840B15D
:10594800002C03DA4FF480132B411F4427EA080484
:1059580000262346324643EC102BBDE8F08126A3EF
:10596800D3E90023FAF712FC00220023FBF78EF894
:105978000028EED0002C2ADB00263446E9E7332D38
:1059880006DDB5F5806F1BD041EC100BBDE8F0814A
:10599800A3F213434FF0FF37DF400742F4D016A3BA
:1059A800D3E90023FAF7F2FB00220023FBF76EF895
:1059B8000028CED0002C334610DB23EA0706C8E7C0
:1059C80002460B46FAF7E2FB41EC100BDEE724F047
:1059D800004426430DD14FF00044BAE7142D06D0F9
:1059E800C5F134050122AA401344B342E5D201347B
:1059F800E3E7044C0026ACE79C7500883CE4377E5E
:105A0800FFFF0F000000F0BFF8B500BFF8BC08BCEE
:105A18009E467047F8B500BFF8BC08BC9E46704764
:105A28004D61646520627920536869726C657920DC
:105A3800486500004B4559323A667265715F75706A
:105A48005F444143000000004B4559303A66726597
:105A5800715F646F776E5F4441430000000000008F
:105A680000000000010203040607080900061016DA
:105A780000061016000000000000000000000000F2
:105A8800000000000000000000000000000000000E
:105A980000000000000000000000000000000000FE
:105AA80000000000000000000000000000000000EE
:105AB80000000000000000000000000000000000DE
:105AC80000000000000000000000000007F000C017
