:020000040800F2
:1000000000000220011E0008111B0008131B00083D
:10001000151B0008171B0008191B00080000000032
:100020000000000000000000000000001B1B000892
:100030001D1B0008000000001F1B0008211B0008FA
:10004000511E0008511E0008511E0008511E0008D4
:10005000511E0008511E0008511E0008511E0008C4
:10006000291B0008511E0008331B0008511E000800
:10007000511E0008511E0008511E0008511E0008A4
:100080003D1B0008511E0008511E0008511E0008AB
:10009000511E0008511E0008511E0008511E000884
:1000A000511E0008511E0008511E0008511E000874
:1000B000511E0008511E0008511E0008511E000864
:1000C000511E0008511E0008511E0008511E000854
:1000D000511E0008511E0008511E0008511E000844
:1000E000511E0008511E0008511E0008511E000834
:1000F000511E0008511E0008511E0008511E000824
:10010000511E0008511E0008511E0008511E000813
:10011000511E0008511E00084D1B0008511E00080A
:100120005D1B0008511E0008511E0008511E0008EA
:10013000511E0008511E0008511E0008511E0008E3
:10014000511E0008511E0008511E0008511E0008D3
:10015000511E0008511E0008511E0008511E0008C3
:10016000511E0008511E0008511E0008511E0008B3
:10017000511E0008511E0008511E0008000000001A
:08018000511E0008511E000889
:1001C00081F0004102E000BF83F0004330B54FEA08
:1001D00041044FEA430594EA050F08BF90EA020F75
:1001E0001FBF54EA000C55EA020C7FEA645C7FEA08
:1001F000655C00F0E2804FEA5454D4EB5555B8BF2B
:100200006D420CDD2C4480EA020281EA030382EA9B
:10021000000083EA010180EA020281EA0303362D2D
:1002200088BF30BD11F0004F4FEA01314FF4801C00
:100230004CEA113102D0404261EB410113F0004F12
:100240004FEA03334CEA133302D0524263EB4303C9
:1002500094EA050F00F0A780A4F10104D5F1200E67
:100260000DDB02FA0EFC22FA05F2801841F10001C2
:1002700003FA0EF2801843FA05F359410EE0A5F196
:1002800020050EF1200E012A03FA0EFC28BF4CF0C7
:10029000020C43FA05F3C01851EBE37101F000457D
:1002A00007D54FF0000EDCF1000C7EEB00006EEB8A
:1002B0000101B1F5801F1BD3B1F5001F0CD3490814
:1002C0005FEA30004FEA3C0C04F101044FEA44526B
:1002D00012F5800F80F09A80BCF1004F08BF5FEAF2
:1002E000500C50F1000041EB045141EA050130BDD2
:1002F0005FEA4C0C404141EB0101013C28BFB1F5E4
:10030000801FE9D291F0000F04BF01460020B1FA2E
:1003100081F308BF2033A3F10B03B3F120020CDA01
:100320000C3208DD02F1140CC2F10C0201FA0CF0DF
:1003300021FA02F10CE002F11402D8BFC2F1200C44
:1003400001FA02F120FA0CFCDCBF41EA0C019040FA
:10035000E41AA2BF01EB0451294330BD6FEA040443
:100360001F3C1CDA0C340EDC04F11404C4F120022E
:1003700020FA04F001FA02F340EA030021FA04F340
:1003800045EA030130BDC4F10C04C4F1200220FA97
:1003900002F001FA04F340EA0300294630BD21FAD5
:1003A00004F0294630BD94F0000F83F4801306BF9B
:1003B00081F480110134013D4EE77FEA645C18BF8F
:1003C0007FEA655C29D094EA050F08BF90EA020F26
:1003D00005D054EA000C04BF1946104630BD91EA1E
:1003E000030F1EBF0021002030BD5FEA545C05D121
:1003F0004000494128BF41F0004130BD14F5800460
:100400003CBF01F5801130BD01F0004545F0FE41D3
:1004100041F470014FF0000030BD7FEA645C1ABF08
:10042000194610467FEA655C1CBF0B46024650EA3F
:10043000013406BF52EA033591EA030F41F400216B
:1004400030BD00BF90F0000F04BF0021704730B5F1
:100450004FF4806404F132044FF000054FF00001C6
:1004600050E700BF90F0000F04BF0021704730B587
:100470004FF4806404F1320410F0004548BF40425C
:100480004FF000013EE700BF42004FEAE2014FEAB1
:1004900031014FEA02701FBF12F07F4393F07F4F8C
:1004A00081F06051704732F07F4208BF704793F08F
:1004B0007F4F04BF41F40021704730B54FF46074A2
:1004C00001F0004521F000411CE700BF50EA0102A5
:1004D00008BF704730B54FF000050AE050EA01024E
:1004E00008BF704730B511F0004502D5404261EBBE
:1004F00041014FF4806404F132045FEA915C3FF4FF
:10050000D8AE4FF003025FEADC0C18BF03325FEA9B
:10051000DC0C18BF033202EBDC02C2F1200300FA4C
:1005200003FC20FA02F001FA03FE40EA0E0021FA71
:1005300002F11444BDE600BF4A0011D212F50012C8
:1005400011D20DD56FF47873B3EB62520ED44FEA2B
:10055000C12343F0004343EA505323FA02F07047AB
:100560004FF00000704750EA013002D14FF0FF30E9
:1005700070474FF00000704753B94AB9002908BFCF
:1005800000281CBF4FF0FF314FF0FF3000F00CB8D7
:10059000ADF1080C6DE904CE05F0A4FEDDF804E031
:1005A000DDE9022304B07047704700BF844641EA8A
:1005B000000313F003036DD1403A41D351F8043BDB
:1005C00040F8043B51F8043B40F8043B51F8043B2D
:1005D00040F8043B51F8043B40F8043B51F8043B1D
:1005E00040F8043B51F8043B40F8043B51F8043B0D
:1005F00040F8043B51F8043B40F8043B51F8043BFD
:1006000040F8043B51F8043B40F8043B51F8043BEC
:1006100040F8043B51F8043B40F8043B51F8043BDC
:1006200040F8043B51F8043B40F8043B51F8043BCC
:1006300040F8043B51F8043B40F8043B403ABDD23B
:10064000303211D351F8043B40F8043B51F8043BDD
:1006500040F8043B51F8043B40F8043B51F8043B9C
:1006600040F8043B103AEDD20C3205D351F8043B6C
:1006700040F8043B043AF9D2043208D0D2071CBF38
:1006800011F8013B00F8013B01D30B880380604661
:10069000704700BF082A13D38B078DD010F00303D7
:1006A0008AD0C3F10403D21ADB071CBF11F8013B47
:1006B00000F8013B80D331F8023B20F8023B7BE796
:1006C000043AD9D3013A11F8013B00F8013BF9D2C1
:1006D0000B7803704B7843708B788370604670475B
:1006E00001F0FF01102A2BDB10F0070F08D010F8E3
:1006F000013B013A8B422DD010F0070F42B3F6D1E7
:10070000F0B441EA012141EA014122F007047FF0FF
:1007100000070023F0E80256083C85EA010586EA56
:10072000010685FA47F5A3FA87F586FA47F6A5FA92
:1007300087F68EB9EED1F0BC01F0FF0102F007029E
:1007400032B110F8013B013A83EA010313B1F8D149
:100750000020704701387047002D06BF354603382A
:10076000073815F0010F07D1013015F4807F02BF63
:10077000013015F4C03F0130F0BC0138704700BFB4
:1007800030B490F800F020F007016FF0000C10F08A
:10079000070491F820F040F048804FF000046FF01B
:1007A0000700D1E9002391F840F000F1080082FA37
:1007B0004CF2A4FA8CF283FA4CF3A2FA8CF34BBB02
:1007C000D1E9022382FA4CF200F10800A4FA8CF27B
:1007D00083FA4CF3A2FA8CF3E3B9D1E9042382FA49
:1007E0004CF200F10800A4FA8CF283FA4CF3A2FA5E
:1007F0008CF37BB9D1E9062301F1200182FA4CF296
:1008000000F10800A4FA8CF283FA4CF3A2FA8CF3FC
:10081000002BC6D0002A04BF04301A4612BAB2FA1E
:1008200082F200EBD20030BC7047D1E9002304F023
:100830000305C4F100004FEAC50514F0040F91F858
:1008400040F00CFA05F562EA05021CBF63EA0503F5
:1008500062464FF00004AAE770B54FF0FF0C4CF46D
:10086000E06C1CEA11541DBF1CEA135594EA0C0FEE
:1008700095EA0C0F00F0DEF82C4481EA030621EA29
:100880004C5123EA4C5350EA013518BF52EA033564
:1008900041F4801143F4801338D0A0FB02CE4FF016
:1008A0000005E1FB02E506F00042E0FB03E54FF046
:1008B0000006E1FB03569CF0000F18BF4EF0010E3E
:1008C000A4F1FF04B6F5007F64F5407404D25FEA3A
:1008D0004E0E6D4146EB060642EAC62141EA5551ED
:1008E0004FEAC52040EA5E504FEACE2EB4F1FD0C2F
:1008F00088BFBCF5E06F1ED8BEF1004F08BF5FEAAD
:10090000500E50F1000041EB045170BD06F000465E
:1009100046EA010140EA020081EA0301B4EB5C040B
:10092000C2BFD4EB0C0541EA045170BD41F4801103
:100930004FF0000E013C00F3AB8014F1360FDEBF28
:10094000002001F0004170BDC4F10004203C35DA04
:100950000C341BDC04F11404C4F1200500FA05F387
:1009600020FA04F001FA05F240EA020001F0004228
:1009700021F0004110EBD37021FA04F642EB06019E
:100980005EEA430E08BF20EAD37070BDC4F10C04C8
:10099000C4F1200500FA04F320FA05F001FA04F28C
:1009A00040EA020001F0004110EBD37041F1000178
:1009B0005EEA430E08BF20EAD37070BDC4F1200583
:1009C00000FA05F24EEA020E20FA04F301FA05F2EB
:1009D00043EA020321FA04F001F0004121FA04F293
:1009E00020EA020000EBD3705EEA430E08BF20EA63
:1009F000D37070BD94F0000F0FD101F0004640009D
:100A000041EB010111F4801F08BF013CF7D041EA1E
:100A1000060195F0000F18BF704703F00046520022
:100A200043EB030313F4801F08BF013DF7D043EAF3
:100A30000603704794EA0C0F0CEA135518BF95EAA9
:100A40000C0F0CD050EA410618BF52EA4306D1D130
:100A500081EA030101F000414FF0000070BD50EA4F
:100A6000410606BF1046194652EA430619D094EAD9
:100A70000C0F02D150EA013613D195EA0C0F05D1C3
:100A800052EA03361CBF104619460AD181EA030117
:100A900001F0004141F0FE4141F470014FF00000CF
:100AA00070BD41F0FE4141F4780170BD70B54FF06A
:100AB000FF0C4CF4E06C1CEA11541DBF1CEA1355EA
:100AC00094EA0C0F95EA0C0F00F0A7F8A4EB0504CC
:100AD00081EA030E52EA03354FEA013100F08880C3
:100AE0004FEA03334FF0805545EA131343EA12638C
:100AF0004FEA022245EA111545EA10654FEA002641
:100B00000EF000419D4208BF964244F1FD0404F5F9
:100B1000407402D25B084FEA3202B61A65EB030555
:100B20005B084FEA32024FF480104FF4002CB6EB12
:100B3000020E75EB030E22BFB61A754640EA0C0092
:100B40005B084FEA3202B6EB020E75EB030E22BFD2
:100B5000B61A754640EA5C005B084FEA3202B6EB13
:100B6000020E75EB030E22BFB61A754640EA9C00D2
:100B70005B084FEA3202B6EB020E75EB030E22BFA2
:100B8000B61A754640EADC0055EA060E18D04FEA60
:100B9000051545EA16754FEA06164FEAC30343EA00
:100BA00052734FEAC2025FEA1C1CC0D111F4801FCD
:100BB0000BD141EA00014FF000004FF0004CB6E7C6
:100BC00011F4801F04BF01430020B4F1FD0C88BF65
:100BD000BCF5E06F3FF6AFAEB5EB030C04BFB6EB70
:100BE000020C5FEA500C50F1000041EB045170BD63
:100BF0000EF0004E4EEA113114EB5C04C2BFD4EB90
:100C00000C0541EA045170BD41F480114FF0000E13
:100C1000013C90E645EA060E8DE60CEA135594EA8F
:100C20000C0F08BF95EA0C0F3FF43BAF94EA0C0F92
:100C30000AD150EA01347FF434AF95EA0C0F7FF407
:100C400025AF104619462CE795EA0C0F06D152EA5B
:100C500003353FF4FDAE1046194622E750EA41063F
:100C600018BF52EA43067FF4C5AE50EA41047FF450
:100C70000DAF52EA43057FF4EBAE12E74FF0FF3CB5
:100C800006E000BF4FF0010C02E000BF4FF0010C86
:100C90004DF804CD4FEA410C7FEA6C5C4FEA430CFF
:100CA00018BF7FEA6C5C1BD001B050EA410C0CBF4E
:100CB00052EA430C91EA030F02BF90EA020F0020B0
:100CC000704710F1000F91EA030F58BF994208BF17
:100CD00090422CBFD8176FEAE37040F001007047D4
:100CE0004FEA410C7FEA6C5C02D150EA013C07D12B
:100CF0004FEA430C7FEA6C5CD6D152EA033CD3D076
:100D00005DF8040B704700BF8446104662468C466F
:100D10001946634600E000BF01B5FFF7B7FF0028A2
:100D200048BF10F1000F01BD4DF808EDFFF7F4FFCB
:100D30000CBF012000205DF808FB00BF4DF808ED56
:100D4000FFF7EAFF34BF012000205DF808FB00BF79
:100D50004DF808EDFFF7E0FF94BF012000205DF89B
:100D600008FB00BF4DF808EDFFF7CEFF94BF012050
:100D700000205DF808FB00BF4DF808EDFFF7C4FF49
:100D800034BF012000205DF808FB00BF4FEA410C92
:100D90007FEA6C5C02D150EA013C0AD14FEA430C75
:100DA0007FEA6C5C02D152EA033C02D14FF00000B2
:100DB00070474FF0010070474FEA410212F50012F0
:100DC00015D211D56FF47873B3EB625212D94FEA92
:100DD000C12343F0004343EA505311F0004F23FA7C
:100DE00002F018BF404270474FF00000704750EAD1
:100DF000013005D111F0004008BF6FF0004070478E
:100E00004FF00000704700BF0348044B834202D0FC
:100E1000034B03B118477047CC060020CC060020D6
:100E2000000000000548064B1B1AD90F01EBA30177
:100E3000491002D0034B03B118477047CC0600207D
:100E4000CC0600200000000010B5064C237843B902
:100E5000FFF7DAFF044B13B10448AFF3008001231E
:100E6000237010BDCC06002000000000E0DC00086C
:100E700008B5054B1BB105490548AFF30080BDE837
:100E80000840FFF7CFBF00BF00000000D0060020E1
:100E9000E0DC000800B585B00023009301930293C5
:100EA00003931748174A02604FF480324260836010
:100EB0000361037680F820304FF08052C2624FF019
:100EC00000628262C3600122C26180F830304261F8
:100ED00001F0C0F868B905230093012301930223B0
:100EE00002936946064801F037FA28B905B05DF863
:100EF00004FB00F075FCEEE700F072FCF6E700BFC3
:100F0000480700200020014030B589B0002303933A
:100F10000493059306930793026803F1804303F556
:100F200090339A4201D009B030BD044600250195A6
:100F300003F58C335A6C42F480725A645A6C02F492
:100F400080720192019A02951A6B42F001021A63B3
:100F50001B6B03F001030293029B202303930323E3
:100F6000049303A90F4801F0BDFE0F480F4B036027
:100F700045608560C5604FF4806303614FF4006392
:100F800043614FF400538361C5610562456201F01E
:100F9000D5FC18B9044BA3639C63C4E700F020FCA4
:100FA000F8E700BF00000240E8060020106402409D
:100FB00000B583B00023009301930C480C4B0360F1
:100FC00001F010FB60B91423009302230193002267
:100FD0006946064801F0E3FB28B903B05DF804FB5D
:100FE00000F0FEFBEFE700F0FBFBF6E7F007002068
:100FF0000074004030B589B0002303930493059337
:10100000069307930268274B9A4201D009B030BD7E
:1010100004460025019503F5E2331A6C42F00052B4
:101020001A641A6C02F000520192019A02951A6B2E
:1010300042F001021A631B6B03F001030293029B4F
:10104000102303930323049303A9174801F04AFED6
:101050001648174B03604FF0606343604023836082
:10106000C5604FF4806303614FF4006343614FF444
:10107000005383614FF48073C3610562456201F0E0
:101080005DFC58B9094BA3609C6300220F213620F8
:1010900001F080FA362001F08DFAB7E700F0A0FBEE
:1010A000F0E700BF007400400000024090070020FD
:1010B0008860024010B582B000240094124B1A6B75
:1010C00042F400121A631A6B02F400120092009AA2
:1010D00001941A6B42F480021A631B6B03F48003C1
:1010E0000193019B22460121102001F053FA1020A8
:1010F00001F060FA22460121382001F04BFA382035
:1011000001F058FA02B010BD003802402DE9F0415C
:1011100086B0002301930293039304930593224B1B
:101120001B6813B106B0BDE8F0811F4B01221A60A5
:10113000002600961D4B9A6B42F001029A639B6B4E
:1011400003F001030093009B4FF48058CDF8048016
:1011500002270297032504950C24059401A914483D
:1011600001F0C0FD4FF6807301930297039604953A
:10117000059401A90F4801F0B5FD4CF233730193BA
:10118000029703960495059401A90B4801F0AAFD66
:10119000CDF80480029703960495059401A90748A9
:1011A00001F0A0FDBEE700BF0408002000380240A7
:1011B0000014024000100240000C024000180240DF
:1011C00010B588B000220192029203920492059217
:1011D0000692079215484FF02043036003F582738F
:1011E000436006238360C260026110214161826115
:1011F000C261026242624FF480538362C262026340
:101200004263826342640F2301930293FF24039499
:10121000049305911123069301A902F093F908B9EB
:1012200008B010BD00F0DCFAFAE700BF08080020A3
:1012300008B5FFF76BFF08BD2DE9F0418CB0002425
:101240000794089409940A940B940094404B1A6BE9
:1012500042F010021A631A6B02F010020092009A18
:1012600001941A6B42F004021A631A6B02F0040232
:101270000192019A02941A6B42F020021A631A6BCF
:1012800002F020020292029A03941A6B42F080024A
:101290001A631A6B02F080020392039A04941A6B89
:1012A00042F001021A631A6B02F001020492049ADE
:1012B00005941A6B42F008021A631A6B02F00802D6
:1012C0000592059A06941A6B42F040021A631B6B52
:1012D00003F040030693069B1E4F01224FF4C061AA
:1012E000384601F0F5FD142307934FF404130893D7
:1012F00001250995DFF8608007A9404601F0F2FC5E
:10130000082607964FF488130893099507A94046C5
:1013100001F0E8FC4FF4C0630793089509950A941F
:1013200007A9384601F0DEFC22462146304601F08E
:1013300031F9304601F03EF9224621460A2001F0FB
:1013400029F90A2001F036F90CB0BDE8F08100BFA0
:10135000003802400014024000100240000000006B
:1013600010B5002400E00134C72C31DC630007EE27
:10137000903AF8EEE77A9FED1A7A67EE877A9FED5A
:10138000197AC7EE877A17EE900AFFF77DF841ECDD
:10139000100B0BF0C5FA51EC100B0022124BFEF7AC
:1013A00015FF0022114BFFF757FA0BA3D3E90023D7
:1013B000FFF752FAFFF7C0F880B20D4B23F8140084
:1013C000B0F5805FCFD340F6FF7223F81420CAE750
:1013D00010BD00BFAFF3008065934D36D964D33F95
:1013E000DB0F4940000048430000F03F0000A040F0
:1013F0009068012030B400219FED256A0D460C460F
:1014000007E0B7EE007AF4EEC77AF1EE10FA2ED4C8
:101410001146B1F5803F2AD2DFED1E7AC7EE806A11
:101420004A1C07EE902AB8EE677AC6EE877AFCEE81
:10143000E77A17EE903A581EB0F5803FE8D202FBEB
:1014400003F307EE903AF8EE677ADFED126A86EE64
:10145000A77A77EE407AF0EEE77AB4EEE76AF1EE3B
:1014600010FACEDDB0EE676A05460C46C9E70A4BB6
:10147000DD629C62013405FB044407EE904AF8EEFD
:10148000677A9FED040A80EE270A30BC704700BFE0
:10149000286B6E4EA037A04C0004004070B5064685
:1014A0000D466A4C012300222146694804F092FA55
:1014B0004FF480526749204604F024FB664B00221B
:1014C0001A60012026E00133092BFCDD844600234D
:1014D0009FED627A00E00133092B15DCC1185D4AEB
:1014E00002EB8102D2ED007AF4EEC77AF1EE10FA47
:1014F000F1DDDFED5B6AF4EEE67AF1EE10FAEADB9D
:101500008C46B0EE677AE6E7B5EEC07AF1EE10FAF7
:101510001BDC0A3040F2F573984248DC0023D3E725
:101520000133052B18DC002BFAD01CEB0302F7D497
:10153000B2F5006FF4DA474901EB8202D2ED007A8E
:1015400076EEA76A0EF1010EEAE76FF004034FF0A2
:10155000000EDFED426AE4E707EE90EAF8EEE77A84
:1015600086EEA76AF7EE087A66EE277AF4EEC77A77
:10157000F1EE10FACDD807EE90CAF8EEE77A394BC3
:10158000D3ED006A9FED386A66EE866A32490B68D1
:1015900067EEA67A354A02EB8302C2ED007A344A3E
:1015A00002EB830282ED007A01330B60B1E7002386
:1015B0009FED2A7A17EE101A00E00133264A1268CE
:1015C000934210D22A4A02EB8302D2ED007AF4EE63
:1015D000C77AF1EE10FAF0DD244A02EB83021168BB
:1015E000B0EE677AE9E71B4BD3ED007A9FED1E7AE8
:1015F00067EE877A77EEA77A1E4C22681E4B03EBC4
:101600008203C3ED007A01321C4880FB0230D317FD
:10161000C3EBA00303EB8303A2EB4303236000238C
:10162000DFED0E7A07E0144A02EB830292ED007AB6
:1016300077EE877A0133092BF5DDF2EE046A87EE47
:10164000A67A316085ED007A70BD00BF90880020D9
:10165000080D0108904800208C08002000000000C0
:101660000AD7A33C00000020000080399028002009
:101670009008002060080020640800206766666605
:1016800030B583B005464FF6FF730093D7234FF470
:10169000F0720021084603F0F5FA002424E005EB7F
:1016A0008403D3ED006A9FED137AC6EE877A9FED2F
:1016B000127A67EE877AFCEEE77A17EE903A99B2E3
:1016C000C1F1C80107EE904AF8EEE77A9FED0B7A78
:1016D00067EE877AFCEEE77A002289B217EE903A3D
:1016E00098B203F02BFB0134B4F5805FD7DB03B075
:1016F00030BD00BF3333534000004843010FF03D7D
:1017000010B5044600F0F2FB1E4B1B68C31AC72B32
:101710001BD91C4B1860042C18D0102C25D01A4B48
:10172000D3ED007AF8EE677A9FED187AC7EE277A44
:1017300017EE900AFEF7A8FE00220023FEF746FDF2
:10174000FEF7FAFE0138124BD86210BD0E4B1B6833
:10175000643342F21072934202D80B4A1360DEE700
:10176000094B42F210721A60D9E7074B1B68643BC1
:10177000632B02D9044A1360D1E7034B64221A6039
:10178000CDE700BF5808002004000020000ECE481E
:101790000014004010B582B004464FF6FF7300936A
:1017A00040F213134FF4F072F021002003F06AFAB4
:1017B0002268074B9A4201D002B010BD054801F0E3
:1017C0005BFF054800F040FD044B01221A70F3E76F
:1017D000002001406C6A0120480700205C080020BE
:1017E00072B6FEE700B595B03022002108A805F0DA
:1017F00055F80023039304930593069307930193ED
:101800001F4A116C41F080511164126C02F0805239
:101810000192019A02931B4A116841F480411160C0
:10182000126802F480420292029A02220892012176
:101830000B9110210C910E920F9308231093A82363
:10184000119312920423139308A801F055FB98B941
:101850000F23039302230493002305934FF4A05313
:1018600006934FF480530793052103A801F094FDDC
:1018700020B915B05DF804FBFFF7B2FFFFF7B0FF2A
:101880000038024000700040F0B52DED028BADF540
:10189000804D8DB000F004FBFFF7A4FFFFF7CCFCF8
:1018A000FFF708FCFFF78CFCFFF782FB00F000FA63
:1018B000FFF7F0FA00F0C2F900F04EFA642000F0F1
:1018C0001BFB03F011FAFFF74BFD00240094C82323
:1018D0006F4A21466F4800F097FE4FF480526E49E0
:1018E0006E4800F0E3FB0294022301936C4B0093DB
:1018F0005023F0224FF48C71142003F0F9FA029473
:1019000001250195674B00933C23A0224FF48C7175
:101910004FF49B7003F0ECFA02940195624B009334
:101920003C23A0224FF496714FF49B7003F0E0FA31
:101930000094DC234FF4F0721946204603F00FFAAE
:1019400025466CE0544A32F8132007EE102AB8EE10
:10195000C77ADFED566AC7EE267A9FED557A67EEB5
:10196000877A544A02EB8302C2ED007A0133B3F561
:10197000805FE7DB002310E059004E4A02EB830250
:10198000D2F800C04C4A02EBC300C0F800C00131DD
:1019900002EB8102002111600133B3F5805FEBDBC4
:1019A000002D44D19FED458AB0EE480AFFF722FD95
:1019B000434B83ED000A0CAB06A9A3F11C00FFF713
:1019C0006DFD9DED050AF1EE007A20EE270AB4EEDA
:1019D000C80AF1EE10FA01DDB0EE480ADFED397AFF
:1019E000B4EEE70AF1EE10FA01D5B0EE670AFFF7A0
:1019F00001FD334B83ED000A4FF480422D490CA8C2
:101A0000FEF7D4FD0CA8FFF73BFE01252E4801F0A0
:101A1000F5FD4FF480522049204800F047FB2B4B46
:101A20001B78012BFBD10023284A13709FE70CACD5
:101A300006A905A8FFF732FD07AF0598FEF724FDBC
:101A4000CDE90001224A1421384604F09BFE00250E
:101A500002950126019600973C23A022F02118460A
:101A600003F046FA0698FEF70FFDCDE90001194A8A
:101A70001421204604F086FE0295019600943C2332
:101A8000A022F0214FF4827003F032FABEE700BFCB
:101A900090680120F00700209048012048070020AE
:101AA0001CDD000830DD000844DD000800F07F4543
:101AB0003333534090080120908800200050C348E1
:101AC0000000002000007A446C6A01205C080020BD
:101AD00058DD000808DD000882B0002100910B4BA2
:101AE0005A6C42F480425A645A6C02F4804200926A
:101AF000009A01911A6C42F080521A641B6C03F038
:101B000080530193019B02B0704700BF0038024030
:101B1000FEE7FEE7FEE7FEE7FEE770477047704727
:101B200008B500F0D7F908BD08B5042001F0D6F9D2
:101B300008BD08B5102001F0D1F908BD08B502486C
:101B400000F0E2FF08BD00BF9007002008B5024882
:101B500000F0EFFD08BD00BFF007002008B5024807
:101B600000F0D2FF08BD00BFE8060020012070474A
:101B700008B504F039FF162303604FF0FF3008BDAD
:101B800008B54FF0FF31FFF7F3FFFEE770B50C46E5
:101B90001646002506E0AFF30080214601F8010B50
:101BA00001350C46B542F6DB304670BD70B50C46CB
:101BB0001646002504E014F8010BAFF30080013550
:101BC000B542F8DB304670BD4FF0FF3070474FF440
:101BD00000534B6000207047012070470020704781
:101BE00010B503460C4A0D490D48006840B10C4839
:101BF00000680344521A934206D8094A136010BD84
:101C00000748084C0460F2E704F0EEFE0C23036082
:101C10004FF0FF30F3E700BF000002200004000097
:101C2000206A0120706E0120034AD2F8883043F404
:101C30007003C2F88830704700ED00E000B587B04F
:101C40000023029303930493059300930193164892
:101C5000164A02601422426083600922C260036156
:101C6000836101F089FDB0B94FF48053029302A95A
:101C70000D4801F0BAFD88B9202300930023019399
:101C80006946094801F030FE58B9074801F0B6FC32
:101C900007B05DF804FBFFF7A3FDE5E7FFF7A0FD44
:101CA000EAE7FFF79DFDF0E76C6A012000040040C1
:101CB00000B583B00023009301931048104A0260DE
:101CC0004360836041F26702C260836101F054FDAA
:101CD00070B920230093002301936946074801F05F
:101CE00003FE40B9054801F089FC03B05DF804FB30
:101CF000FFF776FDEDE7FFF773FDF3E7246A0120B8
:101D00000014004082B00368104A934204D0104A85
:101D100093420ED002B07047002300930D4B1A6C13
:101D200042F002021A641B6C03F002030093009B52
:101D3000F0E700230193074B1A6C42F020021A646B
:101D40001B6C03F020030193019BE3E700040040B8
:101D5000001400400038024008B50A480A4B0360EE
:101D60004FF46133436000238360C36003610C223E
:101D700042618361C36101F085FE00B908BDFFF7D0
:101D80002FFDFBE7B46A01200010014000B589B0C7
:101D9000002303930493059306930793026803F1CA
:101DA000804303F588339A4202D009B05DF804FB02
:101DB0000021019103F594335A6C42F010025A64E9
:101DC0005A6C02F010020192019A02911A6B42F0D1
:101DD00001021A631B6B03F001030293029B4FF491
:101DE000C0630393022304930323069307230793FB
:101DF00003A9024800F076FFD7E700BF00000240C9
:101E0000DFF834D0FFF710FF0C480D490D4A0023CE
:101E100002E0D458C4500433C4188C42F9D30A4A9F
:101E20000A4C002301E013600432A242FBD304F009
:101E3000E1FDFFF729FD70470000022000000020AF
:101E4000CC06002074B20108CC0600206C6E012084
:101E5000FEE7000010B504460E4B1A784FF47A7373
:101E6000B3FBF2F30C4A1068B0FBF3F000F0A6FBF2
:101E700068B90F2C01D901200AE0002221464FF059
:101E8000FF3000F087FB054B1C60002000E00120C4
:101E900010BD00BF0C000020080000201000002032
:101EA00008B50B4B1A6842F400721A601A6842F4C3
:101EB00080621A601A6842F480721A60032000F08F
:101EC00057FB0020FFF7C6FFFFF706FE002008BD06
:101ED000003C0240034A1168034B1B780B4413601B
:101EE000704700BFFC6A01200C000020014B1868FD
:101EF000704700BFFC6A012038B50446FFF7F6FFC3
:101F00000546B4F1FF3F02D0044B1B781C44FFF799
:101F1000EDFF401BA042FAD338BD00BF0C000020EB
:101F20004A4B5A6822F440325A605A6841680A4360
:101F30005A600268536823F48073536002685368E0
:101F4000016943EA012353600268536823F0407338
:101F500053600268536881680B435360026893685A
:101F600023F40063936002689368C1680B43936035
:101F7000826A374B9A4257D00268936823F07063A5
:101F8000936002689368816A0B4393600268936868
:101F900023F04053936002689368C16A0B439360D7
:101FA0000268936823F00203936002689368017EDD
:101FB00043EA4103936090F82030002B3FD0026841
:101FC000536843F4006353600268536823F460432A
:101FD000536001684B68426A013A43EA42334B60FE
:101FE0000268D36A23F47003D3620168CB6AC269C2
:101FF000013A43EA0253CB620268936823F4007308
:1020000093600268936890F8301043EA412393602C
:102010000268936823F4806393600268936841695F
:1020200043EA8123936070470268936823F07063EA
:1020300093600268936823F040539360B0E70268AE
:10204000536823F400635360CAE700BF00230140D4
:102050000100000F38B310B50446036C43B1236C84
:1020600013F0100F0BD00120002384F83C3010BD7A
:10207000FEF74AFF0023636484F83C30EFE7236CEB
:1020800023F4885323F0020343F002032364204621
:10209000FFF746FF00206064236C23F0030343F046
:1020A00001032364E0E701207047000010B582B00F
:1020B00013460022019290F83C20012A00F0AE80E5
:1020C0000446012280F83C200268906810F0010F5D
:1020D00013D1906840F001009060534A1068534A51
:1020E000A2FB0020800C00EB4000019002E0019870
:1020F0000138019001980028F9D12268906810F405
:10210000807F03D0906820F480709060226890688F
:1021100010F0010F77D0206C20F4E06020F0010077
:1021200040F480702064526812F4806F05D0226CF5
:1021300022F4405242F480522264226C12F4805FF6
:1021400036D0626C22F006026264002284F83C20E1
:10215000A26B3748D063A26B36481064A26B364836
:10216000D06422686FF0220010602068426842F05C
:10217000806242602068826842F4807282602068D7
:102180000A4600F14C01A06B00F03EFC2B4B5B6853
:1021900013F01F0F27D12368294A934211D002F56B
:1021A0008072934207D0274A934214D0002033E034
:1021B00000226264C9E702F50072526812F01F0F34
:1021C000F1D19A6812F0405F2AD19A6842F08042B9
:1021D0009A60002020E002F58072526812F0100F21
:1021E000EFD0002018E02368154A934201D0002068
:1021F00012E09A6812F0405F14D19A6842F080426F
:102200009A60002008E0236C43F010032364636CA1
:1022100043F001036364002002B010BD0220FBE71D
:102220000020F9E70020F7E70800002083DE1B43C9
:10223000E5220008C3220008CF2200080023014045
:10224000002001400022014090F83C30012B35D0A5
:1022500010B50446012380F83C300268936823F0EF
:102260000103936003689A6812F0010F21D19A6804
:1022700022F480729A60806B90F83530DBB2022BCA
:102280000ED000202268536823F080635360236CD3
:1022900023F4885323F0010343F00103236409E08E
:1022A00000F0E7FB0028EDD0236C43F040032364EB
:1022B000E8E70020002384F83C3010BD022070477E
:1022C000704708B5806BFFF7FBFF08BD704708B586
:1022D000806B40230364436C43F004034364FFF7C3
:1022E000F5FF08BD08B50346806B026C12F0500F75
:1022F00025D1036C43F40073036403689A6812F0F9
:10230000405F19D1027EBAB9DA6A12F4700F03D0B5
:102310009A6812F4806F0FD15A6822F020025A6036
:10232000036C23F480730364036C13F4805F03D1A4
:10233000036C43F001030364FFF72CFA08BD026C41
:1023400012F0100F04D1826BD26C18469047F5E75B
:10235000FFF7BCFFF2E7000030B482B00022019228
:1023600090F83C20012A00F0B6800346012280F854
:102370003C200A68092A40D90468E06892B202EB5E
:1023800042021E3A4FF0070C0CFA02F220EA020257
:10239000E2601C68E0680A8802EB42021E3A8D681F
:1023A00005FA02F20243E2604A68062A3CD81C6839
:1023B000606B02EB8202053A4FF01F0C0CFA02F23E
:1023C00020EA020262631C68606B4A6802EB8202C8
:1023D000053AB1F800C00CFA02F2024362631868D1
:1023E0003E4A904250D018683C4A904255D0002056
:1023F00083F83C0002B030BC70470468206992B298
:1024000002EB42024FF0070C0CFA02F220EA020241
:1024100022611C6820690A8802EB42028D6805FA75
:1024200002F202432261BFE70C2A16D81D68286B0E
:1024300002EB8202233A1F2404FA02F220EA02028B
:102440002A631D68286B4A6802EB8202233A0C88D3
:1024500004FA02F202432A63C1E71D68E86A02EB4C
:102460008202413A1F2404FA02F220EA0202EA62DE
:102470001D68E86A4A6802EB8202413A0C8804FA55
:1024800002F20243EA62AAE70A68122AABD11448B0
:10249000426842F480024260A5E70A68103A012AC5
:1024A000A5D80F48426842F4000242600A68102A28
:1024B0009DD10C4A12680C49A1FB0212920C02EB4E
:1024C00082025200019202E0019A013A0192019ABD
:1024D000002AF9D18BE702208CE700BF00200140E1
:1024E000002301400800002083DE1B43002807DB97
:1024F00000F01F02400901239340024A42F82030B5
:10250000704700BF00E100E0002808DB0901C9B204
:1025100000F1604000F5614080F80013704700F062
:102520000F000901C9B2014B1954704714ED00E0C6
:1025300000B500F00700C0F1070CBCF1040F28BF84
:102540004FF0040C031D062B0FD9C31E4FF0FF3EA6
:102550000EFA0CF021EA000199400EFA03FE22EA7D
:102560000E0241EA02005DF804FB0023EEE70000E2
:10257000074AD36823F4E0631B041B0C000200F439
:10258000E060034343F0BF6343F40033D36070471C
:1025900000ED00E010B50446054BD868C0F30220FA
:1025A000FFF7C6FF01462046FFF7AEFF10BD00BF94
:1025B00000ED00E008B5FFF799FF08BD0138B0F164
:1025C000807F0BD24FF0E0235861054AF02182F85A
:1025D00023100020986107221A617047012070477C
:1025E00000ED00E070B110B50446037933B1022369
:1025F0002371002020610123237110BD4371FEF778
:10260000F9FCF4E70120704770B50D461146049AB5
:10261000002861D00446407901285FD00120607114
:1026200002202071002D2FD1A0682D4EC663A06816
:102630002C4E0664A0682C4EC6642668306840F4B0
:102640008050306022B1042A1BD02268103201E091
:1026500022680832002D31D12668306840F40050DD
:102660003060A06800F0D0F90023637100282ED1FB
:1026700021680B6805F010050122AA4013430B6086
:1026800070BD22680C32E5E7E068184EC663E0686A
:10269000174E0664E068174EC6642668306840F03E
:1026A0008050306022B1042A05D022681C32D1E764
:1026B00022681432CEE722681832CBE726683068E9
:1026C00040F000503060E06800F09EF9CCE72369EC
:1026D00043F004032361D3E70120D1E70220CFE7D1
:1026E000FB2600080D270008192700080928000804
:1026F0001928000823280008704710B5846B20466D
:10270000FFF7FAFF0123237110BD704708B5806BF6
:10271000FFF7FBFF08BD704710B5846B236943F0DA
:10272000040323612046FFF7F6FF0123237110BD48
:10273000704770B5044603681D685E6B15F4005F52
:1027400002D016F4005F06D115F0005F02D016F03B
:10275000005F11D170BD04220271026942F00102D2
:1027600002614FF400525A630268136823F48053E5
:102770001360FFF7DDFFE7E704232371236943F0CC
:102780000203236123684FF000525A6322681368E2
:1027900023F080531360204600F035F8DAE748B3A1
:1027A000844649B34379012B28D010B54FF0010E70
:1027B00080F805E0022303710468206802F010022B
:1027C00040F6FE73934020EA03000B6849680B4310
:1027D000934003432360DCF800000368C02101FA42
:1027E00002F223EA020303608CF804E000208CF874
:1027F000050010BD0120704701207047022070477E
:10280000704770477047704710B5846B2046FFF7DC
:10281000F7FF0123237110BD08B5806BFFF7F1FFAF
:1028200008BD10B5846B236943F00403236120467F
:10283000FFF7E8FF0123237110BD30B405682C6851
:1028400024F480242C60046863608368402B05D0E6
:10285000036899600368DA6030BC704703689A6067
:102860000368D960F8E7000010B40368D9B21039E2
:102870000C4AA2FB014212090B4CA25CC2655F2903
:1028800009D923F47F7323F0030304338365806D38
:102890005DF8044B704723F47F7323F003038365D3
:1028A000F5E700BFABAAAAAA80DD0008836A8269A7
:1028B00092B9012B0AD0022B02D00BB10020704735
:1028C000C36A13F0807F28D100207047C36AB3F138
:1028D000C07F24D000207047B2F5005F09D0022BE2
:1028E00025D9032B25D1C36A13F0807F23D1002083
:1028F0007047032B03D8DFE803F01404140A002008
:102900007047C36A13F0807F0DD100207047C36AFF
:10291000B3F1C07F09D0002070470120704701202B
:102920007047012070470120704701207047012047
:1029300070470020704701207047000070B50446C2
:10294000FFF7D4FA002C5BD00546022384F835301B
:10295000002384F834302268136823F001031360E5
:1029600023681A6812F0010F0AD0FFF7BFFA431B61
:10297000052BF5D920236365032084F8350070BD4D
:102980001A68204911406268A0680243E068024367
:102990002069024360690243A0690243E06902437F
:1029A000206A02430A43616A04291ED01A6026681D
:1029B000756925F00705636A1D43042B07D1A36AD7
:1029C0001D43E36A1BB12046FFF770FF90B97561A4
:1029D0002046FFF749FFE26D3F23934083600020CC
:1029E0006065012384F83530C9E7E16A206B014353
:1029F0000A43DBE740236365012084F83500BEE726
:102A00000120BCE73F8010F038B50446856D90F892
:102A1000340001282BD0012084F8340094F83500CC
:102A2000C0B2012804D0002384F83430022038BD1D
:102A3000022084F83500002060652046FFF7FDFE87
:102A4000E26D3F239340AB602268136843F01603A6
:102A50001360236C23B12268136843F008031360EA
:102A60002268136843F0010313600020DFE70220AF
:102A7000DDE770B50446866DFFF738FA94F8353017
:102A8000DBB2022B06D080236365002384F8343048
:102A9000012070BD05462268136823F016031360F9
:102AA0002268536923F080035361236CE3B12268E9
:102AB000136823F0080313602268136823F00103EE
:102AC000136023681B6813F0010F11D0FFF70EFA93
:102AD000431B052BF5D920236365032084F83500BB
:102AE000002384F83430D4E7A36C002BDFD1E3E774
:102AF000E26D3F239340B360012384F8353000201A
:102B000084F83400C5E70000F0B583B00446002324
:102B10000193724B1D68724BA3FB0535AD0A876D9F
:102B20003E68C26D08239340334210D003681A6890
:102B300012F0040F0BD01A6822F004021A60C26D62
:102B400008239340BB60436D43F001034365E26D8E
:102B500001239340334209D02268526912F0800F5A
:102B600004D0BB60636D43F002036365E26D042330
:102B70009340334209D02268126812F0020F04D049
:102B8000BB60636D43F004036365E26D1023934003
:102B9000334224D02268126812F0080F1FD0BB60A5
:102BA00023681A6812F4802F0DD01B6813F4002FCD
:102BB00004D1236C9BB12046984710E0A36C73B1FD
:102BC000204698470BE01A6812F4807F03D11A68F8
:102BD00022F008021A60236C0BB120469847E26D80
:102BE00020239340334255D02268126812F0100F10
:102BF00050D0BB6094F83530DBB2052B0ED0236883
:102C00001A6812F4802F33D01B6813F4002F2AD1D6
:102C1000636C002B3ED0204698473BE02268136847
:102C200023F0160313602268536923F08003536175
:102C3000236CA3B12268136823F008031360E26DCC
:102C40003F239340BB60012384F83530002384F890
:102C50003430236D002B3FD0204698473CE0A36CD6
:102C6000002BE7D1EBE7E36BA3B12046984711E0D7
:102C70001A6812F4807F09D11A6822F010021A60D3
:102C8000012384F83530002384F83430E36B0BB132
:102C900020469847636DFBB1636D13F0010F17D0A9
:102CA000052384F835302268136823F0010313608C
:102CB000019B01330193AB4204D823681B6813F0D6
:102CC000010FF5D1012384F83530002384F8343026
:102CD000E36C0BB12046984703B0F0BD080000201C
:102CE000B5814E1B00230F2B00F2E98070B582B036
:102CF00065E085684FEA430E032404FA0EF425EAE2
:102D00000405CC6804FA0EF42C438460446824EA79
:102D100002044A68C2F300129A40224342605CE017
:102D2000DC08083450F8242003F00705AD004FF00C
:102D30000F0E0EFA05FE22EA0E0E0A69AA4042EABA
:102D40000E0240F824205CE0072200E0002202FA94
:102D50000EF22A4302345A4D45F82420594A946809
:102D60006FEA0C0224EA0C054E6816F4801F01D0AD
:102D70004CEA0405534CA560E46802EA04054E6879
:102D800016F4001F01D04CEA04054E4CE56064685F
:102D900002EA04054E6816F4003F01D04CEA04052F
:102DA000484C6560246822404D6815F4803F01D08E
:102DB0004CEA0402434C226001330F2B7DD80122E0
:102DC0009A400C6804EA020C32EA0404F4D14C681C
:102DD00004F00304013C012C8BD94A6802F0030281
:102DE000032A09D0C4685D000322AA4024EA020431
:102DF0008A68AA402243C2604A6802F00302022A9B
:102E00008ED004684FEA430E032202FA0EF224EA3F
:102E100002044A6802F0030202FA0EF22243026040
:102E20004A6812F4403FC7D000220192264A546CEF
:102E300044F480445464526C02F480420192019A3A
:102E40009C08A51C1E4A52F8255003F0030E4FEAB9
:102E50008E0E0F2202FA0EF225EA02051B4A90425C
:102E60003FF474AF02F5806290421AD002F580629E
:102E7000904218D002F58062904216D002F580622E
:102E8000904214D002F58062904212D002F5806226
:102E9000904210D002F5806290423FF455AF082274
:102EA00055E7012253E7022251E703224FE70422AC
:102EB0004DE705224BE7062249E702B070BD704797
:102EC00000380140003C0140003802400000024050
:102ED0000AB18161704709048161704708B5054BEB
:102EE0005B69034200D108BD024B5861FEF708FC44
:102EF000F9E700BF003C0140002800F0E08170B518
:102F000082B00446036813F0010F3BD09F4B9B68CF
:102F100003F00C03042B2CD09C4B9B6803F00C0398
:102F2000082B21D06368B3F5803F4FD0B3F5A02FB5
:102F300052D0964B1A6822F480321A601A6822F432
:102F400080221A606368002B50D0FEF7CFFF054641
:102F50008E4B1B6813F4003F14D1FEF7C7FF401BD4
:102F60006428F5D90320B1E1884B5B6813F4800F26
:102F7000D8D0864B1B6813F4003F03D06368002B46
:102F800000F09F81236813F0020F54D07F4B9B68A1
:102F900013F00C0F3ED07D4B9B6803F00C03082B05
:102FA00033D0E368002B68D0794B01221A60FEF71A
:102FB0009DFF0546754B1B6813F0020F54D1FEF7B9
:102FC00095FF401B0228F5D903207FE16F4A136863
:102FD00043F480331360B5E76C4B1A6842F48022E7
:102FE0001A601A6842F480321A60ABE7FEF77EFF7F
:102FF0000546664B1B6813F4003FC3D0FEF776FF0F
:10300000401B6428F5D9032060E1604B5B6813F432
:10301000800FC6D15D4B1B6813F0020F03D0E3682D
:10302000012B40F05081594A136823F0F8032169BD
:1030300043EAC1031360236813F0080F42D06369A9
:103040006BB3534B0122C3F8802EFEF74FFF0546AA
:103050004E4B5B6F13F0020F34D1FEF747FF401B5E
:103060000228F5D9032031E1484A136823F0F80318
:10307000216943EAC1031360DDE7454B00221A6072
:10308000FEF734FF0546414B1B6813F0020FD2D008
:10309000FEF72CFF401B0228F5D9032016E13C4B1C
:1030A0000022C3F8802EFEF721FF0546374B5B6FE9
:1030B00013F0020F06D0FEF719FF401B0228F5D9C6
:1030C000032003E1236813F0040F77D02F4B1B6C10
:1030D00013F0805F33D1002301932C4B1A6C42F024
:1030E00080521A641B6C03F080530193019B0125ED
:1030F000284B1B6813F4807F23D0A368012B34D0A6
:10310000052B38D0214B1A6F22F001021A671A6F73
:1031100022F004021A67A368002B3DD0FEF7E6FEFA
:1031200006461A4B1B6F13F0020F46D1FEF7DEFE68
:10313000801B41F288339842F3D90320C6E0002572
:10314000D6E7144A136843F480731360FEF7CEFE8B
:103150000646104B1B6813F4807FCED1FEF7C6FEE7
:10316000801B0228F5D90320B0E0084A136F43F012
:1031700001031367CFE7054B1A6F42F004021A6789
:103180001A6F42F001021A67C5E700BF003802401B
:103190000000474200700040FEF7A8FE0646524B72
:1031A0001B6F13F0020F08D0FEF7A0FE801B41F248
:1031B00088339842F3D9032088E0EDB9A369002B46
:1031C00000F08380484A926802F00C02082A51D02D
:1031D000022B17D0454B00221A66FEF787FE0446E5
:1031E000414B1B6813F0007F42D0FEF77FFE001BAF
:1031F0000228F5D9032069E03B4A136C23F0805381
:103200001364DBE7394B00221A66FEF76FFE0546B2
:10321000354B1B6813F0007F06D0FEF767FE401B9E
:103220000228F5D9032051E0E369226A1343626A58
:1032300043EA8213A26A5208013A43EA0243E26A6D
:1032400043EA0263284A5360284B01221A66FEF7BC
:103250004DFE0446244B1B6813F0007F06D1FEF799
:1032600045FE001B0228F5D903202FE000202DE0A9
:1032700000202BE0012B2BD01B4B5B6803F480015B
:10328000E269914226D103F03F02216A8A4223D1AA
:10329000616A47F6C0721A40B2EB811F1ED103F477
:1032A0004031A26A5208013AB1EB024F18D103F043
:1032B0007063E26AB3EB026F14D1002006E00120D4
:1032C0007047012002E0012000E0002002B070BD44
:1032D0000120FBE70120F9E70120F7E70120F5E7EE
:1032E0000120F3E70120F1E70038024000004742E7
:1032F00008B5264B9B6803F00C03042B41D0082B28
:1033000041D1224B5A6802F03F025B6813F4800FF0
:1033100012D01E4B5968C1F388111D480023A1FB30
:103320000001FDF729F9194B5B68C3F30143013331
:103330005B00B0FBF3F027E0144B5868C0F3881033
:103340004FEA401CBCEB000C6EEB0E0E4FEA8E13E6
:1033500043EA9C634FEA8C11B1EB0C0163EB0E0363
:10336000DB0043EA5173C90011EB000C43F1000389
:10337000990200234FEA8C2041EA9C51FDF7FCF8AA
:10338000D1E7034800E0034808BD00BF0038024011
:1033900040787D010024F400002800F09B8070B587
:1033A0000D4604464F4B1B6803F007038B4208D2BF
:1033B000CBB24C4A1370136803F007038B4240F002
:1033C0008B80236813F0020F17D013F0040F04D082
:1033D000454A936843F4E0539360236813F0080F61
:1033E00004D0414A936843F4604393603E4A936833
:1033F00023F0F003A1680B439360236813F0010FDF
:1034000032D06368012B21D09A1E012A25D9364A71
:10341000126812F0020F61D033498A6822F0030269
:1034200013438B60FEF762FD06462F4B9B6803F04B
:103430000C036268B3EB820F16D0FEF757FD801BBA
:1034400041F288339842F0D9032042E0264A1268BC
:1034500012F4003FE0D101203BE0234A126812F051
:10346000007FD9D1012034E01E4B1B6803F0070315
:10347000AB4207D9EAB21B4B1A701B6803F0070373
:10348000AB422DD1236813F0040F06D0164A93687F
:1034900023F4E053E1680B439360236813F0080FB3
:1034A00007D0114A936823F46043216943EAC103BA
:1034B0009360FFF71DFF0C4B9B68C3F303130B4A8C
:1034C000D35CD8400A4B18600A4B1868FEF7C2FC60
:1034D000002070BD012070470120FAE70120F8E7C5
:1034E0000120F6E7003C02400038024070DD000891
:1034F0000800002010000020014B1868704700BF32
:103500000800002008B5FFF7F7FF044B9B68C3F3E2
:103510008223034AD35CD84008BD00BF0038024074
:1035200068DD000808B5FFF7E7FF044B9B68C3F3AD
:103530004233034AD35CD84008BD00BF0038024084
:1035400068DD000840B370B50E461546044690F895
:103550004930E3B1214651F8080B00F0C3FAA268E4
:103560003146206800F0F4FA236BA26829466068AF
:1035700000F010FB2268A16852F8213043F00103EB
:1035800042F82130012384F84930002070BD80F8D2
:103590004830FDF74DFEDDE70120704710B4036AA7
:1035A000046A24F001040462846924F0F00C4CEAFB
:1035B000021223F00A030B43826103625DF8044B9D
:1035C000704710B4036A046A24F01004046284692A
:1035D00024F4704C4CEA023223F0A00343EA0113B6
:1035E000826103625DF8044B7047836823F07003C7
:1035F0000B4343F0070383607047000090F83D30B1
:10360000DBB2012B32D1022380F83D300368194A26
:10361000934220D0B3F1804F1DD0A2F57C4293425B
:1036200019D002F58062934215D002F58062934270
:1036300011D002F5784293420DD002F570529342B8
:1036400009D0A2F59432934205D01A6842F00102E3
:103650001A60002070479A6802F00702062A07D015
:103660001A6842F001021A6000207047012070477A
:1036700000207047000001400368196A41F21112EE
:10368000114208D1196A40F24442114203D11A682A
:1036900022F001021A60012380F83D3000207047BB
:1036A0000368344A904212D0B0F1804F0FD0A2F597
:1036B0007C4290420BD002F58062904207D002F526
:1036C0008062904203D002F57842904203D123F009
:1036D00070034A681343274A90422AD0B0F1804FC2
:1036E00027D0A2F57C42904223D002F5806290421E
:1036F0001FD002F5806290421BD002F578429042C2
:1037000017D002F57052904213D002F580629042B9
:103710000FD002F5806290420BD0A2F59832904211
:1037200007D002F58062904203D002F58062904299
:1037300003D123F44073CA68134323F080034A691A
:10374000134303608B68C3620B688362094B984222
:1037500003D003F58063984201D10B690363012311
:103760004361036913F0010F03D0036923F00103E0
:10377000036170470000014040B310B5044690F863
:103780003D30F3B1022384F83D30214651F8040B5B
:10379000FFF786FF012384F8463084F83E3084F832
:1037A0003F3084F8403084F8413084F8423084F867
:1037B000433084F8443084F8453084F83D300020AC
:1037C00010BD80F83C30FEF79DFADBE70120704722
:1037D00010B4846824F47F4C42EA03220A4342EA8C
:1037E0000C0282605DF8044B704790F83C30012B6E
:1037F00078D010B50446012380F83C30022380F8CD
:103800003D300268936823F47F4323F0770393608D
:103810000B68602B4CD029D8402B54D00CD9502B9E
:1038200022D1CA6849680068FFF7B8FE50212068B5
:10383000FFF7DBFE002005E0202B0DD009D9302B4F
:103840000AD00120012384F83D30002384F83C3065
:1038500010BD0BB1102B05D119462068FFF7C5FE2E
:103860000020EFE70120EDE70120EBE7B3F5805FF3
:1038700034D0B3F5005F0CD1CB684A688968006822
:10388000FFF7A6FF2268936843F48043936000200B
:10389000D8E7702B24D1CB684A6889680068FFF7A5
:1038A00097FF2268936843F0770393600020C9E78D
:1038B000CA6849680068FFF784FE60212068FFF746
:1038C00094FE0020BEE7CA6849680068FFF766FEFC
:1038D00040212068FFF789FE0020B3E70020B1E710
:1038E0000120AFE70220704790F83C20012A3DD02C
:1038F00010B40346012280F83C20022280F83D20CB
:1039000002685068946820F0700C086840EA0C0067
:1039100050601A68164882421AD0B2F1804F17D010
:10392000A0F57C40824213D000F5806082420FD027
:1039300000F5806082420BD000F57840824207D0CB
:1039400000F57050824203D0A0F59430824204D139
:1039500024F08004496821439160012283F83D20CE
:10396000002083F83C005DF8044B7047022070474C
:103970000000014010B504460268136923F4405367
:10398000C1680B431361836802691A4343691A4390
:10399000C3691A430168CB6823F4164323F00C0370
:1039A0001343CB600268536923F4407381690B436E
:1039B00053610368314A934206D002F58062934214
:1039C00002D0FFF79FFD01E0FFF7ACFDE369B3F51F
:1039D000004F29D00021031849411B1841F1000173
:1039E000C90041EA5371DB00181863684FEA83028B
:1039F0004FEA937341F10001FCF7BEFD204AA2FBA0
:103A000000314909642303FB11031B013233A2FB7C
:103A100003235B0903F0F00202EB011203F00F0332
:103A2000216813448B6010BD0023021843EB03018F
:103A3000121841F10001C90041EA5271D200101878
:103A400041F10001626892185B41FCF795FD0C4A58
:103A5000A2FB00314909642303FB1103DB0032336D
:103A6000A2FB03235B095A0002F4F87202EB011275
:103A700003F00703216813448B60D4E70010014072
:103A80001F85EB5160B310B5044690F8413013B375
:103A9000242384F841302268D36823F40053D36090
:103AA0002046FFF767FF2268136923F490431361F0
:103AB0002268536923F02A0353612268D36843F4D0
:103AC0000053D36000206064202384F8413084F8E0
:103AD0004230606310BD80F84030FEF757F9D7E7F9
:103AE0000120704710B40A6850F8223023F0010317
:103AF00040F822308B68082B25D000244A682243E6
:103B00001343CA6813430A6913434A691343CA69D2
:103B100013430A6A13434A6A13438A6A1343CA6AFD
:103B200013430A6B13438A691A43CB6B1A43096820
:103B300050F82140054B2340134340F8213000202A
:103B40005DF8044B70474024D8E700BF8000F0FFC9
:103B500010B5013250F8223003F0404C0B684C682D
:103B600043EA04138C6843EA0423CC6843EA044321
:103B70000C6904F1FF3E43EA0E534C69A4F1020EB6
:103B800043EA0E6389690B434CEA030340F8223091
:103B9000002010BDB3F5804F05D06FF0704340F8A2
:103BA00022300020704730B450F82230094C1C40BD
:103BB0000B684D6843EA05138D6843EA05238D6958
:103BC0002B43C96843EA01431C4340F822400020CC
:103BD00030BC70470000F0CF4FF0D843D422A3F898
:103BE0007E20B3F88020B3F88020B3F8800080B244
:103BF000000280B2B3F88030DBB2184345F21033D4
:103C0000984211D04FF0D843D322A3F87E20B3F8C6
:103C10008020B3F88020B3F8800080B2000280B228
:103C2000B3F88030DBB2184370474FF0D8432A22F4
:103C3000A3F87E20020AA3F88020C0B2A3F8800077
:103C40000A0AA3F88020C9B2A3F8801070474FF089
:103C5000D8432B22A3F87E20020AA3F88020C0B20A
:103C6000A3F880000A0AA3F88020C9B2A3F8801044
:103C700070472C224FF0D843A3F87E2070470000F5
:103C800070B586B0002401940294039404940594C2
:103C900000940F4B1A6B42F002021A631B6B03F085
:103CA00002030093009B4FF4004601960123029308
:103CB000039302230493074D01A92846FFF712F846
:103CC000224631462846FFF703F906B070BD00BF13
:103CD00000380240000402402DE9F84F064B1B88D3
:103CE00045F21032934209D047F29672934200F0A7
:103CF0000D86BDE8F88F00BF006B01204FF0D84360
:103D0000ED22A3F87E200122A3F88020FE21A3F853
:103D10008010EE21A3F87E10DE21A3F88010212070
:103D2000A3F88000F121A3F87E10A3F88020DF2201
:103D3000A3F87E201022A3F88020C424A3F87E409C
:103D40008F22A3F88020C622A3F87E200022A3F8A9
:103D50008020E221A3F88010A3F88010A3F880103F
:103D6000BF21A3F87E10AA21A3F88010B021A3F8E8
:103D70007E100D21A3F88010A3F88020A3F88010F6
:103D8000A3F880201121A3F88010A3F88020192126
:103D9000A3F88010A3F88020A3F88000A3F8802067
:103DA0002D21A3F88010A3F880203D21A3F88010D6
:103DB000A3F880205D21A3F88010A3F88020A3F849
:103DC0008010A3F88020B121A3F87E108021A3F8F1
:103DD0008010A3F880208B26A3F88060A3F88020B1
:103DE0009625A3F88050A3F88020B221A3F87E1076
:103DF000A3F88020A3F880200220A3F88000A3F875
:103E000080200321A3F88010A3F88020B327A3F813
:103E10007E70A3F88020A3F88020A3F88020A3F868
:103E20008020A3F88020A3F88020A3F88020A3F8A6
:103E30008020A3F88020A3F88020A3F88020A3F896
:103E40008020A3F88020A3F88020A3F88020A3F886
:103E50008020A3F88020A3F88020A3F88020A3F876
:103E60008020A3F88020A3F88020A3F88020A3F866
:103E70008020B427A3F87E70A3F88060A3F8802088
:103E8000A3F88050A3F88020A125A3F88050A3F8C0
:103E90008020B525A3F87E50A3F88000A3F88020E9
:103EA000A3F88010A3F880200420A3F88000A3F8D2
:103EB0008020B621A3F87E10A3F88020A3F88020EC
:103EC000B721A3F87E10A3F88020A3F880203F211B
:103ED000A3F88010A3F880205E21A3F88010A3F837
:103EE00080206421A3F88010A3F880208C21A3F8FF
:103EF0008010A3F88020AC21A3F88010A3F88020C4
:103F0000DC21A3F88010A3F880207025A3F880504E
:103F1000A3F880209025A3F88050A3F88020EB25FB
:103F2000A3F88050A3F88020A3F88010A3F8802085
:103F3000B821A3F87E10A3F88020A3F88020A3F86E
:103F40008020A3F88020A3F88020A3F88020A3F885
:103F50008020A3F88020BA21A3F87E102421A3F8A2
:103F60008010A3F88020A3F88020A3F88020C1252A
:103F7000A3F87E502025A3F88050A3F88020542574
:103F8000A3F88050A3F88020FF25A3F88050A3F861
:103F90008020C225A3F87E500A25A3F88050A3F8FC
:103FA0008020A3F88000A3F88020C320A3F87E001F
:103FB0003C20A3F88000A3F880203A25A3F8805085
:103FC000A3F880203925A3F88050A3F88020372556
:103FD000A3F88050A3F88020A3F88000A3F88020E5
:103FE0004FF03609A3F88090A3F880204FF03208F4
:103FF000A3F88080A3F880204FF02F0EA3F880E074
:10400000A3F880204FF02C0CA3F880C0A3F88020E8
:104010002927A3F88070A3F880202626A3F88060C3
:10402000A3F88020A3F88010A3F88020A3F88010C4
:10403000A3F880202325A3F88050A3F88020A3F8BC
:104040008000A3F88020A3F88090A3F88020A3F834
:104050008080A3F88020A3F880E0A3F88020A3F854
:1040600080C0A3F88020A3F88070A3F88020A3F874
:104070008060A3F88020A3F88010A3F88020A3F824
:104080008010A3F88020A3F88050A3F88020A3F824
:104090007E406221A3F88010A3F880200521A3F8B8
:1040A0008010A3F880208421A3F88010A3F880203A
:1040B000F021A3F88010A3F880201821A3F8801025
:1040C000A3F88020A420A3F88000A3F88020A3F800
:1040D0008010A3F880204FF05001A3F88010A3F8BF
:1040E00080200C21A3F88010A3F880201725A3F8C6
:1040F0008050A3F880209521A3F88010A3F8802099
:10410000F321A3F88010A3F88020E620A3F8800014
:10411000A3F88020C520A3F87E00A3F88080A3F830
:1041200080204424A3F88040A3F880206520A3F8D1
:104130008000A3F880207620A3F88000A3F88020D8
:104140008820A3F88000A3F88020C626A3F87E600C
:104150002026A3F88060A3F88020A3F88050A3F85D
:1041600080200125A3F88050A3F880204FF0C705D8
:10417000A3F87E50A3F88020A3F88020A3F8802025
:10418000A3F88020C825A3F87E50A3F88020A3F8C8
:104190008020A3F88020A3F88020C925A3F87E50B2
:1041A000A3F88020A3F88020A3F88020A3F8802023
:1041B000A3F88020A3F88020A3F88020A3F8802013
:1041C000A3F88020A3F88020A3F88020A3F8802003
:1041D000A3F88020A3F88020A3F88020A3F88020F3
:1041E000E026A3F87E604FF0160AA3F880A0A3F89B
:1041F00080201C25A3F88050A3F880202127A3F855
:104200008070A3F88020A3F88090A3F88020462730
:10421000A3F88070A3F880204FF05207A3F88070B5
:10422000A3F880204FF0640CA3F880C0A3F880208E
:104230004FF07A0EA3F880E0A3F880204FF08B08AF
:10424000A3F88080A3F880204FF0990BA3F880B0EA
:10425000A3F880204FF0A807A3F88070A3F880206F
:104260004FF0B908A3F88080A3F880204FF0C40E67
:10427000A3F880E0A3F880204FF0CA0CA3F880C018
:10428000A3F88020D227A3F88070A3F880204FF0F5
:10429000D90BA3F880B0A3F88020A3F88060A3F81E
:1042A0008020A3F88010A3F880204FF0E10BA3F842
:1042B0007EB0A3F880A0A3F88020A3F88050A3F8D4
:1042C00080204FF0220AA3F880A0A3F88020A3F852
:1042D0008090A3F880204FF04509A3F88090A3F8C0
:1042E00080204FF0520AA3F880A0A3F880204FF05E
:1042F000640AA3F880A0A3F880204FF07A0AA3F8FC
:1043000080A0A3F880204FF08B0AA3F880A0A3F828
:1043100080204FF0990BA3F880B0A3F880204FF0D5
:10432000A80AA3F880A0A3F88020A3F88080A3F8AF
:104330008020A3F880E0A3F88020A3F880C0A3F831
:104340008020A3F88070A3F88020D827A3F880707D
:10435000A3F88020A3F88060A3F88020A3F8801041
:10436000A3F88020E226A3F87E604FF00508A3F8AA
:104370008080A3F880200B26A3F88060A3F880201B
:104380001B26A3F88060A3F880203426A3F8806061
:10439000A3F88020A3F88040A3F880204F26A3F83C
:1043A0008060A3F880206126A3F88060A3F88020B5
:1043B0007926A3F88060A3F88020A3F88000A3F8F2
:1043C00080204FF0970EA3F880E0A3F880204FF0F4
:1043D000A60CA3F880C0A3F88020B727A3F88070AC
:1043E000A3F88020C226A3F88060A3F880204FF0B5
:1043F000C709A3F88090A3F880204FF0D109A3F853
:104400008090A3F880204FF0D609A3F88090A3F8FD
:1044100080204FF0DD09A3F88090A3F88020A3F856
:104420008010A3F88020E321A3F87E10A3F88080F9
:10443000A3F880200A21A3F88010A3F88020A3F815
:104440008050A3F880203321A3F88010A3F88020A7
:10445000A3F88040A3F880204FF05001A3F880100B
:10446000A3F880206221A3F88010A3F8802078218F
:10447000A3F88010A3F88020A3F88000A3F8802080
:10448000A3F880E0A3F88020A3F880C0A3F88020E0
:10449000A3F88070A3F88020A3F88060A3F88020A0
:1044A000C721A3F88010A3F88020D121A3F88010A1
:1044B000A3F88020D521A3F88010A3F88020CB4654
:1044C000A3F88090A3F88020F321A3F88010A3F82C
:1044D0008020E420A3F87E000120A3F88000A3F848
:1044E0008020A3F88000A3F880204FF0020AA3F8F0
:1044F00080A0A3F880202A20A3F88000A3F88020C1
:104500004FF03C09A3F88090A3F880204FF04B08AF
:10451000A3F88080A3F880205D27A3F88070A3F81B
:1045200080207426A3F88060A3F880208425A3F857
:104530008050A3F880209324A3F88040A3F8802023
:104540004FF0A20EA3F880E0A3F880204FF0B30054
:10455000A3F88000A3F880204FF0BE0CA3F880C021
:10456000A3F880204FF0C400A3F88000A3F88020B7
:104570004FF0CD0CA3F880C0A3F88020D320A3F87F
:104580008000A3F88020A3F880B0A3F88020A3F8CF
:104590008010A3F880204FF0E50BA3F87EB0A3F8BD
:1045A0008020A3F88020A3F88020A3F88020A3F81F
:1045B00080A0A3F880204FF0290AA3F880A0A3F8D8
:1045C0008020A3F88090A3F88020A3F88080A3F82F
:1045D0008020A3F88070A3F88020A3F88060A3F85F
:1045E0008020A3F88050A3F88020A3F88040A3F88F
:1045F0008020A3F880E0A3F880204FF0B304A3F854
:104600008040A3F880204FF0BE04A3F88040A3F8B8
:1046100080204FF0C404A3F88040A3F88020A3F8C2
:1046200080C0A3F88020A3F88000A3F88020DC20BD
:10463000A3F88000A3F88020A3F88010A3F88020BE
:10464000E621A3F87E101121A3F88010A3F88020A2
:104650003421A3F88010A3F880204FF05609A3F866
:104660008090A3F880204FF0760EA3F880E0A3F8A6
:1046700080204FF0770CA3F880C0A3F88020662438
:10468000A3F88040A3F880208826A3F88060A3F8D0
:1046900080209920A3F88000A3F88020BB27A3F8EE
:1046A0008070A3F88020A3F88000A3F88020A3F8EE
:1046B0008040A3F880205521A3F88010A3F8802023
:1046C000A3F88010A3F880204FF04508A3F880805D
:1046D000A3F880204325A3F88050A3F88020442528
:1046E000A3F88050A3F880204FF0E70AA3F87EA03B
:1046F0004FF0320AA3F880A0A3F88020A3F880101E
:10470000A3F88020A3F880E0A3F88020A3F88040DD
:10471000A3F880204FF0670EA3F880E0A3F8802074
:10472000A3F880E0A3F880204FF0870EA3F880E084
:10473000A3F88020A3F88000A3F88020A3F880705D
:10474000A3F88020A3F88000A3F88020A3F880C0FD
:10475000A3F88020A3F88050A3F88020A3F88090CD
:10476000A3F880204FF02309A3F88090A3F88020BD
:104770004FF03309A3F88090A3F88020A3F880803D
:10478000A3F880204FF0E808A3F87E80A3F88020EB
:10479000A3F88020A3F88000A3F88020A3F880E08D
:1047A000A3F88020A3F88060A3F88020A3F880C03D
:1047B000A3F88020A3F88040A3F88020A3F88060AD
:1047C000A3F88020AA26A3F88060A3F88020A3F88D
:1047D0008070A3F88020A3F88000A3F88020A3F8BD
:1047E0008040A3F88020A3F88010A3F88020A3F8CD
:1047F0008010A3F88020A3F88050A3F88020A3F8AD
:104800008050A3F88020A3F88010A3F88020E9212D
:10481000A3F87E10A3F88060A3F88020A3F880207E
:10482000A3F88020A3F87E20A3F88060CF21A3F80E
:104830007E10A3F88020A3F88020A3F88020A3F89E
:104840008020A3F88020A3F88020A3F88020A3F87C
:10485000802015461C46A3F88020A3F88020A3F8EA
:104860008020A3F88020A3F88020A3F88020A3F85C
:104870008020A3F88020A3F88020F023A4F87E30C5
:10488000A4F880205023A4F88030A4F88020A4F855
:104890008020A4F88020F323A4F87E30A4F88020A0
:1048A000F923A4F87E300623A4F880301023A4F85E
:1048B00080302927A4F88070A4F880203A23A4F837
:1048C0007E305526A4F880601123A4F87E30642041
:1048D000FDF712FBA4F87E703523A4F87E30A4F80F
:1048E00080505123A4F87E30FF23A4F88030532356
:1048F000A4F87E302C23A4F88030A4F87E608222B5
:10490000A4F88020A4F87E30FFF7F3B94FF0D84424
:104910001123A4F87E307820FDF7EEFA3621A4F8B2
:104920007E104823A4F880303A23A4F87E30552323
:10493000A4F88030F023A4F87E30C322A4F88020AD
:10494000A4F87E309622A4F88020B422A4F87E2019
:104950000122A4F88020B622A4F87E200A22A4F81E
:104960008020A222A4F88020B722A4F87E20C622AC
:10497000A4F88020B922A4F87E200222A4F8802086
:10498000E022A4F88020C020A4F87E008020A4F8B3
:1049900080001625A4F88050C120A4F87E001920BC
:1049A000A4F88000C226A4F87E60A726A4F8806040
:1049B000C526A4F87E60A4F88050E825A4F87E50AF
:1049C0004025A4F880508A25A4F880500025A4F83A
:1049D0008050A4F880502925A4F88050A4F88000C5
:1049E000A520A4F880003320A4F88000A4F87E203D
:1049F000A4F880300722A4F880200D22A4F880209B
:104A00000422A4F880200522A4F880201422A4F80F
:104A10008020A4F880105421A4F880104C20A4F821
:104A200080003821A4F880101321A4F88010A4F885
:104A300080202E21A4F880103421A4F88010E121D8
:104A4000A4F87E10A4F880301021A4F88010A4F8F7
:104A500080200E22A4F880200C22A4F880200822B6
:104A6000A4F880203522A4F880204422A4F88020D5
:104A7000A4F880002622A4F88020A4F88010122236
:104A8000A4F880202C22A4F880203222A4F88020D0
:104A9000A4F87E303C22A4F88020A4F87E3069235C
:104AA000A4F880307820FDF727FA2123A4F87E307F
:104AB000A4F87E50FFF71DB908B501224FF400415C
:104AC0000148FEF705FA08BD0004024029224FF014
:104AD000D843A3F87E2070470346504AD079032874
:104AE00000F29780DFE800F05C02223F802B75D057
:104AF00010D8402B74D003D9602B09D1C0234FE0CC
:104B0000002B6FD0202B01D1402349E002207047B9
:104B100002207047C02B67D0E02B01D180233FE0FB
:104B2000A02B01D100233BE002207047802B5DD0F9
:104B30000ED8402B5CD003D9602B08D1A0232FE0E6
:104B4000002B57D0202B01D1E02329E0704770477C
:104B5000C02B51D0E02B01D1202321E0A02B01D18B
:104B600060231DE07047802B48D010D8402B47D0E1
:104B700003D9602B09D1002312E0002B42D0202B57
:104B800001D180230CE00220704702207047C02B27
:104B90003AD0E02B01D1402302E0A02B3BD1C0232F
:104BA00010B51E4A9371118847F2967291422DD02A
:104BB0004FF0D8423621A2F87E10A2F88030174C70
:104BC0006188013989B20020FFF72FF8A1880139E7
:104BD00089B20020FFF73BF8002010BD2023DFE75B
:104BE000E023DDE76023DBE7A023D9E74023D7E715
:104BF0008023D5E7C023D3E70023D1E7E023CFE725
:104C00002023CDE7A023CBE76023C9E743F00803C7
:104C1000CEE7012070470220704700BF006B0120E3
:104C200008B5032829D8DFE800F002101820144B3B
:104C30004FF4A0725A804FF4F0729A80104BD871E2
:104C40000020FFF749FF002008BD0D4B4FF4F07224
:104C50005A804FF4A0729A80F0E7094B4FF4A0728B
:104C60005A804FF4F0729A80E8E7054B4FF4F072E7
:104C70005A804FF4A0729A80E0E70220E4E700BF78
:104C8000006B01202DE9F04180460E4614461F4678
:104C9000BDF818501146FEF7C8FF39463046FEF7FA
:104CA000D6FFFEF7E6FF0BE04FF0D84EAEF880508F
:104CB0000CF1010C1FFA8CFCA445F5D90136B6B2F3
:104CC000BE4201D8C446F7E7BDE8F08100B583B025
:104CD000009040F23F1340F2DF1200210846FFF738
:104CE000D1FF03B05DF804FB08B5FEF7C9FF00F083
:104CF00061F9FEF771FF45F21033984203D047F295
:104D00009673984216D10C4B18804FF4A0725A80BB
:104D10004FF4F0729A80FEF7DFFF0120FFF780FF6B
:104D20004FF6FF70FFF7D2FFFFF7D0FEFFF7C4FE8C
:104D3000002008BD0120FCE7006B012038B50C46BF
:104D400015460146FEF771FF21462046FEF77FFF1C
:104D5000FEF78FFF4FF0D843A3F8805038BD2DE900
:104D6000F04F83B005460E4691469B46BDF830A0F5
:104D7000904219D2A2EB00081FFA88F85E4518D2BB
:104D8000ABEB0607BFB24D4517D2012300935E453A
:104D900017D201230193A8EB070424B252465946C7
:104DA0004846FFF7CBFF26E0A0EB02081FFA88F881
:104DB000E4E7A6EB0B07BFB2E5E74FF0FF33009344
:104DC000E5E74FF0FF330193E5E7524631462846C9
:104DD000FFF7B4FF63001BB27A42934204DDE41B89
:104DE00024B2009A1544ADB2434504DA444424B2D7
:104DF000019B1E44B6B24D45E7D15E45E5D103B0F7
:104E0000BDE8F08F2DE9F04F85B083468C46BDF8A4
:104E100038E0A2F1200A5FFA8AFA032B5DD8DFE8B6
:104E200003F0021D242D0AEB4A0A2D4B03EB8A0ADC
:104E30000C231F4606225A44B2F5F07F4DDC0CEBE2
:104E40000702B2F5A07F48DC0024A046A146CDF8B9
:104E50000CA00293E246CDF804E036E0214B03EBD0
:104E60000A1A10231F460822E5E70AEBCA0A1E4B5E
:104E700003EB8A0A242318270C22DCE71B4B03EBE5
:104E80008A1A402320271022D5E70134E4B2A74232
:104E900012D07600F6B20135EDB2072D11D816F01A
:104EA000800FF2D004EB0A0108EB0B00019A89B2E3
:104EB00080B2FFF743FFE8E708F101085FFA88F8DE
:104EC000002409F101035FFA83F9029B4B4504D9E1
:104ED000039B13F809600025DFE705B0BDE8F08FFC
:104EE00094080108A402010848F5000888DD0008BC
:104EF0002DE9F04F87B0109E9DF844B0BDF848E012
:104F0000BBF1030F52D8DFE80BF0022E24294FF03B
:104F10000C0A4FF0060900EB020840F2DF1242458E
:104F2000A8BF42461FFA82F808F101081FFA88F864
:104F3000CF1840F23F139F42A8BF1F46BFB20137B0
:104F4000BFB20D46044603900591CDF810B0F3466C
:104F50001EE04FF0180A4FF00C09DCE74FF0200A72
:104F60004FF01009D7E74FF0100A4FF00809D2E7C9
:104F700005EB0A03BB4201DB039D059CCDF800B0A5
:104F8000049B29462046FFF73DFF4C44A4B201365E
:104F90003278A2F12003DBB25E2B07D804EB0903C1
:104FA0004345E5DB5544ADB2039CE1E707B0BDE8FE
:104FB000F08F00002DE9F04FA9B000242394249431
:104FC0002594269427941C941D941E941F94209439
:104FD00021942294159416941794189419941A9461
:104FE0001B940094A24B9A6B42F001029A639A6B55
:104FF00002F001020092009A01941A6B42F0200222
:105000001A631A6B02F020020192019A02941A6B41
:1050100042F040021A631A6B02F040020292029AB6
:1050200003941A6B42F008021A631A6B02F008022A
:105030000392039A04941A6B42F008021A631A6BE3
:1050400002F008020492049A05941A6B42F00802D6
:105050001A631A6B02F008020592059A06941A6BFD
:1050600042F008021A631A6B02F008020692069ACE
:1050700007941A6B42F008021A631A6B02F00802D6
:105080000792079A08941A6B42F008021A631A6B87
:1050900002F008020892089A09941A6B42F0100272
:1050A0001A631A6B02F010020992099A0A941A6B99
:1050B00042F010021A631A6B02F010020A920A9A66
:1050C0000B941A6B42F010021A631A6B02F0100272
:1050D0000B920B9A0C941A6B42F010021A631A6B23
:1050E00002F010020C920C9A0D941A6B42F010020E
:1050F0001A631A6B02F010020D920D9A0E941A6B3D
:1051000042F010021A631A6B02F010020E920E9A0D
:105110000F941A6B42F010021A631A6B02F010021D
:105120000F920F9A10941A6B42F010021A631A6BC6
:1051300002F010021092109A11941A6B42F01002B1
:105140001A631A6B02F010021192119A12941A6BE0
:1051500042F008021A631A6B02F008021292129AC5
:1051600013941A6B42F008021A631A6B02F00802D9
:105170001392139A14941A6B42F008021A631B6B71
:1051800003F008031493149B4FF48059CDF88C90CE
:105190000225249526950C26279623A93548FDF748
:1051A000A1FDCDF88C9024952695279623A9324809
:1051B000FDF798FD102323932495269527962F4FCE
:1051C00023A93846FDF78EFD2023239324952695A9
:1051D000279623A93846FDF785FD4FF4804ACDF880
:1051E0008CA024952695279623A93846FDF77AFDAD
:1051F0004FF40043239324952695279623A93846F8
:10520000FDF770FD0123239324952695279623A966
:105210003846FDF767FD239524952695279623A903
:105220003846FDF75FFD8023239324952695279626
:10523000DFF84C8023A94046FDF754FD4FF48073FE
:10524000239324952695279623A94046FDF74AFDEA
:105250004FF40073239324952695279623A940465F
:10526000FDF740FD4FF4806BCDF88CB0249509E03C
:10527000003802400014024000180240000C0240B6
:10528000001002402695279623A94046FDF72AFDE7
:105290004FF40063239324952695279623A940462F
:1052A000FDF720FDCDF88C9024952695279623A90F
:1052B0004046FDF717FD4FF40053239324952695A0
:1052C000279623A94046FDF70DFDCDF88CA0249527
:1052D0002695279623A94046FDF704FD4FF4004389
:1052E000239324952695279623A94046FDF7FAFC9B
:1052F0004FF48073239324952695279623A9384647
:10530000FDF7F0FC4FF40073239324952695279620
:1053100023A93846FDF7E6FCCDF88CB024952695F8
:10532000279623A93846FDF7DDFC15484FF02043AA
:10533000036003F58273436006238360C4600461E5
:10534000102343618461C46104624462C0F8289000
:10535000C462C0F830A04463846344640F231C9388
:105360003C231E931F9422941595179518941B9413
:1053700015AA1CA9FEF7E6F829B0BDE8F08F00BF1A
:10538000086B01202DE9F0412DED088BB0F800C02D
:1053900042680746084600EB8C084FEA5C015FEA6A
:1053A000DC0C82B000F0B0808C00103400F11003EF
:1053B00006191032444403EB0C1C08F1100515EDDE
:1053C000042A55ED032A54ED044A14ED034A14ED62
:1053D000026A54ED015A53ED043A15ED020A55EDF7
:1053E000010A56ED046A16ED033A13ED037A13ED44
:1053F000025A53ED017A16ED021A56ED011A73EEB8
:1054000082BA37EE22BA76EEA49A33EE049A31EEDF
:10541000A58A75EE00AA37EEA0AA71EE068A43EDC2
:1054200004BA03ED03BA43ED02AA03ED01AA06EDA7
:10543000018A46ED049A06ED039A46ED028A37EE9C
:10544000627A74EEE64A34EE434A52ED036A12ED94
:10545000043A73EEC23A27EE268A64EEA62A23EEB9
:10546000832A64EE834A63EEA63A27EE037A64EE5B
:10547000266A24EE034A37EE637A76EEA46A32EEA9
:10548000C44A32EE083A05ED037A05ED043A04ED1C
:10549000044A44ED036A12ED017A76EE416A35EE74
:1054A000405A35EEE16A77EEE07A52ED025A67EE45
:1054B000873A66EE874A25EE254A67EEA57A25EEFD
:1054C000075A66EEA56A26EE077A26EE256A77EE7B
:1054D000C57A74EE235A34EEC66A37EE267A103354
:1054E000634545ED025A06F1100645ED017A02F1D9
:1054F000100204ED026A04ED017A05F1100504F1D1
:1055000010047FF45CAF7A6889B20223019100F045
:105510001DFC01997A684046022302B0BDEC088B5D
:10552000BDE8F04100F012BC2DE9F04F2DED0A8BE3
:10553000038842688DB05B080A90084601EBC301FE
:10554000D1ED005AD0ED007AD1ED013A90ED015A3B
:10555000089100EB830696ED007A96ED014A0796D6
:1055600037EEA56A01EB8308D8ED004A98ED013AC1
:1055700077EE066A77EEE57A76EEA46A0446C0ED29
:10558000006AD6ED015AD8ED012A75EE236A35EE90
:10559000635A36EE476A74EE273A76EEA55A77EEEE
:1055A000C47A76EEC46A083435EE474A0D4637EEC3
:1055B000057A3746029408370C4608355908099190
:1055C0000697059502F1080736EE646A76EEC36A1F
:1055D00075EEA25A73EEC33A77EE837A34EE245A0C
:1055E00037EE647A02394546019702F1180C02F150
:1055F000100708354908C0ED015A0397C6ED003A77
:1056000086ED015ACDF800C084ED006AC4ED016A50
:105610000495C8ED007A88ED017A0B9100F038818D
:105620009B000C3BA6F10C0C06F110052646BB4670
:1056300002F1200A02F1300906F11007434400F19B
:10564000100E0C3CA8F10C0608F110021EED025AD7
:1056500057ED025A55ED027A52ED021A57ED016AE2
:105660001EED010A12ED011A15ED018A35EE254AEB
:1056700030EE266A37EE847A30EE660A37EE217A0B
:1056800075EE655A0EED027A15ED017A52ED016A5A
:1056900036EE077A78EE25AA37EE267A70EE673A6C
:1056A0000EED017A96ED027A9CED022A94ED02BA93
:1056B000D3ED029AD6ED012A9CED019A93ED015AA1
:1056C000D4ED010A72EE076A32EE472A7BEE268A93
:1056D00079EE224A38EEA97A79EE622A8CED027AC6
:1056E00094ED017AD3ED018A34EE877A3BEE693A84
:1056F00037EE287A32EE609A8CED017A1BED017A52
:105700001BED02AA73EE228A39EE059A7AEEC1AA3F
:1057100073EEA13A2AEE8ACA69EE07BA6AEE87AA40
:1057200029EE0A9A63EE87CA63EE8A3A28EE8AAABD
:1057300068EE878A73EEEA3A78EE898A3CEE2C7A34
:105740003BEECAAA34EE674A76EECB6A36EE486A7A
:1057500074EEE04A05ED027A45ED013AC4ED018AA6
:1057600084ED02AA5AED043A36EEE97A74EEC54A9F
:105770005AED036A34EE614A36EE416A67EE638A97
:1057800066EE269A24EE239A26EE236A24EE264A13
:1057900027EE267A64EEA66A64EEA34A36EE446AE1
:1057A00037EE647A38EEE64A79EE293A75EE606AA9
:1057B00075EEC85A77EE807A47ED023A07ED016A36
:1057C00086ED017A86ED024A35EE816A36EEC27ABE
:1057D00059ED065A59ED056A33EE623A77EEE17AF1
:1057E00067EE262A67EEA64A26EE255A67EEA57AC8
:1057F00026EE266A27EE257A63EE266A23EE253A00
:1058000077EEC67A75EE245A32EEC33A36EE877AD0
:10581000013942ED025A42ED017A0EF1080E83ED94
:10582000023A83ED017AACF1080C0BF1080B05F19B
:105830000805A4F108040AF1100A07F10807A6F107
:10584000080609F1180902F10802A3F108037FF420
:10585000FDAE0B9A029901EBC2010291019901EB95
:10586000C2010191069901EBC2010691039901EB76
:1058700002110391059901EBC2010591049902EB14
:10588000420301EBC2020492009A02EBC3030093AD
:105890000299059D91ED004AD5ED006A069B049C96
:1058A000D3ED007A94ED003AD5ED014AD1ED013AFD
:1058B00094ED012A93ED017A019A34EE266A73EE93
:1058C000A45A37EE865A73EEE43A35EE035A74EE74
:1058D000666A81ED005A93ED015AD4ED014A35EE26
:1058E000855A37EE264A35EE245A73EEE74A81EDA3
:1058F000015AD2ED001AD2ED012ABDF8241034EE7F
:10590000835A34EE424A36EE676A64EE214A24EE48
:10591000224A65EE222A25EE215A74EEA22A35EE9D
:10592000445AC3ED002A83ED015A75EEC75A039B12
:1059300036EE436A93ED014A93ED005A009B75EEF3
:10594000C25A66EE054A25EE855A26EE046A65EED1
:10595000845A35EE466A74EEA55A77EEA37A36EE8F
:10596000C77A85ED016AC5ED005AD3ED015AD3ED32
:10597000006A37EE027A77EEC37A27EE266A67EE80
:10598000A66A27EE257A67EEA57A36EEC77A76EE16
:10599000277A84ED017AC4ED007A0A9C009162684E
:1059A000042300F0D3F9079800996268042300F0FB
:1059B000CDF9089800996268042300F0C7F90099AE
:1059C0006268404604230DB0BDEC0A8BBDE8F04F81
:1059D00000F0BCB92DE9F843012A05880746904636
:1059E0000C4699465CD0B5F5807F54D010D8402D38
:1059F00015D04CD9802D03D121463846FFF7C2FC83
:105A0000B9F1000F14D1B8F1010F19D0BDE8F88336
:105A1000B5F5006F3FD033D9B5F5805FF0D17A6826
:105A200001232946204600F091F9B9F1000FEAD090
:105A3000BA68B989204600F045F8B8F1010FE5D100
:105A400007EE905AF8EE677AB7EE007AC7EE276A4B
:105A5000002DDBD004F10801002301339D4201F148
:105A6000080111ED047A51ED037A27EE267A67EEEC
:105A7000E67A01ED047A41ED037AEED1BDE8F883D0
:105A8000B5F5007FCBD0B5F5806FB5D0B8E7102D58
:105A9000B2D0202DB4D121463846FFF745FDAFE7FF
:105AA0006DB10C31002651ED027A0136F1EE677AC4
:105AB000B54241ED027A01F10801F4D193E7002BE0
:105AC000A4D0B5E7E9B1F0B5002502F1020E3EF829
:105AD000154032F81530A4089B0850F8246050F89F
:105AE00023C040F82360A6009B0040F824C0043384
:105AF000341D0235C6580759C7508D420651E6D3AA
:105B0000F0BD70472DE9F0412DED028B970884B070
