:020000040800F2
:100000000000022049210008991F00089B1F0008DA
:100010009D1F00089F1F0008A11F0008000000008E
:10002000000000000000000000000000115900085E
:10003000A31F000800000000B1590008E5540008A3
:1000400099210008992100089921000899210008A8
:100050009921000899210008992100089921000898
:100060009921000899210008A51F0008992100087E
:100070009921000899210008992100089921000878
:100080009921000899210008992100089921000868
:100090009921000899210008992100089921000858
:1000A0009921000899210008992100089921000848
:1000B0009921000899210008992100089921000838
:1000C000992100089921000899210008B11F000812
:1000D0009921000899210008992100089921000818
:1000E0009921000899210008992100089921000808
:1000F00099210008992100089921000899210008F8
:1001000099210008992100089921000899210008E7
:100110009921000899210008C11F000899210008B1
:1001200099210008992100089921000899210008C7
:1001300099210008992100089921000899210008B7
:1001400099210008992100089921000899210008A7
:100150009921000899210008992100089921000897
:100160009921000899210008992100089921000887
:100170009921000899210008992100080000000039
:080180009921000899210008F3
:1001C00081F0004102E000BF83F0004330B54FEA08
:1001D00041044FEA430594EA050F08BF90EA020F75
:1001E0001FBF54EA000C55EA020C7FEA645C7FEA08
:1001F000655C00F0E2804FEA5454D4EB5555B8BF2B
:100200006D420CDD2C4480EA020281EA030382EA9B
:10021000000083EA010180EA020281EA0303362D2D
:1002200088BF30BD11F0004F4FEA01314FF4801C00
:100230004CEA113102D0404261EB410113F0004F12
:100240004FEA03334CEA133302D0524263EB4303C9
:1002500094EA050F00F0A780A4F10104D5F1200E67
:100260000DDB02FA0EFC22FA05F2801841F10001C2
:1002700003FA0EF2801843FA05F359410EE0A5F196
:1002800020050EF1200E012A03FA0EFC28BF4CF0C7
:10029000020C43FA05F3C01851EBE37101F000457D
:1002A00007D54FF0000EDCF1000C7EEB00006EEB8A
:1002B0000101B1F5801F1BD3B1F5001F0CD3490814
:1002C0005FEA30004FEA3C0C04F101044FEA44526B
:1002D00012F5800F80F09A80BCF1004F08BF5FEAF2
:1002E000500C50F1000041EB045141EA050130BDD2
:1002F0005FEA4C0C404141EB0101013C28BFB1F5E4
:10030000801FE9D291F0000F04BF01460020B1FA2E
:1003100081F308BF2033A3F10B03B3F120020CDA01
:100320000C3208DD02F1140CC2F10C0201FA0CF0DF
:1003300021FA02F10CE002F11402D8BFC2F1200C44
:1003400001FA02F120FA0CFCDCBF41EA0C019040FA
:10035000E41AA2BF01EB0451294330BD6FEA040443
:100360001F3C1CDA0C340EDC04F11404C4F120022E
:1003700020FA04F001FA02F340EA030021FA04F340
:1003800045EA030130BDC4F10C04C4F1200220FA97
:1003900002F001FA04F340EA0300294630BD21FAD5
:1003A00004F0294630BD94F0000F83F4801306BF9B
:1003B00081F480110134013D4EE77FEA645C18BF8F
:1003C0007FEA655C29D094EA050F08BF90EA020F26
:1003D00005D054EA000C04BF1946104630BD91EA1E
:1003E000030F1EBF0021002030BD5FEA545C05D121
:1003F0004000494128BF41F0004130BD14F5800460
:100400003CBF01F5801130BD01F0004545F0FE41D3
:1004100041F470014FF0000030BD7FEA645C1ABF08
:10042000194610467FEA655C1CBF0B46024650EA3F
:10043000013406BF52EA033591EA030F41F400216B
:1004400030BD00BF90F0000F04BF0021704730B5F1
:100450004FF4806404F132044FF000054FF00001C6
:1004600050E700BF90F0000F04BF0021704730B587
:100470004FF4806404F1320410F0004548BF40425C
:100480004FF000013EE700BF42004FEAE2014FEAB1
:1004900031014FEA02701FBF12F07F4393F07F4F8C
:1004A00081F06051704732F07F4208BF704793F08F
:1004B0007F4F04BF41F40021704730B54FF46074A2
:1004C00001F0004521F000411CE700BF50EA0102A5
:1004D00008BF704730B54FF000050AE050EA01024E
:1004E00008BF704730B511F0004502D5404261EBBE
:1004F00041014FF4806404F132045FEA915C3FF4FF
:10050000D8AE4FF003025FEADC0C18BF03325FEA9B
:10051000DC0C18BF033202EBDC02C2F1200300FA4C
:1005200003FC20FA02F001FA03FE40EA0E0021FA71
:1005300002F11444BDE600BF70B54FF0FF0C4CF45F
:10054000E06C1CEA11541DBF1CEA135594EA0C0F11
:1005500095EA0C0F00F0DEF82C4481EA030621EA4C
:100560004C5123EA4C5350EA013518BF52EA033587
:1005700041F4801143F4801338D0A0FB02CE4FF039
:100580000005E1FB02E506F00042E0FB03E54FF069
:100590000006E1FB03569CF0000F18BF4EF0010E61
:1005A000A4F1FF04B6F5007F64F5407404D25FEA5D
:1005B0004E0E6D4146EB060642EAC62141EA555110
:1005C0004FEAC52040EA5E504FEACE2EB4F1FD0C52
:1005D00088BFBCF5E06F1ED8BEF1004F08BF5FEAD0
:1005E000500E50F1000041EB045170BD06F0004682
:1005F00046EA010140EA020081EA0301B4EB5C042F
:10060000C2BFD4EB0C0541EA045170BD41F4801126
:100610004FF0000E013C00F3AB8014F1360FDEBF4B
:10062000002001F0004170BDC4F10004203C35DA27
:100630000C341BDC04F11404C4F1200500FA05F3AA
:1006400020FA04F001FA05F240EA020001F000424B
:1006500021F0004110EBD37021FA04F642EB0601C1
:100660005EEA430E08BF20EAD37070BDC4F10C04EB
:10067000C4F1200500FA04F320FA05F001FA04F2AF
:1006800040EA020001F0004110EBD37041F100019B
:100690005EEA430E08BF20EAD37070BDC4F12005A6
:1006A00000FA05F24EEA020E20FA04F301FA05F20E
:1006B00043EA020321FA04F001F0004121FA04F2B6
:1006C00020EA020000EBD3705EEA430E08BF20EA86
:1006D000D37070BD94F0000F0FD101F000464000C0
:1006E00041EB010111F4801F08BF013CF7D041EA42
:1006F000060195F0000F18BF704703F00046520046
:1007000043EB030313F4801F08BF013DF7D043EA16
:100710000603704794EA0C0F0CEA135518BF95EACC
:100720000C0F0CD050EA410618BF52EA4306D1D153
:1007300081EA030101F000414FF0000070BD50EA72
:10074000410606BF1046194652EA430619D094EAFC
:100750000C0F02D150EA013613D195EA0C0F05D1E6
:1007600052EA03361CBF104619460AD181EA03013A
:1007700001F0004141F0FE4141F470014FF00000F2
:1007800070BD41F0FE4141F4780170BD70B54FF08D
:10079000FF0C4CF4E06C1CEA11541DBF1CEA13550D
:1007A00094EA0C0F95EA0C0F00F0A7F8A4EB0504EF
:1007B00081EA030E52EA03354FEA013100F08880E6
:1007C0004FEA03334FF0805545EA131343EA1263AF
:1007D0004FEA022245EA111545EA10654FEA002664
:1007E0000EF000419D4208BF964244F1FD0404F51D
:1007F000407402D25B084FEA3202B61A65EB030579
:100800005B084FEA32024FF480104FF4002CB6EB35
:10081000020E75EB030E22BFB61A754640EA0C00B5
:100820005B084FEA3202B6EB020E75EB030E22BFF5
:10083000B61A754640EA5C005B084FEA3202B6EB36
:10084000020E75EB030E22BFB61A754640EA9C00F5
:100850005B084FEA3202B6EB020E75EB030E22BFC5
:10086000B61A754640EADC0055EA060E18D04FEA83
:10087000051545EA16754FEA06164FEAC30343EA23
:1008800052734FEAC2025FEA1C1CC0D111F4801FF0
:100890000BD141EA00014FF000004FF0004CB6E7E9
:1008A00011F4801F04BF01430020B4F1FD0C88BF88
:1008B000BCF5E06F3FF6AFAEB5EB030C04BFB6EB93
:1008C000020C5FEA500C50F1000041EB045170BD86
:1008D0000EF0004E4EEA113114EB5C04C2BFD4EBB3
:1008E0000C0541EA045170BD41F480114FF0000E37
:1008F000013C90E645EA060E8DE60CEA135594EAB3
:100900000C0F08BF95EA0C0F3FF43BAF94EA0C0FB5
:100910000AD150EA01347FF434AF95EA0C0F7FF42A
:1009200025AF104619462CE795EA0C0F06D152EA7E
:1009300003353FF4FDAE1046194622E750EA410662
:1009400018BF52EA43067FF4C5AE50EA41047FF473
:100950000DAF52EA43057FF4EBAE12E74FF0FF3CD8
:1009600006E000BF4FF0010C02E000BF4FF0010CA9
:100970004DF804CD4FEA410C7FEA6C5C4FEA430C22
:1009800018BF7FEA6C5C1BD001B050EA410C0CBF71
:1009900052EA430C91EA030F02BF90EA020F0020D3
:1009A000704710F1000F91EA030F58BF994208BF3A
:1009B00090422CBFD8176FEAE37040F001007047F7
:1009C0004FEA410C7FEA6C5C02D150EA013C07D14E
:1009D0004FEA430C7FEA6C5CD6D152EA033CD3D099
:1009E0005DF8040B704700BF8446104662468C4693
:1009F0001946634600E000BF01B5FFF7B7FF0028C6
:100A000048BF10F1000F01BD4DF808EDFFF7F4FFEE
:100A10000CBF012000205DF808FB00BF4DF808ED79
:100A2000FFF7EAFF34BF012000205DF808FB00BF9C
:100A30004DF808EDFFF7E0FF94BF012000205DF8BE
:100A400008FB00BF4DF808EDFFF7CEFF94BF012073
:100A500000205DF808FB00BF4DF808EDFFF7C4FF6C
:100A600034BF012000205DF808FB00BF4FEA4102BF
:100A700012F5001215D211D56FF47873B3EB6252F0
:100A800012D94FEAC12343F0004343EA505311F017
:100A9000004F23FA02F018BF404270474FF00000A9
:100AA000704750EA013005D111F0004008BF6FF0E7
:100AB000004070474FF00000704700BF53B94AB97B
:100AC000002908BF00281CBF4FF0FF314FF0FF3056
:100AD00000F00CB8ADF1080C6DE904CE07F0A2FBF4
:100AE000DDF804E0DDE9022304B07047704700BF81
:100AF000844641EA000313F003036DD1403A41D329
:100B000051F8043B40F8043B51F8043B40F8043BE7
:100B100051F8043B40F8043B51F8043B40F8043BD7
:100B200051F8043B40F8043B51F8043B40F8043BC7
:100B300051F8043B40F8043B51F8043B40F8043BB7
:100B400051F8043B40F8043B51F8043B40F8043BA7
:100B500051F8043B40F8043B51F8043B40F8043B97
:100B600051F8043B40F8043B51F8043B40F8043B87
:100B700051F8043B40F8043B51F8043B40F8043B77
:100B8000403ABDD2303211D351F8043B40F8043B17
:100B900051F8043B40F8043B51F8043B40F8043B57
:100BA00051F8043B40F8043B103AEDD20C3205D327
:100BB00051F8043B40F8043B043AF9D2043208D01F
:100BC000D2071CBF11F8013B00F8013B01D30B8891
:100BD00003806046704700BF082A13D38B078DD06F
:100BE00010F003038AD0C3F10403D21ADB071CBF41
:100BF00011F8013B00F8013B80D331F8023B20F8AB
:100C0000023B7BE7043AD9D3013A11F8013B00F8E3
:100C1000013BF9D20B7803704B7843708B7883706B
:100C20006046704700000000000000000000000067
:100C300000000000000000000000000000000000B4
:100C400030B490F800F020F007016FF0000C10F0C5
:100C5000070491F820F040F048804FF000046FF056
:100C60000700D1E9002391F840F000F1080082FA72
:100C70004CF2A4FA8CF283FA4CF3A2FA8CF34BBB3D
:100C8000D1E9022382FA4CF200F10800A4FA8CF2B6
:100C900083FA4CF3A2FA8CF3E3B9D1E9042382FA84
:100CA0004CF200F10800A4FA8CF283FA4CF3A2FA99
:100CB0008CF37BB9D1E9062301F1200182FA4CF2D1
:100CC00000F10800A4FA8CF283FA4CF3A2FA8CF338
:100CD000002BC6D0002A04BF04301A4612BAB2FA5A
:100CE00082F200EBD20030BC7047D1E9002304F05F
:100CF0000305C4F100004FEAC50514F0040F91F894
:100D000040F00CFA05F562EA05021CBF63EA050330
:100D100062464FF00004AAE7000000000000000057
:100D200001F0FF01102A2BDB10F0070F08D010F89C
:100D3000013B013A8B422DD010F0070F42B3F6D1A0
:100D4000F0B441EA012141EA014122F007047FF0B9
:100D500000070023F0E80256083C85EA010586EA10
:100D6000010685FA47F5A3FA87F586FA47F6A5FA4C
:100D700087F68EB9EED1F0BC01F0FF0102F0070258
:100D800032B110F8013B013A83EA010313B1F8D103
:100D90000020704701387047002D06BF35460338E4
:100DA000073815F0010F07D1013015F4807F02BF1D
:100DB000013015F4C03F0130F0BC0138704700BF6E
:100DC0004FEA410C7FEA6C5C02D150EA013C0AD147
:100DD0004FEA430C7FEA6C5C02D152EA033C02D139
:100DE0004FF0000070474FF0010070470348044B7C
:100DF000834202D0034B03B118477047FC06002022
:100E0000FC060020000000000548064B1B1AD90F05
:100E100001EBA301491002D0034B03B118477047FF
:100E2000FC060020FC0600200000000010B5064C67
:100E3000237843B9FFF7DAFF044B13B10448AFF34B
:100E400000800123237010BD000700200000000077
:100E50005CE8000808B5054B1BB105490548AFF330
:100E60000080BDE80840FFF7CFBF00BF00000000D2
:100E7000040700205CE800082DE9F04F97B0824697
:100E80008946174606AD4E4B2C460FCB07C424F8B7
:100E9000023B1B0C23700024029401230193009554
:100EA0001023FA229621B42004F030F84FF6FF7395
:100EB00000934FF48C734FF4C872AA21052003F0FD
:100EC000EFFE00944FF48C730522AA21104603F024
:100ED00054FF00944FF48C734FF4C87219460520E8
:100EE00003F04BFF4B46A44647F6FF7B00E001337F
:100EF000BB4208DA3AF91320624500DD94465A45B0
:100F0000F5DA9346F3E74E46002304934FF0FF389B
:100F1000CDF814C01AE04FF4C874B5F58C7F03DC2B
:100F2000A92D03DCAA2501E04FF48C75B8F1FF3F31
:100F300009D01F230093ABB2A2B2BDF810101FFA64
:100F400088F003F01AFF01360495A046BE422DDA60
:100F5000A6EB090440F28B1303FB04F4A7EB09038F
:100F600094FBF3F405343AF91630A3EB0B036E222D
:100F700002FB03F3059AA2EB0B0093FBF0F0FFF7E3
:100F800071FA0DA3D3E90023FFF7D6FA02460B4608
:100F900000200C49FFF718F9FFF768FD0546B4F586
:100FA000C87FB8DC042CB8DC0524B6E717B0BDE870
:100FB000F08F00BFAFF30080666666666666EE3F40
:100FC0007CE8000800807140F0B52DED028BF3B095
:100FD0009FED6F3B9FED701B9FED718BB0EE435A01
:100FE000F0EE635AB0EE414AF0EE614A9FED6E2B8F
:100FF000B0EE480AF0EE680A5AA804F0D1F99FED65
:101000006C3B9FED6D1BB0EE435AF0EE635AB0EEB1
:10101000414AF0EE614A9FED6A2BB0EE480AF0EECD
:10102000680A42A804F0BCF99FED673BB0EE435A52
:10103000F0EE635A9FED664B9FED672B9FED681BAB
:10104000B0EE480AF0EE680A2AA804F0A9F99FED6C
:10105000663BB0EE435AF0EE635A9FED654B9FED51
:10106000662B9FED671BB0EE480AF0EE680A12A8E7
:1010700004F096F91BE002F0FFFC57EC106B3BE02C
:1010800002F05EFD57EC106B36E000225E4B3046FE
:101090003946FFF751FA5D4B1F687E1C1E60FFF753
:1010A000E5FC5B4B23F81700B6F5805F61DA594920
:1010B000594B186804F015FB0028F8D1574B1B68F2
:1010C0001BB9574B1B68002BD5D1544B1B681BB168
:1010D000534B1B68002BD3D002F0CEFC5AA804F06F
:1010E0008AF942A804F087F92AA804F084F912A822
:1010F00004F081F957EC106B344607F10045CDE957
:101100000045484A402102A807F0DCFA02A8FFF790
:1011100097FD642382B202A9434802F0D6FA434BFA
:10112000C3E90067424B186804F00FFB414B1B6892
:10113000002BAAD00022344B30463946FFF7FCF989
:10114000324B1F687E1C1E60FFF790FC3A4B23F861
:101150001700B6F5805FAADB00232C4A1360354ADE
:101160001360364B344A1A60354B186804F0EDFAB8
:101170009DE7264B00221A602E4B01221A602F4B4E
:10118000234A1A602E4B186804F0DFFA8FE700BF7D
:1011900092B9E81A1C1BEE3FE2CC6DCA2E5BF8BF79
:1011A000000000000000F03F6C0F73303836EC3F59
:1011B0004D3BA9ED2E69EC3F443B0213138FE1BF79
:1011C000E212F4D55DD2E83FF747CE78115C8B3F51
:1011D000F747CE78115C9B3F39187F15BF6DE63F0E
:1011E000DD19F9FEFE5BFABF35ED418C009CEE3F48
:1011F00059BB9289009CFEBFE55F4F647B47ED3F82
:10120000C0C6FD604394FEBF00408F4050080020E0
:101210005448002036894100786800205468002036
:10122000586800208CE80008886900206868002061
:10123000746800204C0800205428002060680020BA
:1012400070680020F8B51CE01B4D35F91400FFF75D
:1012500009F921F000473946FFF708FC25F814008A
:101260000134B4F5805FEFDB04F064FB4FF480627F
:1012700000211148FFF700FE04F07EFB012004F07E
:10128000C9F90E490E4B186804F02BFA0028F5D165
:1012900004460C4B1B68002BF0D00B4D01230022A1
:1012A0004FF48051284606F08DFB034A074B19681E
:1012B000284606F0EDFAD4E75408002036894100AC
:1012C0007068002030000020340800206068002092
:1012D00008B5012004F09EF9FBE700002DE9F04776
:1012E0000024274626464FF001092546A04655E032
:1012F000322004F08FF910213C4801F0FDF800285D
:1013000053D1002D51D188F0010AB8F1000F06D158
:1013100002F01EFB0125364B1D60D04645E002F071
:1013200022FB334B00221A60D04601253DE03220DB
:1013300004F070F908212D4801F0DEF800283BD1B7
:10134000002E39D189F0010AB9F1000F0DD1012623
:10135000284B1E6004F0EEFA002211461046FFF7FB
:101360008BFD04F009FBD14626E00026214B1E60D0
:1013700004F0E0FA324631463046FFF77DFD04F0D6
:10138000FBFAD146012617E01B4A002111601F46D7
:10139000012400E00024012004F03CF9102113484E
:1013A00001F0AAF80028A3D0002508210F4801F079
:1013B000A3F80028BBD0002604210C4801F09CF8BB
:1013C0000028E7D1322004F025F90421074801F074
:1013D00093F80028DFD1002CDDD187F00103002F26
:1013E000D2D10124044A14601F46D4E70010024001
:1013F000546800203000002058680020102800D0D9
:10140000704708B50C4B186804F09FF904F056F8C3
:101410000A4A136801331360094981FB0321DA1773
:10142000C2EB61124FF4FA7101FB123202B108BD36
:1014300004F04EF8FBE700BF786800203008002079
:10144000D34D6210000000002DE9F04FD5B057ECED
:10145000106B44ACB04B0FCB84E80F000025029515
:101460000123019300941023FA222946B42003F0AB
:101470004DFD0095962305221421104603F07DFCB6
:10148000009596234FF4C3721946052003F075FCAE
:10149000A24B1B68B3F5747F54DA32463B46A04931
:1014A000D1E90001FFF7BAFA10B19D4BC3E900671B
:1014B00032463B469B49D1E90001FFF7CDFA10B116
:1014C000984BC3E90067954B1868421C1A60FEF7F9
:1014D000C9FF8BA3D3E90023FFF72EF8FFF7C6FA65
:1014E0000446914BD3E900AB52465B463046394641
:1014F000FEF76AFE00228D4BFFF71EF880468946F4
:1015000052465B468A49D1E90001FEF75DFE02467C
:101510000B4640464946FFF739F97BA3D3E9002340
:10152000FFF70AF80022834BFEF750FEFFF79EFA02
:101530000546B4F5747F80F29780042C00F3968002
:10154000052493E0754B05221A607B4B1888421CDA
:101550004FF6FF750095962392B2142103F0A0FB7D
:10156000DFF8C4816F4AD2E90001C8E90001DFF861
:10157000C0A16B4BD3E90001CAE9000100206F490B
:10158000C2E9000100206E49C3E9000104AB6D4AC5
:1015900092E8030083E80300002402944FF001095D
:1015A000CDF8049000931023502214214FF4C870FA
:1015B00003F0ACFC0DF1500C634A634607CA03C349
:1015C0001A800294CDF80490CDF800C01023502268
:1015D0003C214FF4C87003F099FC0DF19009DAF842
:1015E0000020DAF8041001F10043CDE90023574A46
:1015F0004021484607F066F80DF1D00AD8F80020DF
:10160000D8F8041001F10043CDE90023504A4021ED
:10161000504607F057F8009534234FF4E172282123
:101620004FF4C87003F03CFB02940194CDF800A085
:101630000C23322228214FF4C87003F067FC009578
:101640005C234FF4E17250214FF4C87003F028FB83
:1016500002940194CDF800900C23322250214FF4D3
:10166000C87003F053FC18E74FF4C374962D03DCE5
:10167000132D02DC142500E096251FFA84F808F1EA
:101680000102DFF8B490D9F8000001304FF6FF7383
:101690000093962392B2142180B203F001FBD9F893
:1016A0000000A04202DB0BD1052C09D04FF4784397
:1016B0000093ABB242462749098880B203F05DFB34
:1016C0001D4B1C60234B1D60234B1D6801351D60A5
:1016D000224B19684A1C1A60214B03EBC103C3E972
:1016E0000067132A02DD1D4B00221A60002408A7A0
:1016F000D7E900674FF00008DFF8409033E000BF03
:101700009A9999999999D93F666666666666EE3F99
:101710009A9999999999B9BF94E800082C000020EA
:101720001000002020000020180000200040604031
:101730000800002000003740280000200000F03F93
:101740000000F0BFA4E80008ACE80008B8E8000812
:10175000C4E80008000000202C0800202808002011
:10176000280700200134132C18DC534B03EBC4036F
:10177000D3E900AB42464B4650465946FFF74EF977
:1017800008B1D046D94632463B4650465946FFF747
:1017900063F90028E6D056465F46E3E742464B46EB
:1017A00030463946FEF710FD06460F46434BD3E957
:1017B00000234349D1E90001FEF706FD0022414B19
:1017C000FEF7BAFE02460B4630463946FFF744F9AB
:1017D00010B13D4B1B68CBB13B4A1368013B136012
:1017E000002B61DB354BD3E900233549D1E90001FA
:1017F000FEF7EAFC2EA3D3E90023FFF70FF910B19F
:10180000324B01221A6055B0BDE8F08F2E4B642296
:101810001A602F4E3368EB1A5800FEF723FE02467B
:101820000B4600202B49FEF7B1FF00222A4BFEF7A2
:1018300083FEFFF71BF904463560244B01221A6032
:101840004FF6FF7300934FF49E73A0224FF49671EE
:101850000A2003F025FAD12C13DC34AD23461F4AAD
:101860004021284606F02EFF002302930123019316
:101870000095102396224FF496710A2003F046FB40
:10188000AAE734AD164B2C460FCB07C423700023B8
:101890000293012301930095102396224FF4967131
:1018A0000A2003F033FB97E7134600221A6099E7FA
:1018B0009A9999999999A93F280700201800002022
:1018C000080000200000E03F200700205C680020A6
:1018D0001C07002000408F4000004E40CCE800086C
:1018E000DCE8000808B50849084B186803F0F9FE61
:1018F0000028F8D104F01EF8054B93ED000BFFF71C
:10190000A3FD04F039F8EEE7368941007468002041
:101910006868002008B51C4A0121084603F088FECB
:101920001A4B18601A4A0121084603F081FE194B30
:101930001860194A0121084603F07AFE174B186017
:10194000174A0021174803F007FE174B1860174A83
:101950000021174803F000FE164B1860164A0021BC
:10196000164803F0F9FD164B1860164A0021164878
:1019700003F0F2FD154B1860154A0021154803F0DD
:10198000EBFD154B186008BD74E90008786800206D
:1019900064E900087468002054E9000870680020B9
:1019A00014EA0008C90F00088C680020F0E900085C
:1019B000E518000888680020CCE9000845120008F6
:1019C00084680020A8E90008D1120008806800207F
:1019D00084E90008DD1200087C6800202DE9F04150
:1019E00086B0002301930293039304930593224B43
:1019F0001B6813B106B0BDE8F0811F4B01221A60CD
:101A0000002600961D4B9A6B42F001029A639B6B75
:101A100003F001030093009B4FF48058CDF804803D
:101A200002270297032504950C24059401A9144864
:101A300000F06CFC4FF680730193029703960495B7
:101A4000059401A90F4800F061FC4CF23373019337
:101A5000029703960495059401A90B4800F056FCE3
:101A6000CDF80480029703960495059401A90748D0
:101A700000F04CFCBEE700BF906800200038024038
:101A80000014024000100240000C02400018024006
:101A900010B588B00022019202920392049205923E
:101AA0000692079215484FF02043036003F58273B6
:101AB000436006238360C26002611021416182613C
:101AC000C261026242624FF480538362C262026367
:101AD0004263826342640F2301930293FF240394C1
:101AE000049305911123069301A901F02FFB08B976
:101AF00008B010BD00F0E0F8FAE700BF94680020DD
:101B000008B5FFF76BFF08BD2DE9F0478EB0002444
:101B100009940A940B940C940D9401945A4B1A6BEB
:101B200042F010021A631A6B02F010020192019A3D
:101B300002941A6B42F020021A631A6B02F0200220
:101B40000292029A03941A6B42F080021A631A6B93
:101B500002F080020392039A04941A6B42F001028D
:101B60001A631A6B02F001020492049A05941A6B2C
:101B700042F004021A631A6B02F004020592059AFD
:101B800006941A6B42F002021A631A6B02F0020208
:101B90000692069A07941A6B42F008021A631A6BAF
:101BA00002F008020792079A08941A6B42F040026A
:101BB0001A631B6B03F040030893089BDFF8D8906F
:101BC00022464FF4E061484600F09DFC2F4E012272
:101BD0000321304600F097FCDFF8C080012210217D
:101BE000404600F090FC2A4F22464FF40041384610
:101BF00000F089FC1C2309930A9401250B9509A97F
:101C0000244800F083FB4FF4E06309930A950B949A
:101C10000C9409A9484600F079FB4FF00309CDF870
:101C200024900A950B940C9409A9304600F06EFBA1
:101C30004FF0100ACDF824A04FF404130A930223A6
:101C40000B9309A9304600F061FBCDF824A00A955A
:101C50000B94CDF8309009A9404600F057FB4FF4A3
:101C6000004309930A950B940C9409A9384600F097
:101C70004DFB224605210A2000F016FB0A2000F049
:101C800023FB0EB0BDE8F0870038024000000240A0
:101C9000000402400010024000140240000802400C
:101CA00008B50268034B9A4200D008BD00F090FAD4
:101CB000FBE700BF0010004072B6FEE700B595B02C
:101CC0003022002108A806F089FD00230393049325
:101CD0000593069307930193204A116C41F08051BC
:101CE0001164126C02F080520192019A02931C4B13
:101CF0001A6842F480421A601B6803F4804302931E
:101D0000029B012308934FF48033099302220E9221
:101D10004FF480030F9304231093A8211191129282
:101D2000139308A800F00CFC98B90F230393022327
:101D30000493002305934FF4A05306934FF480536C
:101D40000793052103A800F065FE20B915B05DF8E2
:101D500004FBFFF7B1FFFFF7AFFF00BF0038024001
:101D60000070004000B595B000F018FAFFF7A6FF2C
:101D7000FFF7CAFEFFF78CFE00F092F900F038F88A
:101D8000642000F037FA02F0BDFF4FF6FF7002F05A
:101D9000ABFF04ACA446154D0FCDACE80F0095E8A1
:101DA00003004CF8040B8CF800104FF6FF730093FF
:101DB0004FF4A2734FF4F5724FF49671F02002F0D5
:101DC0006FFF002302930123019300941023FA2252
:101DD0004FF49671F02003F099F801F0F5FD03F04F
:101DE0008DFBFFF797FD03F09BFBFEE738EA000849
:101DF00008B50E480E4B03604FF482734360002316
:101E00008360C3600361012242614FF4007282610A
:101E10002822C2610362436283620A23C36200F024
:101E200085FF00B908BDFFF747FFFBE7E468002026
:101E30000030014030B589B000230393049305932B
:101E4000069307930268184B9A4201D009B030BD3F
:101E50000024019403F584335A6C42F480525A648E
:101E60005A6C02F480520192019A02941A6B42F069
:101E700001021A631B6B03F001030293029BE02330
:101E8000039302230493032306930525079503A9CF
:101E9000064800F03BFA22462946232000F004FAC7
:101EA000232000F011FAD1E7003001400000024089
:101EB00000B583B0002200920D4B596C41F4804173
:101EC0005964596C01F48041009100990192196C98
:101ED00041F0805119641B6C03F080530193019B06
:101EE0000F216FF0010000F0DFF903B05DF804FB93
:101EF0000038024030B589B0044600230193214BDD
:101F00001A6C42F010021A641B6C03F01003019368
:101F1000019B02A903A800F053FE069BCBB900F079
:101F20002FFE0346184AA2FB03239B0C013B1748D4
:101F3000174A026040F2E732C26043600023036147
:101F40008360836101F09AFA054630B1284609B0F2
:101F500030BD00F015FE4300E4E70C4801F024F921
:101F600005460028F2D1362000F0AEF90F2C01D939
:101F70000125EBE700222146362000F095F9054BBC
:101F80001C60E3E70038024083DE1B433C6900200D
:101F9000001000403C000020FEE7FEE7FEE7FEE701
:101FA000FEE7704708B5102000F0BCFA08BD00003D
:101FB00008B5024801F036F808BD00BFE46800200B
:101FC00008B5024801F038F908BD00BF3C6900209F
:101FD0000120704708B506F0A7FC162303604FF0F8
:101FE000FF3008BD08B54FF0FF31FFF7F3FFFEE704
:101FF00070B50C461646002506E0AFF3008021467A
:1020000001F8010B01350C46B542F6DB304670BDD8
:1020100070B50C461646002504E014F8010BAFF32A
:1020200000800135B542F8DB304670BD4FF0FF301F
:1020300070474FF400534B600020704701207047F9
:102040000020704710B503460C4A0D490D48006842
:1020500040B10C4800680344521A934206D8094A1A
:10206000136010BD0748084C0460F2E706F05CFC02
:102070000C2303604FF0FF30F3E700BF00000220A5
:10208000000400008469002048C20020034AD2F8FE
:10209000883043F47003C2F88830704700ED00E0E8
:1020A00008B50A480A4B03604FF4613343600023CC
:1020B0008360C36003610C2242618361C36101F0EC
:1020C000D5FA00B908BDFFF7F7FDFBE788690020E6
:1020D0000010014000B589B00023039304930593D9
:1020E00006930793026803F1804303F588339A420D
:1020F00002D009B05DF804FB0021019103F594338F
:102100005A6C42F010025A645A6C02F010020192AA
:10211000019A02911A6B42F001021A631B6B03F0E1
:1021200001030293029B4FF4C063039302230493C1
:10213000032306930723079303A9024800F0E6F858
:10214000D7E700BF00000240DFF834D00D480E4949
:102150000E4A002302E0D458C4500433C4188C4201
:10216000F9D30B4A0B4C002301E013600432A24266
:10217000FBD3FFF78BFF06F0DDFBFFF7F3FD7047A6
:102180000000022000000020FC060020603C020845
:102190000007002044C20020FEE7000008B50B4BFA
:1021A0001A6842F400721A601A6842F480621A6077
:1021B0001A6842F480721A60032000F063F80F205E
:1021C000FFF798FEFFF774FE002008BD003C0240B8
:1021D000034A1168034B1B780B441360704700BF20
:1021E000CC69002038000020014B1868704700BF00
:1021F000CC69002038B50446FFF7F6FF0546B4F178
:10220000FF3F02D0044B1B781C44FFF7EDFF401B3F
:10221000A042FAD338BD00BF38000020002808DBF8
:102220000901C9B200F1604000F5614080F8001377
:10223000704700F00F000901C9B2014B19547047F3
:1022400014ED00E000B500F00700C0F1070CBCF190
:10225000040F28BF4FF0040C031D062B0FD9C31E1B
:102260004FF0FF3E0EFA0CF021EA000199400EFA01
:1022700003FE22EA0E0241EA02005DF804FB00239D
:10228000EEE70000074AD36823F4E0631B041B0C4D
:10229000000200F4E060034343F0BF6343F4003303
:1022A000D360704700ED00E010B50446054BD868D8
:1022B000C0F30220FFF7C6FF01462046FFF7AEFF3E
:1022C00010BD00BF00ED00E0002807DB00F01F029A
:1022D000400901239340024A42F82030704700BF72
:1022E00000E100E090F83530DBB2022B03D0802310
:1022F000436501207047052380F835300268136874
:1023000023F00103136000207047000000230F2B0F
:1023100000F2E98070B582B065E085684FEA430E4F
:10232000032404FA0EF425EA0405CC6804FA0EF43A
:102330002C438460446824EA02044A68C2F3001211
:102340009A40224342605CE0DC08083450F82420C4
:1023500003F00705AD004FF00F0E0EFA05FE22EA5E
:102360000E0E0A69AA4042EA0E0240F824205CE000
:10237000072200E0002202FA0EF22A4302345A4DEC
:1023800045F82420594A94686FEA0C0224EA0C05A7
:102390004E6816F4801F01D04CEA0405534CA5602A
:1023A000E46802EA04054E6816F4001F01D04CEA06
:1023B00004054E4CE560646802EA04054E6816F4B4
:1023C000003F01D04CEA0405484C65602468224077
:1023D0004D6815F4803F01D04CEA0402434C226062
:1023E00001330F2B7DD801229A400C6804EA020CBD
:1023F00032EA0404F4D14C6804F00304013C012CDB
:102400008BD94A6802F00302032A09D0C4685D0030
:102410000322AA4024EA02048A68AA402243C26036
:102420004A6802F00302022A8ED004684FEA430E83
:10243000032202FA0EF224EA02044A6802F00302BE
:1024400002FA0EF2224302604A6812F4403FC7D0FB
:1024500000220192264A546C44F480445464526C25
:1024600002F480420192019A9C08A51C1E4A52F86F
:10247000255003F0030E4FEA8E0E0F2202FA0EF2E1
:1024800025EA02051B4A90423FF474AF02F58062D0
:1024900090421AD002F58062904218D002F5806214
:1024A000904216D002F58062904214D002F580620C
:1024B000904212D002F58062904210D002F5806204
:1024C00090423FF455AF082255E7012253E702221C
:1024D00051E703224FE704224DE705224BE706228E
:1024E00049E702B070BD704700380140003C014030
:1024F00000380240000002400369194201D0012067
:102500007047002070470AB18161704709048161FA
:102510007047436901EA030221EA030141EA0241EB
:102520008161704708B5054B5B69034200D108BD66
:10253000024B5861FEF762FFF9E700BF003C014023
:10254000002800F0E08170B582B00446036813F003
:10255000010F3BD09F4B9B6803F00C03042B2CD046
:102560009C4B9B6803F00C03082B21D06368B3F5E8
:10257000803F4FD0B3F5A02F52D0964B1A6822F46B
:1025800080321A601A6822F480221A606368002B75
:1025900050D0FFF729FE05468E4B1B6813F4003F11
:1025A00014D1FFF721FE401B6428F5D90320B1E1C7
:1025B000884B5B6813F4800FD8D0864B1B6813F4EC
:1025C000003F03D06368002B00F09F81236813F065
:1025D000020F54D07F4B9B6813F00C0F3ED07D4B05
:1025E0009B6803F00C03082B33D0E368002B68D002
:1025F000794B01221A60FFF7F7FD0546754B1B6802
:1026000013F0020F54D1FFF7EFFD401B0228F5D95C
:1026100003207FE16F4A136843F480331360B5E70A
:102620006C4B1A6842F480221A601A6842F48032B5
:102630001A60ABE7FFF7D8FD0546664B1B6813F43D
:10264000003FC3D0FFF7D0FD401B6428F5D903201D
:1026500060E1604B5B6813F4800FC6D15D4B1B6873
:1026600013F0020F03D0E368012B40F05081594A68
:10267000136823F0F803216943EAC1031360236858
:1026800013F0080F42D063696BB3534B0122C3F8B8
:10269000802EFFF7A9FD05464E4B5B6F13F0020F2E
:1026A00034D1FFF7A1FD401B0228F5D9032031E109
:1026B000484A136823F0F803216943EAC103136011
:1026C000DDE7454B00221A60FFF78EFD0546414BC2
:1026D0001B6813F0020FD2D0FFF786FD401B0228C3
:1026E000F5D9032016E13C4B0022C3F8802EFFF7FA
:1026F0007BFD0546374B5B6F13F0020F06D0FFF7EB
:1027000073FD401B0228F5D9032003E1236813F071
:10271000040F77D02F4B1B6C13F0805F33D1002355
:1027200001932C4B1A6C42F080521A641B6C03F01C
:1027300080530193019B0125284B1B6813F4807F74
:1027400023D0A368012B34D0052B38D0214B1A6F2E
:1027500022F001021A671A6F22F004021A67A368B6
:10276000002B3DD0FFF740FD06461A4B1B6F13F0C0
:10277000020F46D1FFF738FD801B41F288339842A3
:10278000F3D90320C6E00025D6E7144A136843F4C2
:1027900080731360FFF728FD0646104B1B6813F487
:1027A000807FCED1FFF720FD801B0228F5D90320C2
:1027B000B0E0084A136F43F001031367CFE7054BFE
:1027C0001A6F42F004021A671A6F42F001021A6788
:1027D000C5E700BF003802400000474200700040DB
:1027E000FFF702FD0646524B1B6F13F0020F08D095
:1027F000FFF7FAFC801B41F288339842F3D903209B
:1028000088E0EDB9A369002B00F08380484A926804
:1028100002F00C02082A51D0022B17D0454B00229F
:102820001A66FFF7E1FC0446414B1B6813F0007F7A
:1028300042D0FFF7D9FC001B0228F5D9032069E03C
:102840003B4A136C23F080531364DBE7394B0022BF
:102850001A66FFF7C9FC0546354B1B6813F0007F6D
:1028600006D0FFF7C1FC401B0228F5D9032051E038
:10287000E369226A1343626A43EA8213A26A520836
:10288000013A43EA0243E26A43EA0263284A536098
:10289000284B01221A66FFF7A7FC0446244B1B684D
:1028A00013F0007F06D1FFF79FFC001B0228F5D92B
:1028B00003202FE000202DE000202BE0012B2BD067
:1028C0001B4B5B6803F48001E269914226D103F05F
:1028D0003F02216A8A4223D1616A47F6C0721A40D8
:1028E000B2EB811F1ED103F44031A26A5208013AB3
:1028F000B1EB024F18D103F07063E26AB3EB026FE1
:1029000014D1002006E001207047012002E00120E0
:1029100000E0002002B070BD0120FBE70120F9E7D4
:102920000120F7E70120F5E70120F3E70120F1E7B7
:10293000003802400000474208B5334B9B6803F063
:102940000C03042B5BD0082B5BD12F4B5A6802F091
:102950003F025B6813F4800F2CD02B4B5868C0F3F8
:1029600088104FEA401CBCEB000C6EEB0E0E4FEAD9
:102970008E1343EA9C634FEA8C11B1EB0C0163EBBD
:102980000E03DB0043EA5173C90011EB000C43F165
:102990000003590200234FEA4C2041EADC51FEF7C4
:1029A0008DF8194B5B68C3F3014301335B00B0FB47
:1029B000F3F027E0144B5868C0F388104FEA401C2E
:1029C000BCEB000C6EEB0E0E4FEA8E1343EA9C63D9
:1029D0004FEA8C11B1EB0C0163EB0E03DB0043EA11
:1029E0005173C90011EB000C43F10003990200235D
:1029F0004FEA8C2041EA9C51FEF760F8D1E703488A
:102A000000E0034808BD00BF0038024000127A0011
:102A10000024F400002800F09B8070B50D460446A9
:102A20004F4B1B6803F007038B4208D2CBB24C4AD2
:102A30001370136803F007038B4240F08B80236808
:102A400013F0020F17D013F0040F04D0454A936817
:102A500043F4E0539360236813F0080F04D0414A15
:102A6000936843F4604393603E4A936823F0F00315
:102A7000A1680B439360236813F0010F32D06368A1
:102A8000012B21D09A1E012A25D9364A126812F04C
:102A9000020F61D033498A6822F0030213438B602E
:102AA000FFF7A2FB06462F4B9B6803F00C036268FE
:102AB000B3EB820F16D0FFF797FB801B41F28833F0
:102AC0009842F0D9032042E0264A126812F4003FEF
:102AD000E0D101203BE0234A126812F0007FD9D1F7
:102AE000012034E01E4B1B6803F00703AB4207D9FB
:102AF000EAB21B4B1A701B6803F00703AB422DD1DF
:102B0000236813F0040F06D0164A936823F4E053A9
:102B1000E1680B439360236813F0080F07D0114A54
:102B2000936823F46043216943EAC1039360FFF78C
:102B300003FF0C4B9B68C3F303130B4AD35CD840D1
:102B40000A4B18600A4B1868FFF7D4F9002070BDD3
:102B5000012070470120FAE70120F8E70120F6E79D
:102B6000003C02400038024058EA000834000020CF
:102B70003C000020014B1868704700BF3400002063
:102B800008B5FFF7F7FF044B9B68C3F38223034AA2
:102B9000D35CD84008BD00BF0038024050EA0008AE
:102BA00008B5FFF7E7FF044B9B68C3F34233034AC2
:102BB000D35CD84008BD00BF0038024050EA00088E
:102BC0000F2303600B4B9A6802F0030242609A687D
:102BD00002F0F00282609A6802F4E052C2609B68E0
:102BE000DB0803F4E0530361034B1B6803F00703A6
:102BF0000B60704700380240003C02402DE9F0476E
:102C000082B00546884617461E46FFF7EDFA0A9B36
:102C10001B1A03EB0609FFF7E7FA8246284B1B68ED
:102C2000C3F3CB3309FB03F301932B689C6838EAA9
:102C300004040CBF01230023BB423DD0B6F1FF3F8B
:102C4000F3D0FFF7D1FAA0EB0A00484507D2019A6A
:102C500002B14A46019B013B01939146E5E72A6890
:102C6000536823F0E00353606B68B3F5827F0BD0A9
:102C7000AB6AB3F5005F14D0012385F8513000230F
:102C800085F85030032018E0AB68B3F5004F02D050
:102C9000B3F5806FECD12A68136823F0400313600A
:102CA000E6E72A68136823F4005313602A68136860
:102CB00043F400531360DFE7002002B0BDE8F08763
:102CC0003400002010B584B00446164B1868164B2B
:102CD000A3FB0030400D4FF47A7303FB00F0039028
:102CE0006368B3F5827F0BD0039BBBB1039B013BB1
:102CF000039323689B6813F0800FF5D100200EE04A
:102D000000920B46002280212046FFF777FF30B16A
:102D1000636D43F020036365032000E0002004B0EE
:102D200010BD00BF34000020819F5E1600285AD0DD
:102D300010B50446436A33B94368B3F5827F05D0C2
:102D40000023C36102E00023036143610023A36207
:102D500094F85130002B40D0022384F8513022687F
:102D6000136823F040031360636803F48273A2685E
:102D700002F404421343E26802F40062134322693E
:102D800002F002021343626902F001021343A269D6
:102D900002F400721343E26902F038021343226A1C
:102DA00002F080021343A26A02F400522168134326
:102DB0000B60638B03F00403626A02F01002216867
:102DC00013434B602268D36923F40063D36100206E
:102DD0006065012384F8513010BD84F850302046DE
:102DE000FFF728F8B8E7012070472DE9F04383B0DA
:102DF0001F460A9D90F85030012B00F010810446C8
:102E000088469146012380F85030FFF7EDF90646D9
:102E100094F85130DBB26268012B0AD0B2F5827FA0
:102E200040F0E380A268002A40F0E980042B40F0E3
:102E3000E880B8F1000F00F0E680B9F1000F00F073
:102E4000E480002F00F0E38094F85130DBB2042BD3
:102E500002D0052384F8513000236365C4F838900C
:102E6000E787A787C4F83080E786A7862364636472
:102E700023681A6812F0400F03D11A6842F040022A
:102E80001A60E368B3F5006F11D063680BB1012FCE
:102E90000BD1226B236812781A73236B01332363DF
:102EA000E38E9BB2013B9BB2E38601276BE0636834
:102EB0000BB1012F0BD1226B23681288DA60236BD0
:102EC00002332363E38E9BB2013B9BB2E38601276F
:102ED0001CE023689A6812F0010F0ED0E28F92B2C4
:102EE0005AB1DA68A36B1A80A36B0233A363E38F32
:102EF0009BB2013B9BB2E3870127FFF775F9801B6B
:102F0000A84203D3B5F1FF3F40F08380E38E9BB22C
:102F10001BB9E38F9BB2002B53D023689A6812F041
:102F2000020FD6D0E28E92B2002AD2D0002FD0D09B
:102F3000226B1288DA60236B02332363E38E9BB229
:102F4000013B9BB2E3860027C3E723689A6812F02F
:102F5000010F0ED0E28F92B25AB1DA68A36B1A70E9
:102F6000A36B0133A363E38F9BB2013B9BB2E38767
:102F70000127FFF739F9831BAB4202D3B5F1FF3FBD
:102F800049D1002D49D0E38E9BB213B9E38F9BB298
:102F9000BBB123689A6812F0020FD6D0E28E92B2CB
:102FA000002AD2D0002FD0D0226B12781A73236B54
:102FB00001332363E38E9BB2013B9BB2E386002780
:102FC000C3E7324629462046FFF77CFE48B9A3688E
:102FD00063B901932368DA6801929B680193019BAE
:102FE00004E020236365012000E00220012384F82F
:102FF0005130002384F8503003B0BDE8F083022044
:10300000F4E70220F2E70120F0E70120EEE70120DB
:10301000ECE70320EAE70320E8E70320E6E70220E5
:10302000EAE7704710B584B00446026851689368B7
:1030300003F04100012867D013F0020F02D011F015
:10304000800F68D113F4B07F68D011F0200F65D0E5
:1030500013F0400F0FD094F85100C0B203285FD096
:10306000606D40F00400606500200090D068009022
:1030700090680090009813F0200F0CD0606D40F025
:10308000010060650020029090680290106820F0B6
:1030900040001060029A13F4807F09D0636D43F002
:1030A000080363650023039323689B680393039BD2
:1030B000636D002B32D02268536823F0E003536025
:1030C000012384F8513011F0030F31D02268536886
:1030D00023F003035360E36C4BB1174A1A65E06CAD
:1030E000FFF700F918B1636D43F040036365A36C0B
:1030F000A3B1114A1A65A06CFFF7F4F870B1636DC3
:1031000043F04003636509E011F0400F94D0236C55
:103110002046984702E0636C2046984704B010BDF3
:1031200000230193D368019393680193019BF5E712
:103130002046FFF776FFF1E73D31000808B5806BC8
:103140000023C387C386FFF76CFF08BD40B370B58B
:103150000E461546044690F84930E3B1214651F831
:10316000080B00F01FFBA2683146206800F050FBFE
:10317000236BA2682946606800F06CFB2268A16896
:1031800052F8213043F0010342F82130012384F842
:103190004930002070BD80F84830FEF7B1FCDDE713
:1031A000012070477047000090F83D30DBB2012BE2
:1031B00037D1022380F83D300268D36843F0010321
:1031C000D3600368194A934220D0B3F1804F1DD0D9
:1031D000A2F57C42934219D002F58062934215D049
:1031E00002F58062934211D002F5784293420DD0ED
:1031F00002F57052934209D0A2F59432934205D061
:103200001A6842F001021A60002070479A6802F0C2
:103210000702062A07D01A6842F001021A6000204D
:103220007047012070470020704700BF0000014038
:10323000704770477047704710B5044603681A69B5
:1032400012F0020F11D0DA6812F0020F0DD06FF0F9
:1032500002021A610123037703689B6913F0030FCD
:1032600070D0FFF7E6FF0023237723681A6912F076
:10327000040F12D0DA6812F0040F0ED06FF00402BF
:103280001A610223237723689B6913F4407F5FD080
:103290002046FFF7CEFF0023237723681A6912F038
:1032A000080F12D0DA6812F0080F0ED06FF0080283
:1032B0001A61042323772368DB6913F0030F4ED0D0
:1032C0002046FFF7B6FF0023237723681A6912F020
:1032D000100F12D0DA6812F0100F0ED06FF010023B
:1032E0001A61082323772368DB6913F4407F3DD0FC
:1032F0002046FFF79EFF0023237723681A6912F008
:10330000010F03D0DA6812F0010F36D123681A6971
:1033100012F0800F03D0DA6812F0800F34D12368E6
:103320001A6912F0400F03D0DA6812F0400F32D160
:1033300023681A6912F0200F03D0DA6812F0200F08
:1033400030D110BDFFF774FF2046FFF773FF8AE707
:103350002046FFF76DFF2046FFF76CFF9BE72046F6
:10336000FFF766FF2046FFF765FFACE72046FFF753
:103370005FFF2046FFF75EFFBDE76FF001021A61B5
:103380002046FEF78DFCC1E76FF080021A612046EF
:1033900000F0A1F8C3E76FF040021A612046FFF782
:1033A0004AFFC5E76FF020021A61204600F092F84C
:1033B000C7E700000368304A904212D0B0F1804F56
:1033C0000FD0A2F57C4290420BD002F58062904271
:1033D00007D002F58062904203D002F57842904215
:1033E00003D123F070034A681343234A90422AD042
:1033F000B0F1804F27D0A2F57C42904223D002F555
:10340000806290421FD002F5806290421BD002F58C
:103410007842904217D002F57052904213D002F5D4
:10342000806290420FD002F5806290420BD0A2F5EC
:103430009832904207D002F58062904203D002F5A4
:103440008062904203D123F44073CA68134323F08F
:1034500080034A69134303608B68C3620B6883620D
:10346000054B984203D003F58063984201D10B6964
:1034700003630123436170470000014040B310B56E
:10348000044690F83D30F3B1022384F83D302146E4
:1034900051F8040BFFF78EFF012384F8463084F8BF
:1034A0003E3084F83F3084F8403084F8413084F86E
:1034B000423084F8433084F8443084F8453084F84E
:1034C0003D30002010BD80F83C30FFF76BFEDBE79D
:1034D000012070477047704710B5044602681369B1
:1034E00023F44053C1680B431361836802691A4394
:1034F00043691A43C3691A430168CB6823F416432E
:1035000023F00C031343CB600268536923F4407328
:1035100081690B4353610368314A934206D002F537
:103520008062934202D0FFF72BFB01E0FFF738FBEC
:10353000E369B3F5004F29D00021031849411B1856
:1035400041F10001C90041EA5371DB0018186368BA
:103550004FEA83024FEA937341F10001FDF7AEFA9F
:10356000204AA2FB00314909642303FB11031B011C
:103570003233A2FB03235B0903F0F00202EB0112DA
:1035800003F00F03216813448B6010BD0023021861
:1035900043EB0301121841F10001C90041EA5271E5
:1035A000D200101841F10001626892185B41FDF7EA
:1035B00085FA0C4AA2FB00314909642303FB11037D
:1035C000DB003233A2FB03235B095A0002F4F872DA
:1035D00002EB011203F00703216813448B60D4E768
:1035E000001001401F85EB512DE9F84305460F46B9
:1035F00016469946DDF820802B681C6837EA0404DB
:103600000CBF01240024B4422DD1B8F1FF3FF3D008
:10361000B8F1000F05D0FEF7E7FDA0EB090040452B
:10362000EAD92A6802F10C0353E8003F23F4D0736F
:103630000C3242E800310029F3D12A6802F1140368
:1036400053E8003F23F00103143242E8003100291F
:10365000F3D1202385F83D3085F83E30002385F8EE
:103660003C30032000E00020BDE8F88358B310B5DB
:10367000044690F83D300BB3242384F83D30226893
:10368000D36823F40053D3602046FFF725FF226858
:10369000136923F4904313612268536923F02A03CA
:1036A00053612268D36843F40053D3600020206440
:1036B000202384F83D3084F83E3010BD80F83C3043
:1036C000FEF708FDD8E7012070472DE9F04182B0F0
:1036D0001E4690F83D30DBB2202B54D104460D46F7
:1036E0009046002953D0002A53D090F83C30012B4B
:1036F00051D0012380F83C3000230364212380F85B
:103700003D30FEF771FD0746A4F82480A4F826801A
:10371000A368B3F5805F05D04FF00008002384F85C
:103720003C3012E0236913B14FF00008F6E7A846D9
:103730000025F3E738F8023B2268C3F3080353601F
:10374000E28C92B2013A92B2E284E38C9BB273B102
:1037500000963B46002280212046FFF745FFE0B956
:10376000002DE7D015F8012B23685A60E8E7009692
:103770003B46002240212046FFF736FF78B9202340
:1037800084F83D3000E0022002B0BDE8F081012065
:10379000FAE70120F8E70220F6E70320F4E7032028
:1037A000F2E7000010B40A6850F8223023F0010359
:1037B00040F822308B68082B25D000244A68224329
:1037C0001343CA6813430A6913434A691343CA6916
:1037D00013430A6A13434A6A13438A6A1343CA6A41
:1037E00013430A6B13438A691A43CB6B1A43096864
:1037F00050F82140054B2340134340F8213000206E
:103800005DF8044B70474024D8E700BF8000F0FF0C
:1038100010B5013250F8223003F0404C0B684C6870
:1038200043EA04138C6843EA0423CC6843EA044364
:103830000C6904F1FF3E43EA0E534C69A4F1020EF9
:1038400043EA0E6389690B434CEA030340F82230D4
:10385000002010BDB3F5804F05D06FF0704340F8E5
:1038600022300020704730B450F82230094C1C4000
:103870000B684D6843EA05138D6843EA05238D699B
:103880002B43C96843EA01431C4340F8224000200F
:1038900030BC70470000F0CF30B585B00446114D04
:1038A000002210212846FEF72EFE0F4B1B88ADF894
:1038B0000C3000238DF80E3044F020048DF80C40BD
:1038C00064230093032303AA11460848FFF78DFAE7
:1038D000012210212846FEF716FE9DF80E0005B0C5
:1038E00030BD00BF0008024078E80008E46800200E
:1038F000F0B585B004460D46124F0022102138461F
:10390000FEF701FE104B1B88ADF80C3000268DF839
:103910000E6044F040048DF80C408DF80E50642386
:103920000093032303AA11460848FFF75EFA01201B
:10393000FEF760FC012210213846FEF7E4FD304618
:1039400005B0F0BD0008024078E80008E4680020F7
:1039500008B5A3210220FFF7CBFF05210846FFF79A
:10396000C7FF002008BD08B5A0210220FFF7C0FF57
:1039700000210520FFF7BCFF002008BD70B584B012
:1039800004460F4E002210213046FEF7BCFD0025F4
:103990008DF80C508DF80C4064230093012303AA8A
:1039A00011460848FFF721FA0120FEF723FC012207
:1039B00010213046FEF7A7FD284604B070BD00BFB9
:1039C00000080240E468002010B590B000220121F8
:1039D0002548FEF798FD00241BE01120FFF7CEFFDD
:1039E0000A20FEF707FC0020FFF756FF04460346B7
:1039F0001E4A4021684604F065FE6846FDF720F93E
:103A0000642382B269461A48FFF75FFE1420FEF76E
:103A1000F1FB732C01D0532CDFD1A0210220FFF742
:103A200067FF02210120FFF763FF00210420FFF759
:103A30005FFF00210520FFF75BFF2C210620FFF729
:103A400057FF02210920FFF753FF03210A20FFF748
:103A50004FFF1020FFF792FF012211460248FEF7A8
:103A600052FD002010B010BD0000024068EA0008BE
:103A7000886900200000000010B586B02A4C0022A2
:103A800010212046FEF73FFD002303930493ADF879
:103A9000143012238DF80C30642300930A2303AAF8
:103AA00011462248FFF7A1F9012210212046FEF716
:103AB0002AFD9DF810209DF811301B0243EA0243B5
:103AC0009DF812001843DB0D1CD1FCF7CBFC12A3B0
:103AD000D3E90023FCF730FD0022154BFCF756FE1E
:103AE0000022144BFCF728FD4FF04042124BFCF72C
:103AF0004DFE0BA3D3E90023FCF768FB41EC100B50
:103B000006B010BD40F07F40FCF7ACFC41EC100B60
:103B1000F6E700BFAFF300805C8FC2F5285C03407E
:103B2000EC51B81E85EBB13F00080240E46800206C
:103B30000000184000408F40FFFF5F410000000080
:103B400010B586B0264C002210212046FEF7DBFC83
:103B5000002303930493ADF8143012238DF80C3036
:103B6000642300930A2303AA11461E48FFF73DF978
:103B7000012210212046FEF7C6FC9DF813209DF877
:103B800014301B0243EA02439DF815001843DB0D75
:103B900001D040F07F40FCF765FC0DA3D3E9002382
:103BA000FCF7CAFC0022104BFCF7F0FD00220F4B83
:103BB000FCF7C2FC4FF040420D4BFCF7E7FD06A3BB
:103BC000D3E90023FCF702FB41EC100B06B010BD5B
:103BD0005C8FC2F5285C0340EC51B81E85EBB13F09
:103BE00000080240E46800200000184000408F40B8
:103BF000FFFF5F414FF0D843D422A3F87E20B3F8F3
:103C00008020B3F88020B3F8800080B2000280B238
:103C1000B3F88030DBB2184345F21033984211D02C
:103C20004FF0D843D322A3F87E20B3F88020B3F816
:103C30008020B3F8800080B2000280B2B3F88030F8
:103C4000DBB2184370474FF0D8432A22A3F87E20F6
:103C5000020AA3F88020C0B2A3F880000A0AA3F8E1
:103C60008020C9B2A3F8801070474FF0D8432B22B0
:103C7000A3F87E20020AA3F88020C0B2A3F8800037
:103C80000A0AA3F88020C9B2A3F8801070472C223A
:103C90004FF0D843A3F87E207047000070B586B07F
:103CA00000240194029403940494059400940F4B0F
:103CB0001A6B42F002021A631B6B03F002030093BB
:103CC000009B4FF4004601960123029303930223C5
:103CD0000493074D01A92846FEF718FB22463146FA
:103CE0002846FEF710FC06B070BD00BF0038024049
:103CF000000402402DE9F84F064B1B8845F21032B4
:103D0000934209D047F29672934200F00D86BDE8C7
:103D1000F88F00BFD06900204FF0D843ED22A3F800
:103D20007E200122A3F88020FE21A3F88010EE213E
:103D3000A3F87E10DE21A3F880102120A3F88000D4
:103D4000F121A3F87E10A3F88020DF22A3F87E20C3
:103D50001022A3F88020C424A3F87E408F22A3F869
:103D60008020C622A3F87E200022A3F88020E22132
:103D7000A3F88010A3F88010A3F88010BF21A3F847
:103D80007E10AA21A3F88010B021A3F87E100D2187
:103D9000A3F88010A3F88020A3F88010A3F8802057
:103DA0001121A3F88010A3F880201921A3F8801016
:103DB000A3F88020A3F88000A3F880202D21A3F889
:103DC0008010A3F880203D21A3F88010A3F8802064
:103DD0005D21A3F88010A3F88020A3F88010A3F839
:103DE0008020B121A3F87E108021A3F88010A3F8D1
:103DF00080208B26A3F88060A3F880209625A3F866
:103E00008050A3F88020B221A3F87E10A3F8802070
:103E1000A3F880200220A3F88000A3F880200321CB
:103E2000A3F88010A3F88020B327A3F87E70A3F82E
:103E30008020A3F88020A3F88020A3F88020A3F896
:103E40008020A3F88020A3F88020A3F88020A3F886
:103E50008020A3F88020A3F88020A3F88020A3F876
:103E60008020A3F88020A3F88020A3F88020A3F866
:103E70008020A3F88020A3F88020A3F88020A3F856
:103E80008020A3F88020A3F88020A3F88020B42706
:103E9000A3F87E70A3F88060A3F88020A3F8805078
:103EA000A3F88020A125A3F88050A3F88020B52591
:103EB000A3F87E50A3F88000A3F88020A3F8801018
:103EC000A3F880200420A3F88000A3F88020B62166
:103ED000A3F87E10A3F88020A3F88020B721A3F8D0
:103EE0007E10A3F88020A3F880203F21A3F8801043
:103EF000A3F880205E21A3F88010A3F8802064211D
:103F0000A3F88010A3F880208C21A3F88010A3F8D8
:103F10008020AC21A3F88010A3F88020DC21A3F836
:103F20008010A3F880207025A3F88050A3F880208B
:103F30009025A3F88050A3F88020EB25A3F88050AB
:103F4000A3F88020A3F88010A3F88020B821A3F85C
:103F50007E10A3F88020A3F88020A3F88020A3F887
:103F60008020A3F88020A3F88020A3F88020A3F865
:103F70008020BA21A3F87E102421A3F88010A3F892
:103F80008020A3F88020A3F88020C125A3F87E50CC
:103F90002025A3F88050A3F880205425A3F8805052
:103FA000A3F88020FF25A3F88050A3F88020C22525
:103FB000A3F87E500A25A3F88050A3F88020A3F828
:103FC0008000A3F88020C320A3F87E003C20A3F843
:103FD0008000A3F880203A25A3F88050A3F8802021
:103FE0003925A3F88050A3F880203725A3F8805006
:103FF000A3F88020A3F88000A3F880204FF03609B2
:10400000A3F88090A3F880204FF03208A3F88080B6
:10401000A3F880204FF02F0EA3F880E0A3F88020B3
:104020004FF02C0CA3F880C0A3F880202927A3F818
:104030008070A3F880202626A3F88060A3F8802053
:10404000A3F88010A3F88020A3F88010A3F88020A4
:104050002325A3F88050A3F88020A3F88000A3F8BC
:104060008020A3F88090A3F88020A3F88080A3F894
:104070008020A3F880E0A3F88020A3F880C0A3F8F4
:104080008020A3F88070A3F88020A3F88060A3F8B4
:104090008020A3F88010A3F88020A3F88010A3F854
:1040A0008020A3F88050A3F88020A3F87E406221EE
:1040B000A3F88010A3F880200521A3F88010A3F8AE
:1040C00080208421A3F88010A3F88020F021A3F899
:1040D0008010A3F880201821A3F88010A3F8802076
:1040E000A420A3F88000A3F88020A3F88010A3F8F0
:1040F00080204FF05001A3F88010A3F880200C21FD
:10410000A3F88010A3F880201725A3F88050A3F807
:1041100080209521A3F88010A3F88020F321A3F834
:104120008010A3F88020E620A3F88000A3F8802068
:10413000C520A3F87E00A3F88080A3F88020442443
:10414000A3F88040A3F880206520A3F88000A3F89E
:1041500080207620A3F88000A3F880208820A3F890
:104160008000A3F88020C626A3F87E602026A3F84E
:104170008060A3F88020A3F88050A3F88020012558
:10418000A3F88050A3F880204FF0C705A3F87E5015
:10419000A3F88020A3F88020A3F88020A3F8802033
:1041A000C825A3F87E50A3F88020A3F88020A3F8A8
:1041B0008020A3F88020C925A3F87E50A3F8802092
:1041C000A3F88020A3F88020A3F88020A3F8802003
:1041D000A3F88020A3F88020A3F88020A3F88020F3
:1041E000A3F88020A3F88020A3F88020A3F88020E3
:1041F000A3F88020A3F88020A3F88020E026A3F86D
:104200007E604FF0160AA3F880A0A3F880201C253A
:10421000A3F88050A3F880202127A3F88070A3F88A
:104220008020A3F88090A3F880204627A3F8807010
:10423000A3F880204FF05207A3F88070A3F88020E5
:104240004FF0640CA3F880C0A3F880204FF07A0EE2
:10425000A3F880E0A3F880204FF08B08A3F88080BB
:10426000A3F880204FF0990BA3F880B0A3F880202A
:104270004FF0A807A3F88070A3F880204FF0B9088A
:10428000A3F88080A3F880204FF0C40EA3F880E04C
:10429000A3F880204FF0CA0CA3F880C0A3F88020B8
:1042A000D227A3F88070A3F880204FF0D90BA3F891
:1042B00080B0A3F88020A3F88060A3F88020A3F842
:1042C0008010A3F880204FF0E10BA3F87EB0A3F894
:1042D00080A0A3F88020A3F88050A3F880204FF09E
:1042E000220AA3F880A0A3F88020A3F88090A3F866
:1042F00080204FF04509A3F88090A3F880204FF06C
:10430000520AA3F880A0A3F880204FF0640AA3F813
:1043100080A0A3F880204FF07A0AA3F880A0A3F829
:1043200080204FF08B0AA3F880A0A3F880204FF0E4
:10433000990BA3F880B0A3F880204FF0A80AA3F847
:1043400080A0A3F88020A3F88080A3F88020A3F8A1
:1043500080E0A3F88020A3F880C0A3F88020A3F811
:104360008070A3F88020D827A3F88070A3F880205D
:10437000A3F88060A3F88020A3F88010A3F8802021
:10438000E226A3F87E604FF00508A3F88080A3F82A
:1043900080200B26A3F88060A3F880201B26A3F8BA
:1043A0008060A3F880203426A3F88060A3F88020E2
:1043B000A3F88040A3F880204F26A3F88060A3F8DC
:1043C00080206126A3F88060A3F880207926A3F8D6
:1043D0008060A3F88020A3F88000A3F880204FF02D
:1043E000970EA3F880E0A3F880204FF0A60CA3F866
:1043F00080C0A3F88020B727A3F88070A3F880209E
:10440000C226A3F88060A3F880204FF0C709A3F864
:104410008090A3F880204FF0D109A3F88090A3F8F2
:1044200080204FF0D609A3F88090A3F880204FF0A9
:10443000DD09A3F88090A3F88020A3F88010A3F8EA
:104440008020E321A3F87E10A3F88080A3F88020C9
:104450000A21A3F88010A3F88020A3F88050A3F8C5
:1044600080203321A3F88010A3F88020A3F8804097
:10447000A3F880204FF05001A3F88010A3F880200B
:104480006221A3F88010A3F880207821A3F880107F
:10449000A3F88020A3F88000A3F88020A3F880E090
:1044A000A3F88020A3F880C0A3F88020A3F8807030
:1044B000A3F88020A3F88060A3F88020C721A3F888
:1044C0008010A3F88020D121A3F88010A3F88020C9
:1044D000D521A3F88010A3F88020CB46A3F88090C4
:1044E000A3F88020F321A3F88010A3F88020E42013
:1044F000A3F87E000120A3F88000A3F88020A3F891
:104500008000A3F880204FF0020AA3F880A0A3F84F
:1045100080202A20A3F88000A3F880204FF03C09D7
:10452000A3F88090A3F880204FF04B08A3F8808078
:10453000A3F880205D27A3F88070A3F8802074265C
:10454000A3F88060A3F880208425A3F88050A3F806
:1045500080209324A3F88040A3F880204FF0A20E7F
:10456000A3F880E0A3F880204FF0B300A3F8800008
:10457000A3F880204FF0BE0CA3F880C0A3F88020E1
:104580004FF0C400A3F88000A3F880204FF0CD0CBA
:10459000A3F880C0A3F88020D320A3F88000A3F85C
:1045A0008020A3F880B0A3F88020A3F88010A3F89F
:1045B00080204FF0E50BA3F87EB0A3F88020A3F88D
:1045C0008020A3F88020A3F88020A3F880A0A3F87F
:1045D00080204FF0290AA3F880A0A3F88020A3F838
:1045E0008090A3F88020A3F88080A3F88020A3F80F
:1045F0008070A3F88020A3F88060A3F88020A3F83F
:104600008050A3F88020A3F88040A3F88020A3F86E
:1046100080E0A3F880204FF0B304A3F88040A3F813
:1046200080204FF0BE04A3F88040A3F880204FF014
:10463000C404A3F88040A3F88020A3F880C0A3F8A6
:104640008020A3F88000A3F88020DC20A3F880005D
:10465000A3F88020A3F88010A3F88020E621A3F817
:104660007E101121A3F88010A3F880203421A3F834
:104670008010A3F880204FF05609A3F88090A3F88B
:1046800080204FF0760EA3F880E0A3F880204FF052
:10469000770CA3F880C0A3F880206624A3F880409C
:1046A000A3F880208826A3F88060A3F880209920B2
:1046B000A3F88000A3F88020BB27A3F88070A3F89C
:1046C0008020A3F88000A3F88020A3F88040A3F8FE
:1046D00080205521A3F88010A3F88020A3F8801033
:1046E000A3F880204FF04508A3F88080A3F880202D
:1046F0004325A3F88050A3F880204425A3F88050D8
:10470000A3F880204FF0E70AA3F87EA04FF0320A0A
:10471000A3F880A0A3F88020A3F88010A3F880203D
:10472000A3F880E0A3F88020A3F88040A3F88020BD
:104730004FF0670EA3F880E0A3F88020A3F880E094
:10474000A3F880204FF0870EA3F880E0A3F8802024
:10475000A3F88000A3F88020A3F88070A3F880203D
:10476000A3F88000A3F88020A3F880C0A3F88020DD
:10477000A3F88050A3F88020A3F88090A3F88020AD
:104780004FF02309A3F88090A3F880204FF033095D
:10479000A3F88090A3F88020A3F88080A3F880205D
:1047A0004FF0E808A3F87E80A3F88020A3F88020CB
:1047B000A3F88000A3F88020A3F880E0A3F880206D
:1047C000A3F88060A3F88020A3F880C0A3F880201D
:1047D000A3F88040A3F88020A3F88060A3F880208D
:1047E000AA26A3F88060A3F88020A3F88070A3F81D
:1047F0008020A3F88000A3F88020A3F88040A3F8CD
:104800008020A3F88010A3F88020A3F88010A3F8DC
:104810008020A3F88050A3F88020A3F88050A3F84C
:104820008020A3F88010A3F88020E921A3F87E104F
:10483000A3F88060A3F88020A3F88020A3F880204C
:10484000A3F87E20A3F88060CF21A3F87E10A3F800
:104850008020A3F88020A3F88020A3F88020A3F86C
:104860008020A3F88020A3F88020A3F8802015469C
:104870001C46A3F88020A3F88020A3F88020A3F88A
:104880008020A3F88020A3F88020A3F88020A3F83C
:104890008020A3F88020F023A4F87E30A4F88020A4
:1048A0005023A4F88030A4F88020A4F88020A4F835
:1048B0008020F323A4F87E30A4F88020F923A4F804
:1048C0007E300623A4F880301023A4F880302927F6
:1048D000A4F88070A4F880203A23A4F87E305526EE
:1048E000A4F880601123A4F87E306420FDF782FCD8
:1048F000A4F87E703523A4F87E30A4F880505123AC
:10490000A4F87E30FF23A4F880305323A4F87E302F
:104910002C23A4F88030A4F87E608222A4F88020A2
:10492000A4F87E30FFF7F3B94FF0D8441123A4F870
:104930007E307820FDF75EFC3621A4F87E104823F7
:10494000A4F880303A23A4F87E305523A4F88030B0
:10495000F023A4F87E30C322A4F88020A4F87E308F
:104960009622A4F88020B422A4F87E200122A4F884
:104970008020B622A4F87E200A22A4F88020A22259
:10498000A4F88020B722A4F87E20C622A4F88020B4
:10499000B922A4F87E200222A4F88020E022A4F804
:1049A0008020C020A4F87E008020A4F88000162576
:1049B000A4F88050C120A4F87E001920A4F880003B
:1049C000C226A4F87E60A726A4F88060C526A4F8B5
:1049D0007E60A4F88050E825A4F87E504025A4F815
:1049E00080508A25A4F880500025A4F88050A4F8AF
:1049F00080502925A4F88050A4F88000A520A4F8B0
:104A000080003320A4F88000A4F87E20A4F8803031
:104A10000722A4F880200D22A4F880200422A4F804
:104A200080200522A4F880201422A4F88020A4F875
:104A300080105421A4F880104C20A4F88000382164
:104A4000A4F880101321A4F88010A4F880202E214F
:104A5000A4F880103421A4F88010E121A4F87E107D
:104A6000A4F880301021A4F88010A4F880200E2231
:104A7000A4F880200C22A4F880200822A4F880202A
:104A80003522A4F880204422A4F88020A4F88000D5
:104A90002622A4F88020A4F880101222A4F88020F6
:104AA0002C22A4F880203222A4F88020A4F87E30A2
:104AB0003C22A4F88020A4F87E306923A4F880303A
:104AC0007820FDF797FB2123A4F87E30A4F87E50D0
:104AD000FFF71DB908B501224FF400410148FDF769
:104AE00012FD08BD0004024029224FF0D843A3F86C
:104AF0007E2070470346504AD079032800F2978001
:104B0000DFE800F05C02223F802B75D010D8402BEC
:104B100074D003D9602B09D1C0234FE0002B6FD094
:104B2000202B01D1402349E002207047022070472A
:104B3000C02B67D0E02B01D180233FE0A02B01D117
:104B400000233BE002207047802B5DD00ED8402B25
:104B50005CD003D9602B08D1A0232FE0002B57D0C5
:104B6000202B01D1E02329E070477047C02B51D0A2
:104B7000E02B01D1202321E0A02B01D160231DE0F7
:104B80007047802B48D010D8402B47D003D9602BDA
:104B900009D1002312E0002B42D0202B01D1802329
:104BA0000CE00220704702207047C02B3AD0E02B67
:104BB00001D1402302E0A02B3BD1C02310B51E4AF7
:104BC0009371118847F2967291422DD04FF0D842DE
:104BD0003621A2F87E10A2F88030174C6188013986
:104BE00089B20020FFF72FF8A188013989B200208F
:104BF000FFF73BF8002010BD2023DFE7E023DDE7CF
:104C00006023DBE7A023D9E74023D7E78023D5E75C
:104C1000C023D3E70023D1E7E023CFE72023CDE76C
:104C2000A023CBE76023C9E743F00803CEE70120C8
:104C300070470220704700BFD069002008B50328E4
:104C400029D8DFE800F002101820144B4FF4A072AE
:104C50005A804FF4F0729A80104BD8710020FFF701
:104C600049FF002008BD0D4B4FF4F0725A804FF4FD
:104C7000A0729A80F0E7094B4FF4A0725A804FF46B
:104C8000F0729A80E8E7054B4FF4F0725A804FF4C7
:104C9000A0729A80E0E70220E4E700BFD06900201C
:104CA0002DE9F04180460E4614461F46BDF81850C7
:104CB0001146FEF7C8FF39463046FEF7D6FFFEF72D
:104CC000E6FF0BE04FF0D84EAEF880500CF1010C2F
:104CD0001FFA8CFCA445F5D90136B6B2BE4201D804
:104CE000C446F7E7BDE8F08100B583B0009040F21C
:104CF0003F1340F2DF1200210846FFF7D1FF03B057
:104D00005DF804FB08B5FEF7C9FF00F061F9FEF796
:104D100071FF45F21033984203D047F296739842E0
:104D200016D10C4B18804FF4A0725A804FF4F072D9
:104D30009A80FEF7DFFF0120FFF780FF4FF6FF703C
:104D4000FFF7D2FFFFF7D0FEFFF7C4FE002008BD3B
:104D50000120FCE7D069002038B50C461546014615
:104D6000FEF771FF21462046FEF77FFFFEF78FFF1B
:104D70004FF0D843A3F8805038BD2DE9F04F83B0F1
:104D800005460E4691469B46BDF830A0904219D28A
:104D9000A2EB00081FFA88F85E4518D2ABEB0607B5
:104DA000BFB24D4517D2012300935E4517D20123B0
:104DB0000193A8EB070424B2524659464846FFF730
:104DC000CBFF26E0A0EB02081FFA88F8E4E7A6EB89
:104DD0000B07BFB2E5E74FF0FF330093E5E74FF075
:104DE000FF330193E5E7524631462846FFF7B4FF0B
:104DF00063001BB27A42934204DDE41B24B2009AA2
:104E00001544ADB2434504DA444424B2019B1E4428
:104E1000B6B24D45E7D15E45E5D103B0BDE8F08FB0
:104E20002DE9F04F85B083468C46BDF838E0A2F1FD
:104E3000200A5FFA8AFA032B5DD8DFE803F0021D2F
:104E4000242D0AEB4A0A2D4B03EB8A0A0C231F463A
:104E500006225A44B2F5F07F4DDC0CEB0702B2F5A6
:104E6000A07F48DC0024A046A146CDF80CA0029308
:104E7000E246CDF804E036E0214B03EB0A1A10239A
:104E80001F460822E5E70AEBCA0A1E4B03EB8A0A13
:104E9000242318270C22DCE71B4B03EB8A1A402340
:104EA00020271022D5E70134E4B2A74212D07600C1
:104EB000F6B20135EDB2072D11D816F0800FF2D001
:104EC00004EB0A0108EB0B00019A89B280B2FFF7EC
:104ED00043FFE8E708F101085FFA88F8002409F1C8
:104EE00001035FFA83F9029B4B4504D9039B13F836
:104EF00009600025DFE705B0BDE8F08F7C150108EB
:104F00008C0F01083002010870EA00082DE9F04F0B
:104F100087B0109E9DF844B0BDF848E0BBF1030F88
:104F200052D8DFE80BF0022E24294FF00C0A4FF084
:104F3000060900EB020840F2DF124245A8BF4246D4
:104F40001FFA82F808F101081FFA88F8CF1840F21A
:104F50003F139F42A8BF1F46BFB20137BFB20D46E5
:104F6000044603900591CDF810B0F3461EE04FF0D3
:104F7000180A4FF00C09DCE74FF0200A4FF0100937
:104F8000D7E74FF0100A4FF00809D2E705EB0A0304
:104F9000BB4201DB039D059CCDF800B0049B294674
:104FA0002046FFF73DFF4C44A4B201363278A2F10F
:104FB0002003DBB25E2B07D804EB09034345E5DB96
:104FC0005544ADB2039CE1E707B0BDE8F08F0000A7
:104FD0002DE9F04FA9B0002423942494259426941D
:104FE00027941C941D941E941F9420942194229421
:104FF000159416941794189419941A941B94009469
:10500000A24B9A6B42F001029A639A6B02F0010282
:105010000092009A01941A6B42F020021A631A6BF4
:1050200002F020020192019A02941A6B42F04002AF
:105030001A631A6B02F040020292029A03941A6BEE
:1050400042F008021A631A6B02F008020392039AF4
:1050500004941A6B42F008021A631A6B02F00802F9
:105060000492049A05941A6B42F008021A631A6BB0
:1050700002F008020592059A06941A6B42F00802A3
:105080001A631A6B02F008020692069A07941A6BCA
:1050900042F008021A631A6B02F008020792079A9C
:1050A00008941A6B42F008021A631A6B02F00802A5
:1050B0000892089A09941A6B42F010021A631A6B4C
:1050C00002F010020992099A0A941A6B42F0100237
:1050D0001A631A6B02F010020A920A9A0B941A6B66
:1050E00042F010021A631A6B02F010020B920B9A34
:1050F0000C941A6B42F010021A631A6B02F0100241
:105100000C920C9A0D941A6B42F010021A631A6BEF
:1051100002F010020D920D9A0E941A6B42F01002DA
:105120001A631A6B02F010020E920E9A0F941A6B09
:1051300042F010021A631A6B02F010020F920F9ADB
:1051400010941A6B42F010021A631A6B02F01002EC
:105150001092109A11941A6B42F010021A631A6B93
:1051600002F010021192119A12941A6B42F0080286
:105170001A631A6B02F008021292129A13941A6BB5
:1051800042F008021A631A6B02F008021392139A93
:1051900014941A6B42F008021A631B6B03F00803A5
:1051A0001493149B4FF48059CDF88C9002252495CC
:1051B00026950C26279623A93548FDF7A7F8CDF8A4
:1051C0008C9024952695279623A93248FDF79EF8C2
:1051D000102323932495269527962F4F23A93846ED
:1051E000FDF794F82023239324952695279623A949
:1051F0003846FDF78BF84FF4804ACDF88CA0249503
:105200002695279623A93846FDF780F84FF40043EA
:10521000239324952695279623A93846FDF776F8FB
:105220000123239324952695279623A93846FDF735
:105230006DF8239524952695279623A93846FDF7E2
:1052400065F880232393249526952796DFF84C80D4
:1052500023A94046FDF75AF84FF480732393249511
:105260002695279623A94046FDF750F84FF4007382
:10527000239324952695279623A94046FDF746F8C3
:105280004FF4806BCDF88CB0249509E000380240D3
:105290000014024000180240000C024000100240BE
:1052A0002695279623A94046FDF730F84FF4006372
:1052B000239324952695279623A94046FDF726F8A3
:1052C000CDF88C9024952695279623A94046FDF786
:1052D0001DF84FF40053239324952695279623A970
:1052E0004046FDF713F8CDF88CA024952695279617
:1052F00023A94046FDF70AF84FF400432393249571
:105300002695279623A94046FDF700F84FF48073B1
:10531000239324952695279623A93846FCF7F6FF74
:105320004FF40073239324952695279623A9384696
:10533000FCF7ECFFCDF88CB024952695279623A991
:105340003846FCF7E3FF15484FF02043036003F5B0
:105350008273436006238360C46004611023436149
:105360008461C46104624462C0F82890C462C0F8D9
:1053700030A04463846344640F231C933C231E9336
:105380001F9422941595179518941B9415AA1CA97F
:10539000FDF7DCFE29B0BDE8F08F00BFD869002022
:1053A0002DE9D04F2DED068B0446B0EE40AAF0EE6D
:1053B00060AAB0EE419AF0EE619AB0EE428AF0EE49
:1053C000628A5BEC13AB59EC148B57EC156B6022C3
:1053D000002103F003FA84ED00AB84ED029B84ED21
:1053E000048BC4E906ABC4E90889C4E90A67BDECCB
:1053F000068BBDE8D08F2DE9D04F2DED028B82B00A
:10540000044653EC102B90ED0E8B80ED108BD0E901
:105410000C67C0E90E6780ED0C0BD0E91489C0E978
:105420001689D0E912ABC0E914ABD0E90601FBF74D
:1054300083F8CDE90001D4E9082330463946FBF76B
:105440007BF802460B46DDE90001FAF7BFFE06468F
:105450000F46D4E90A2351EC180BFBF76DF802460E
:105460000B4630463946FAF7B1FE06460F46D4E9F8
:10547000022350465946FBF75FF802460B4630467A
:105480003946FAF7A1FE06460F46D4E90423404602
:105490004946FBF751F802460B4630463946FAF7C3
:1054A00093FED4E90023FBF771F941EC100BC4E93A
:1054B000120102B0BDEC028BBDE8D08F08B501220D
:1054C0004FF400710148FDF71EF808BD00140240BA
:1054D00008B54FF480610248FDF71BF808BD00BF16
:1054E0000014024008B54FF0E0231B6901F0A4FE50
:1054F000012800D108BD00F08DFAFBE7EFF305832A
:105500002BB9064B186828B901221A6070476FF052
:10551000050070474FF0FF30704700BFE07000207B
:10552000EFF3058373B90A4B1B68012B0DD110B53E
:105530000024084BDC77064B02221A6001F0DAFBEC
:10554000204610BD6FF0050070474FF0FF307047E8
:10555000E070002000ED00E0F0B587B00024059475
:10556000EFF3058474BB68B322B31568936903B97C
:1055700018235C1E372C49D8546814F0010F47D10A
:1055800056696EB14FEA960C94682CB1D7685B2FC0
:1055900002D9176907B1C6B92CB14FF0FF340EE03C
:1055A0004FF0800CF0E7D4688CB9146994B14FF0D7
:1055B000FF3404E01546002418234FF0800C012C22
:1055C0000AD0ACB1059807B0F0BD0124F7E74FF061
:1055D000FF34F4E70024F2E7146992680292019420
:1055E00000930B466246294601F016FB0590E9E759
:1055F00005AA019200930B461FFA8CF2294601F08E
:1056000046FB0128DED000230593DBE70020DAE724
:105610000020D8E708B5EFF3058333B908B90020B7
:1056200008BD01F0C9FC0020FAE76FF00500F7E7BC
:1056300070B582B0EFF30583002B48D10E461446B7
:10564000002848D0884248D34AB1956815B1D3683C
:105650004F2B14D8002D42D1E3680BB138E0002362
:1056600001280ED06BBB314600F06AFD05467DB3C4
:1056700004B124682146284601F0DEF828E0012321
:10568000EEE7ABB903220021012000F012FD054630
:10569000F5B1002EEBD000231A461946284600F03B
:1056A0006DFD0128E3D0284601F0F0F800250FE059
:1056B000A368032200920022114600F0B0FC0546C8
:1056C000E6E7A268314600F018FD0546CFE7002561
:1056D000284602B070BD0025FAE70025F8E700254E
:1056E000F6E720B310B582B00C46EFF30583B3B1F3
:1056F00001BB0021019101AA01F046F801281CD14B
:10570000019850B14FF0E0234FF08052C3F8042DC0
:10571000BFF34F8FBFF36F8F002002B010BD00F0BA
:1057200060FF01280CD06CB16FF00100F5E76FF05D
:10573000030070476FF00300EFE76FF00200ECE743
:105740000020EAE76FF00200E7E720B300B583B07E
:10575000EFF30583A3B10023019301A900F039FE03
:1057600001281BD1019898B14FF0E0234FF08052EF
:10577000C3F8042DBFF34F8FBFF36F8F002007E0F6
:1057800000231A46194600F0F9FC012809D100202F
:1057900003B05DF804FB6FF0030070476FF0020088
:1057A000F6E76FF00200F3E7034B0360034B0B6077
:1057B00080231360704700BF84700020846E002037
:1057C000034B0360034B0B604FF48073136070470F
:1057D000286E0020286A002000F1080343604FF083
:1057E000FF328260C36003610023036070470023BF
:1057F0000361704743684B609A688A6051609960A2
:105800000861036801330360704730B40D68B5F177
:10581000FF3F11D000F108031C465B681A68AA42DA
:10582000FAD963684B6099608C60616008610368B5
:105830000133036030BC70470469F2E703694168D3
:1058400082688A60416851605A68824206D00022AC
:1058500002611A68013A1A601868704782685A60D3
:10586000F5E7000082B0002301930D4B1B68B3F1F4
:10587000FF3F08D04FF0500383F31188BFF36F8FC1
:10588000BFF34F8FFEE74FF0500383F31188BFF350
:105890006F8FBFF34F8F019B002BFCD002B070477E
:1058A0004000002008480068006880F308884FF036
:1058B000000080F3148862B661B6BFF34F8FBFF368
:1058C0006F8F00DF00BF000008ED00E0DFF80C0084
:1058D000016841F4700101607047000088ED00E04C
:1058E0004FF0807340F8043C21F0010140F8081C9F
:1058F000054B40F80C3C40F8202C6FF0020340F8B8
:10590000243C4438704700BF655800080000000080
:10591000074B19680868B0E8F04F80F30988BFF3B7
:105920006F8F4FF0000080F311887047AFF3008055
:1059300000BE00204FF0500383F31188BFF36F8F38
:10594000BFF34F8F0B4A136801331360012B00D054
:1059500070474FF0E023D3F8043D13F0FF0FF7D06A
:105960004FF0500383F31188BFF36F8FBFF34F8F56
:10597000FEE700BF40000020094B1B6843B94FF011
:10598000500383F31188BFF36F8FBFF34F8FFEE790
:10599000013B034A13600BB983F31188704700BFC2
:1059A0004000002000000000000000000000000097
:1059B000EFF30980BFF36F8F154B1A681EF0100FBD
:1059C00008BF20ED108A20E9F04F10602DE9090092
:1059D0004FF0500080F31188BFF34F8FBFF36F8FEC
:1059E00001F010FB4FF0000080F3118809BC19682A
:1059F0000868B0E8F04F1EF0100F08BFB0EC108A36
:105A000080F30988BFF36F8F704700BFAFF300804A
:105A100000BE002008B54FF0500383F31188BFF398
:105A20006F8FBFF34F8F01F0BFF928B14FF0E02324
:105A30004FF08052C3F8042D002383F3118808BD72
:105A40004FF0E022002313619361054B1B68054969
:105A5000A1FB03139B09013B5361072313617047AB
:105A600034000020D34D62104FF0E023D3F8002D16
:105A70003D4B9A421CD04FF0E023D3F8002D3B4B16
:105A80009A421ED030B583B0394B1A78D2B2019207
:105A9000FF221A701B78DBB28DF803309DF80330BB
:105AA00003F05003334A1370334B07221A601BE094
:105AB0004FF0500383F31188BFF36F8FBFF34F8F05
:105AC000FEE74FF0500383F31188BFF36F8FBFF3EE
:105AD0004F8FFEE7284A1368013B13609DF803309F
:105AE0005B00DBB28DF803309DF8033013F0800FBC
:105AF000F0D1214B1B68032B08D04FF0500383F3E8
:105B00001188BFF36F8FBFF34F8FFEE71B021A4A56
